:100000000C9436000C94430B0C946C0B0C94950BD5
:100010000C94550D0C94550D0C94550D0C94550DD8
:100020000C94550D0C94550D0C94550D0C94550DC8
:100030000C94550D0C94550D0C94550D0C94550DB8
:100040000C94BE0B0C94550D0C94550D0C94550D41
:100050000C94550D006000628000620091001ABC93
:1000600000910099800099009A001AEB11241FBE9C
:10007000CFE5D8E0DEBFCDBFE4E5F0E040E017C05B
:10008000B591A59135912591059107FD0CC09591EC
:100090008591EF01F92FE82F05900D92A217B30774
:1000A000D9F7FE0104C01D92A217B307E1F7EC36A1
:1000B000F40731F70E941B040C942B0DF894FFCF2A
:1000C000AEE0B0E0E6E6F0E00C94700C4C016B01A1
:1000D0001A8219828FEF9FEF9C838B831E821D8271
:1000E00058874F833A872987A12CB12CD6016D9070
:1000F0007C90F301EA0DFB1D808181110FC0D601B8
:10010000ED93FC938081853209F0D3C13F01BFEFAD
:100110006B1A7B0AF6017182608219C0853279F30D
:10012000B401082E000C990B0E948C084FEFA41A02
:10013000B40ADCCF8C32ACF08D32F9F489819A812B
:1001400081609A8389833196D601ED93FC93D60121
:10015000ED91FC9180818B3269F789819A8184606D
:10016000F0CF803221F489819A818860EACF83328E
:1001700051F489819A818061E4CF803321F48981AF
:100180009A818260DECFB701C6010E94C10A9E83B8
:100190008D8397FF0BC029813A81B1E02B273A83E9
:1001A00029839195819591099E838D8389819A8177
:1001B00080FF03C08D7F9A838983D601ED91FC91E6
:1001C000119780818E3249F43196ED93FC93B701FB
:1001D000C6010E94C10A9C838B83C6010E94300C19
:1001E000582ED601ED91FC918081082E000C990BC0
:1001F0000E943F0D893609F443C084F4833609F424
:1002000002C134F4853209F427C18136E1F030C1EE
:100210008436B1F188360CF4D9C02AC1803709F48C
:100220009AC03CF48E3609F4BCC08F3609F461C024
:100230001FC1853709F440C0883709F476C0833779
:1002400009F016C1F3C0652D70E0A701CE010B9631
:100250000E940000892B09F426C1D601ED91FC9182
:100260001197CF0101968D939C932081AE01455F3C
:100270005F4FBE016F5F7F4FC4010E94000010C13D
:10028000652D70E0970141E050E0CE010B960E9491
:100290005B06892B09F407C1F601808191810196E3
:1002A00091838083AE01455F5F4FBE016F5F7F4FDB
:1002B000C4010E94E905F4C0652D70E0970140E09B
:1002C00050E0CE010B960E945B06892B09F4EBC02F
:1002D000D6018D919C91119701968D939C93AE01BF
:1002E000455F5F4FBE016F5F7F4FC4010E94D8081A
:1002F000D7C0652D70E0970140E050E0CE010B962D
:100300000E945B06892B09F4CEC0F60180819181A1
:10031000019691838083AE01455F5F4FBE016F5FA1
:100320007F4FC4010E948907BBC0652D70E0970113
:1003300040E050E0CE010B960E945B06892B09F449
:10034000B2C0D601ED91FC911197CF0101968D932A
:100350009C9320811CC0970140E050E060EF70E06A
:10036000CE010B960E945B06892B09F49CC0F60116
:10037000808191810196918380838B859C85892BD7
:1003800029F420E030E047E850E084C028E7AE01DF
:10039000455F5F4FBE016F5F7F4FC4010E945E02E9
:1003A0007FC0A501400F511F652D70E09701CE0160
:1003B0000B960E940000892B09F475C0D6018D911F
:1003C0009C91119701968D939C9373C0652D70E05D
:1003D000A701CE010B960E940000892B09F463C08F
:1003E000D601ED91FC911197CF0101968D939C93CD
:1003F0002081AE01455F5F4FBE016F5F7F4FC4013B
:100400000E9400004DC0B0E85B124DC0F601808133
:100410009181019691838083D701ED91FC91119791
:10042000CF0102968D939C93808120C0B0E85B122F
:100430003AC0F60180819181019691838083D70132
:10044000ED91FC911197CF0102968D939C93408181
:10045000518120E030E01EC0B0E85B1224C0F601FC
:10046000208131812F5F3F4F318320838B870DC0E7
:1004700085E28B87D6016D927C921A8219821E8248
:100480001D828FEF9FEF9C838B8321E030E0AE01D4
:10049000455F5F4FBE016F5F7F4FC4010E94190B24
:1004A0008A0D9B1D07C0F601808191810196918381
:0C04B0008083C5012E96EFE00C948C0CAC
:1004BC00AFE0B0E0E4E6F2E00C946D0C1C016B01D3
:1004CC005A8349832B83FB0182819381848095809D
:1004DC0000811181A680B78097FD02C00D7F02C0FC
:1004EC0081E090E0E981FA814080518062807380E4
:1004FC009801207133273D832C83740104FF08C0BD
:10050C00411451046104710419F032E0E31AF1084A
:10051C00F801E870FF27FF83EE8303FF03C0F1E0CF
:10052C00EF1AF108F6010084F185E02D3197FF8771
:10053C00EE87EA0DFB1D10829C012E193F093987AD
:10054C002887C801827099279B878A87EB818E2F19
:10055C00EE0F990B9C01215431093D872C872E8578
:10056C003F852230310530F48C819D81892B09F037
:10057C0042C05CC0411451046104710461F18E8568
:10058C009F8501979F878E87C2018F7099278A302C
:10059C00910514F4C09602C0895A9F4FEC85FD85D5
:1005AC007A9748F49C012062215631092A31310591
:1005BC0010F40E94360DEE85FF85EA0DFB1D80833D
:1005CC00F1E0EF1AF10884E076946794579447941D
:1005DC008A95D1F7C4CF888599858E0D9F1D1816E5
:1005EC0019066CF21E141F040CF0BECFEA85FB85B5
:1005FC00EF2B29F6B9CFE981FA8180819181A28113
:10060C00B381892B8A2B8B2B89F0EE85FF85EA0D24
:10061C00FB1D31972B8120838E859F8502979F87A9
:10062C008E87FC01EA0DFB1D80E38083EE81FF8148
:10063C00EF2B59F02E853F85215031093F872E87AE
:10064C00F901EA0DFB1D80E28083F601408551859E
:10065C00415051092E853F85421B530BB9016A0D40
:10066C007B1D9401C1010E94540A9C01F1018081FF
:10067C00918190FF06C0F6018281938182179307C6
:0C068C000CF4C9012F96E2E10C94890CDB
:100698001F93CF93DF93EC0183ED90E30197F1F77C
:1006A80000C000001E8188810E941F0991E0181374
:1006B80090E0992379F161E08E81811160E08B816E
:1006C8000E94BF0483ED90E30197F1F700C000009A
:1006D8001E8188810E941F0991E0811390E099236F
:1006E80009F487C061E08E81811160E08C810E94ED
:1006F800BF0483ED90E30197F1F700C000001E816D
:1007080088810E941F0991E0811390E0911173C0C4
:1007180012E07CC01E8189810E941F0991E081132B
:1007280090E0992379F161E08E81811160E08B81FD
:100738000E94BF0483ED90E30197F1F700C0000029
:100748001E8189810E941F0991E0811390E09923FD
:1007580009F453C061E08E81811160E08C810E94B0
:10076800BF0483ED90E30197F1F700C000001E81FC
:1007780089810E941F0991E0811390E091113FC087
:1007880015E044C01E818A810E941F0991E08113EF
:1007980090E09923B1F161E08E81811160E08B8155
:1007A8000E94BF0483ED90E30197F1F700C00000B9
:1007B8001E818A810E941F0991E0811390E099238C
:1007C80011F161E08E81811160E08C810E94BF048B
:1007D80083ED90E30197F1F700C000001E818A8144
:1007E8000E941F0991E0811390E091110EC018E05A
:1007F8000DC011E00BC013E009C014E007C016E0FB
:1008080005C01FEF03C017E001C019E06E818B819E
:100818000E94BF046E818C810E94BF046E818D810D
:0E0828000E94BF04812FDF91CF911F91089590
:10083600CF93DF93CDB7DEB72D970FB6F894DEBF13
:100846000FBECDBF83E00E94EF0A80E20E94A2099C
:10085600A12C0F2EF3E0CF2EF02D6894EE24E1F8B4
:1008660001E02FE14BE16AE1CE0101960E946509A4
:100876001F92812C0F2EFAE0CF2EF02D0F2EF9E0CD
:10088600EF2EF02D04E025E046E067E0CE01089665
:100896000E942807789485E00E94470D8091990070
:1008A6000E94570D0F9084EF91E020E931E0F901A5
:1008B6003197F1F70197D9F700E911E00F2EF4EB24
:1008C600BF2EF02D0F2EFEE1CF2ED12CF02D0F2EA8
:1008D600F0E6EF2EFAEEFF2EF02DCE0101960E94E5
:1008E6004C03082E000C990B28EE33E0F8013197E3
:1008F600F1F721503109D1F78630910551F48091F5
:100906009900833288F4809199008F5F80939900D3
:100916000BC0049749F480919900863028F08091A5
:100926009900815080939900809199000E94570DFB
:1009360061E0CE0108960E94E20768E770E0CE010A
:1009460008960E94BC0C2091990030E02550310990
:10095600B29EC001B39E900D1124B6010E94D10C27
:10096600AB01770F660B770BCE0108960E948D0AB6
:08097600C7010197F1F7B1CFB1
:10097E001F93CF93DF9300D0CDB7DEB7162FAE0106
:10098E004E5F5F4FBE016F5F7F4F0E94E70B898105
:10099E00823439F118F4813439F079C08334F1F1AD
:1009AE00843409F458C073C02A81112319F0113010
:1009BE0069F06DC03BB381E090E002C0880F991FD3
:1009CE002A95E2F7809583238BBB61C03BB381E010
:1009DE0090E002C0880F991F2A95E2F7832B8BBBFC
:1009EE0056C02A81112319F0113069F050C038B366
:1009FE0081E090E002C0880F991F2A95E2F780955A
:100A0E00832388BB44C038B381E090E002C0880FD6
:100A1E00991F2A95E2F7832B88BB39C02A811123AF
:100A2E0019F0113069F033C035B381E090E002C0A7
:100A3E00880F991F2A95E2F78095832385BB27C0DF
:100A4E0035B381E090E002C0880F991F2A95E2F736
:100A5E00832B85BB1CC02A81112319F0113069F03C
:100A6E0016C032B381E090E002C0880F991F2A951C
:100A7E00E2F78095832382BB0AC032B381E090E017
:100A8E0002C0880F991F2A95E2F7832B82BB0F9025
:0A0A9E000F90DF91CF911F91089592
:100AA8001F93CF93DF9300D0CDB7DEB7162FAE01DB
:100AB8004E5F5F4FBE016F5F7F4F0E94E70B8981DA
:100AC800823439F118F4813439F079C08334F1F182
:100AD800843409F458C073C02A81112319F01130E5
:100AE80069F06DC03AB381E090E002C0880F991FA9
:100AF8002A95E2F7809583238ABB61C03AB381E0E7
:100B080090E002C0880F991F2A95E2F7832B8ABBD1
:100B180056C02A81112319F0113069F050C037B33B
:100B280081E090E002C0880F991F2A95E2F780952E
:100B3800832387BB44C037B381E090E002C0880FAD
:100B4800991F2A95E2F7832B87BB39C02A81112385
:100B580019F0113069F033C034B381E090E002C07D
:100B6800880F991F2A95E2F78095832384BB27C0B5
:100B780034B381E090E002C0880F991F2A95E2F70C
:100B8800832B84BB1CC02A81112319F0113069F012
:100B980016C031B381E090E002C0880F991F2A95F2
:100BA800E2F78095832381BB0AC031B381E090E0EE
:100BB80002C0880F991F2A95E2F7832B81BB0F90FB
:0A0BC8000F90DF91CF911F91089567
:100BD200A2E0B0E0EFEEF5E00C946D0C3C016B018D
:100BE200FB0122813381A480B580808191819A8327
:100BF200898386809780FA012080318042805380E9
:100C0200B201A10157FE07C044275527BA01421974
:100C120053096409750937FD03C08D7F9A8389835F
:100C2200950157FC05C0898182FD02C083FF02C085
:100C320021503109CE0101967C010AE010E0C60183
:100C42000E94C30657FC03C0298122FF0AC00197F4
:100C5200F401E80FF91F57FC02C02BE209C02DE294
:100C620007C023FF06C00197F401E80FF91F20E235
:100C7200208309811A81F60140855185415051092D
:100C8200481B590BB401680F791F9501C3010E94DB
:100C9200540A9C01F3018081918190FF06C0F60104
:100CA20082819381821793070CF4C9012296E2E1B3
:040CB2000C94890C09
:100CB600CF93DF93DC01F90168387105F1F05CF43C
:100CC6006138710561F164387105A1F1603871050B
:100CD60009F051C02FC0603C710509F441C0603F66
:100CE6007105F1F1603A710509F045C0C081D18105
:100CF600CE0102969183808325C0C081D181CE0129
:100D0600029691838083452B39F04881042E000C8E
:100D1600550B660B770B1CC0488150E029C0C0817B
:100D2600D181CE01049691838083488159816A815D
:100D36007B810EC0C081D181CE01029691838083D2
:100D4600452BA1F048815981052E000C660B770BC7
:100D56004D935D936D937C93139781E090E00DC066
:100D6600C081D181CE0102969183808348815981C9
:100D760060E070E0EDCF80E090E0DF91CF910895E4
:100D8600A0E0B0E0E9ECF6E00C946F0CDC01280181
:100D96001696AD90BC901797F701808191811296B7
:100DA600ED91FC9113971896CD91DC9119972197A7
:100DB600F7FF02C0E1E0F0E0CA0DDB1D1882690111
:100DC600A1E0B0E08F01021B130B4C01F2E08F2271
:100DD6009924052C000C66087708CE018A199B0910
:100DE600CA15DB0519F1411551056105710589F033
:100DF600CB01BA01A30192010E940E0CCA01A62FD3
:100E0600B72F605D6A9341E0C41AD108A901BC01FD
:100E1600E4CF98012C0D3D1D121613064CF31C143D
:100E26001D0434F48114910419F702C080E090E0A7
:100E3600AB2B31F4F701208131812F7E3183208362
:0A0E4600CDB7DEB7E0E10C948B0C91
:100E50004F925F926F927F928F92AF92CF92EF926A
:100E60000F931F93CF93DF93CDB7DEB73C01FC0107
:100E70000083218342836383E482C5828C012C0139
:100E8000F4E04F0E511C61E0F80181918F010E9446
:100E9000540504151505B9F761E08E2D0E9454051F
:100EA00061E08C2D0E94540562E0C3010E94E207BC
:100EB0006A2D660F660F660F6062C3010E94E2072B
:100EC00008EC10E0C8010197F1F7682D660F8F85D7
:100ED0008C60682BC3010E94E207C8010197F1F7FB
:100EE00061E0C3010E94E20780EE9EE20197F1F704
:100EF00066E0C3010E94E207DF91CF911F910F913D
:100F0000EF90CF90AF908F907F906F905F904F90C9
:020F1000089542
:100F1200A2E0B0E0EFE8F7E00C94710C4C016B0139
:100F2200FB012281338164807580808191819A8363
:100F32008983A680B78037FD03C08D7F9A8389831A
:100F4200FA014081518162817381CE0101967C0157
:100F520008E010E09301C6010E94C306298124FF24
:100F620006C00197F501E80FF91F20E320832981CC
:100F720023FF06C00197F501E80FF91F20E2208345
:100F820009811A81F6014085518541505109481B5A
:100F9200590BB501680F791F9301C4010E94540ACD
:100FA2009C01F4018081918190FF06C0F60182814B
:100FB2009381821793070CF4C9012296EEE00C94F8
:020FC2008D0C94
:100FC4008F929F92AF92BF92CF92DF92EF92FF9255
:100FD4000F931F93CF93DF936C01C62F60E0FC0146
:100FE40084810E94BF04860156016894882482F893
:100FF400912CD0E07E01BE01082C02C07595679546
:101004000A94E2F76170F50181915F010E94BF04C7
:10101400FFEF8F1A9F0A88E08816910459F7C601DA
:101024000E94F90CC0E0D0E0B7010C2E02C0759507
:1010340067950A94E2F76170F80181918F010E942B
:10104400BF042196C430D10579F7C6010E94F90C7A
:10105400DF91CF911F910F91FF90EF90DF90CF9090
:0A106400BF90AF909F908F90089509
:10106E008F929F92AF92BF92CF92DF92EF92FF92AA
:10107E000F931F93CF93DF936C01C62F61E0FC019A
:10108E0084810E94BF04860156016894882482F8E8
:10109E00912CD0E07E01BE01082C02C0759567959B
:1010AE000A94E2F76170F50181915F010E94BF041D
:1010BE00FFEF8F1A9F0A88E08816910459F7C60130
:1010CE000E94F90CC0E0D0E0B7010C2E02C075955D
:1010DE0067950A94E2F76170F80181918F010E9481
:1010EE00BF042196C430D10579F7C6010E94F90CD0
:1010FE00DF91CF911F910F91FF90EF90DF90CF90E6
:0A110E00BF90AF909F908F9008955E
:101118000F931F93CF93DF93DB01109719F48FEF91
:101128009FEF3DC02D913C91119730FF25C0169639
:101138004D915C91179714962D913C9115974217F4
:10114800530778F41296ED91FC91139780831296C9
:101158002D913C9113972F5F3F4F13963C932E93FD
:10116800129716962D913C9117972F5F3F4F179620
:101178003C932E93169713C01C96ED91FC911D97E6
:10118800309769F2EB01092F182F0995892B39F649
:101198008E819F8101969F838E83812F902FDF916F
:0811A800CF911F910F910895F2
:1011B000A2E0B0E0EEEDF8E00C94710C5C016B0184
:1011C000FB012281338184809580808191819A8383
:1011D00089836680778037FD03C08D7F9A838983FA
:1011E000FA014081518162817381CE0101967C01B7
:1011F0000AE010E09401C6010E94C30609811A8129
:10120000F6014085518541505109481B590BB301E6
:10121000680F791F9401C5010E94540A9C01F501D1
:101220008081918190FF06C0F601828193818217AF
:0E12300093070CF4C9012296EEE00C948D0C8D
:10123E00CF93DF9300D0CDB7DEB7AE014E5F5F4FD9
:10124E00BE016F5F7F4F0E94E70B8981823499F058
:10125E0018F4813431F02DC08334B9F08434F9F0B0
:10126E0028C089B390E00A8002C0959587950A94AC
:10127E00E2F781701EC086B390E00A8002C0959599
:10128E0087950A94E2F7817014C083B390E00A80C8
:10129E0002C0959587950A94E2F781700AC080B3D3
:1012AE0090E00A8002C0959587950A94E2F78170C6
:0C12BE0000C00F900F90DF91CF910895B9
:1012CA00AF92CF92EF920F93CF93DF93FC01892BCA
:1012DA0069F1C22FD42F862F60834183228303832F
:1012EA00E482C582A68260E00E94540560E08D2FE8
:1012FA000E94540560E08C2F0E94540561E0802F03
:10130A000E94540561E08E2D0E94540561E08C2DE7
:10131A000E9454056A2D802F0E94BF046A2D8E2DCB
:10132A000E94BF046A2D8C2D0E94BF04DF91CF91C9
:0A133A000F91EF90CF90AF9008954F
:10134400803169F018F4882331F008958032C1F0B7
:10135400803321F1089583B78F7C83BF089503B64A
:1013640003FE29C003B606FC26C061E08BE00E94A0
:10137400540583B78F7D83BF83B7806183BF08958E
:1013840083B78874C1F061E08BE00E94540583B791
:10139400806283BF83B78F7E83BF089583B78874C9
:1013A40051F061E08BE00E94540583B7806283BFF3
:0813B40083B7806183BF089537
:1013BC00A2E8B0E0E4EEF9E00C94730C5C014A0195
:1013CC00CF57DF4F79836883C158D040C12CD12CC3
:1013DC00CF57DF4FE881F981C158D04080818823F5
:1013EC00E9F07401860120E830E0AE014F5F5F4FF9
:1013FC00BE016F577F4FC5010E9460008C0D9D1D73
:10140C008C159D054CF48FE490E0909361008093D3
:10141C0060008FEF9FEF03C06C01DACFC601CE578F
:08142C00DF4FECE00C948F0C83
:10143400A0E1B0E0E0E2FAE00C94790CFB01BA011F
:10144400AE014F5F5F4F7A0140E1D7011D924A958B
:10145400E9F742E051E05A8349839C838B83F7FF89
:1014640009C08FE490E090936100809360008FEF57
:101474009FEF14C0A9018C013197FE83ED83C7014E
:101484000E94A40C4F8158852D813E814217530739
:1014940008F49A01F801E20FF31F10826096E6E067
:0414A4000C94950C03
:1014A800A0E0B0E0EAE5FAE00C94730C6C015B0193
:1014B8007A01E901480181E08822992400FD03C0EE
:1014C8004217530750F0A701B501C6010E94500CFE
:1014D800EC16FD0610F0C70117C08E010E191F0982
:1014E8000115110541F0B60180E290E00E948C08D8
:1014F80001501109F5CF8114910429F4A701B50110
:10150800C6010E94500CCE01CDB7DEB7ECE00C94BA
:021518008F0C36
:10151A00EF92FF920F931F93CF93DF93CDB7DEB76E
:10152A002C970FB6F894DEBF0FBECDBF7C017F9318
:10153A006F935F934F938DE890E09F938F938E0103
:10154A000F5F1F4F1F930F930E940B0DB801C70126
:10155A000E94BC0C0FB6F894DEBF0FBECDBF2C960E
:10156A000FB6F894DEBF0FBECDBFDF91CF911F91AA
:08157A000F91FF90EF9008951E
:10158200DC01ED91FC91119780818A3221F080E09B
:1015920090E03AE00EC03196ED93FC93DB01ED91C1
:1015A200FC911197CF0102968D939C93808191813A
:1015B2000895ED91FC911197208120532A3068F40F
:1015C200389FA001399F500D1124CA01820F911D2D
:0C15D20031961196FC93EE93ECCF089537
:1015DE00CF93C82F80E00E94A209C13069F028F095
:1015EE00C23089F0C330B1F01BC083B78F7B83BF8D
:1015FE0083B7877F83BF14C083B7806483BF83B7ED
:10160E00877F83BF0DC083B78F7B83BF83B788600F
:10161E0083BF06C083B7806483BF83B7886083BFF0
:04162E00CF910895BB
:10163200A0E0B0E0EFE1FBE00C94750C7C01FB0153
:10164200EA01C901A280B380C480D58000811181E2
:10165200209711F4C0E8D0E0009719F4CE010E945F
:101662001D0DB7FC04C0A816B90608F4C501960101
:10167200AC01BE01C7010E94540ACDB7DEB7EAE051
:041682000C94910C27
:101686001F920F920FB60F9211242F933F934F93F1
:101696005F936F937F938F939F93AF93BF93EF93D4
:1016A600FF93E0919500F0919600309709F0099527
:1016B600FF91EF91BF91AF919F918F917F916F9124
:1016C6005F914F913F912F910F900FBE0F901F90FA
:0216D600189565
:1016D8001F920F920FB60F9211242F933F934F939F
:1016E8005F936F937F938F939F93AF93BF93EF9382
:1016F800FF93E0919300F0919400309709F00995D9
:10170800FF91EF91BF91AF919F918F917F916F91D1
:101718005F914F913F912F910F900FBE0F901F90A7
:02172800189512
:10172A001F920F920FB60F9211242F933F934F934C
:10173A005F936F937F938F939F93AF93BF93EF932F
:10174A00FF93E0919100F0919200309709F009958A
:10175A00FF91EF91BF91AF919F918F917F916F917F
:10176A005F914F913F912F910F900FBE0F901F9055
:02177A001895C0
:10177C001F920F920FB60F9211242F933F934F93FA
:10178C005F936F937F938F939F93AF93BF93EF93DD
:10179C00FF93E0919700F0919800309709F009952C
:1017AC00FF91EF91BF91AF919F918F917F916F912D
:1017BC005F914F913F912F910F900FBE0F901F9003
:0217CC0018956E
:1017CE006115710519F14115510501F1883030F49B
:1017DE0091E4FB019083FA0180830895803138F4FF
:1017EE0092E4FB0190838850FA018083089588313A
:1017FE0038F493E4FB0190838051FA0180830895BD
:0E180E0094E4FB0190838851FA0180830895D1
:10181C00A1E21A2EAA1BBB1BFD010DC0AA1FBB1FE8
:10182C00EE1FFF1FA217B307E407F50720F0A21B5A
:10183C00B30BE40BF50B661F771F881F991F1A94C7
:10184C0069F760957095809590959B01AC01BD01F1
:04185C00CF0108951B
:10186000CF93DF93EC0190E0E92FF0E0EE0FFF1F44
:10187000EE59FF4F8081811102C081810EC0A88185
:10188000B9812C91821305C091811196B983A883E7
:1018900001C09F5F9B3040F3892FDF91CF91089566
:1018A000A0E0B0E0E6E5FCE00C94770C6C01EB0105
:1018B0008A017B01E40EF51ECE15DF0541F089910A
:1018C000B601082E000C990B0E948C08F5CFC801B8
:0A18D000CDB7DEB7E8E00C94930CEE
:1018DA002F923F924F925F926F927F928F929F9236
:1018EA00AF92BF92CF92DF92EF92FF920F931F9324
:1018FA00CF93DF93CDB7DEB7CA1BDB0B0FB6F894D5
:08190A00DEBF0FBECDBF099442
:101912002A88398848885F846E847D848C849B847D
:10192200AA84B984C884DF80EE80FD800C811B818B
:10193200AA81B981CE0FD11D0FB6F894DEBF0FBEBA
:06194200CDBFED01089588
:10194800A2E0B0E0EAEAFCE00C947B0C8C015A833C
:101958004983AE014F5F5F4F0E94DE09F801208185
:1019680024FF02C08FEF9FEF2296E4E00C94970CBF
:101978000F931F93CF93DF93EB016881662341F0A8
:101988008C012196C8010E94370869916111FACF2C
:0A199800DF91CF911F910F91089588
:1019A20097FB072E16F4009407D077FD09D00E940A
:1019B200E50C07FC05D03EF4909581959F4F089564
:0819C200709561957F4F0895B7
:1019CA00AA1BBB1B51E107C0AA1FBB1FA617B7075B
:1019DA0010F0A61BB70B881F991F5A95A9F7809577
:0819EA009095BC01CD010895A8
:1019F200CF93DF93EC0161E08D810E94BF0480E40C
:101A02009FE10197F1F760E08D810E94BF04DF91B1
:041A1200CF910895D3
:101A1600A0E0B0E0E1E1FDE00C947D0CAE01475F93
:101A26005F4F6F8178858D819E810E944E0DE2E029
:041A36000C94990C67
:101A3A00FC01AF014F5F5F4F2081222311F0FA01B1
:0C1A4A00F8CF9F01281B390BC90108953B
:101A5600EC010E945C0D0E945B0DCE010E945D0DA3
:061A6600CE010E94590DA3
:101A6C009C01215631092A31310510F48F759927C3
:021A7C000895CB
:101A7E009C01215431092A31310508F48062089500
:0E1A8E0093B7987F93BF93B7892B83BF0895BA
:0E1A9C009A01AB016FEF7FE70E941A0A0895CE
:041AAA000C94000098
:041AAE008CBF08954C
:041AB2000E945E0030
:021AB600089591
:021AB80008958F
:021ABA0008958D
:101ABC0068076C094C836A9074A07AC000806888AF
:061ACC0000846C82008121
:081AD200414E474C453A20004B
:071ADA00286E756C6C2900F9
:061AE100286E696C29006B
:041AE700256C640006
:011AEB0005F5
:00000001FF
