:100000000C9430000C9418080C9441080C946A0865
:100010000C94970A0C94970A0C94970A0C94970ADC
:100020000C94970A0C94970A0C94970A0C94970ACC
:100030000C94970A0C94970A0C94970A0C94970ABC
:100040000C9493080C94970A0C94970A0C94970AB2
:100050000C94970A0060018200153C0182018B809C
:1000600011241FBECFE5D8E0DEBFCDBFE4E5F0E050
:1000700040E017C0B591A59135912591059107FDF7
:100080000CC095918591EF01F92FE82F05900D9205
:10009000A217B307D9F7FE0104C01D92A217B30738
:1000A000E1F7E036F40731F70E94A3010C940F0A40
:0400B000F894FFCFF2
:1000B400CF93DF93CDB7DEB7C05AD1090FB6F8940A
:1000C400DEBF0FBECDBF0E94BF078AE0E2EEF0E0C4
:1000D400DE01A956BF4F01900D928A95E1F7CE013A
:1000E40089569F4F0E943209BC0180E690E00E942D
:1000F4008D068AE0ECEEF0E0DE01A357BF4F0190DD
:100104000D928A95E1F7CE0183579F4F0E943209E1
:10011400BC0189E690E00E948D068AE0E6EFF0E0FB
:10012400DE01AD57BF4F01900D928A95E1F7CE01E4
:100134008D579F4F0E943209BC0182E790E00E94D4
:100144008D068AE0E0E0F1E0DE01A758BF4F0190A0
:100154000D928A95E1F7CE0187589F4F0E9432098C
:10016400BC0182E890E00E948D068AE0EAE0F1E0BA
:10017400DE01A159BF4F01900D928A95E1F7CE019E
:1001840081599F4F0E943209BC018CE890E00E9483
:100194008D068AE0E4E1F1E0DE01AB59BF4F019046
:1001A4000D928A95E1F7CE018B599F4F0E94320937
:1001B400BC0180E990E00E948D068AE0EEE1F1E066
:1001C400DE01A55ABF4F01900D928A95E1F7CE0149
:1001D400855A9F4F0E943209BC018AE990E00E942F
:1001E4008D068AE0E8E2F1E0DE01AF5ABF4F0190EC
:1001F4000D928A95E1F7CE018F5A9F4F0E943209E2
:10020400BC0183EA90E00E948D068AE0E2E3F1E01B
:10021400DE01A95BBF4F01900D928A95E1F7CE01F3
:10022400895B9F4F0E943209BC018BEA90E00E94D7
:100234008D068AE0ECE3F1E0DE01DD9601900D929B
:100244008A95E1F7CE01CD960E943209BC0181EB7B
:1002540090E00E948D068AE0E6E4F1E0DE01D396A8
:1002640001900D928A95E1F7CE01C3960E9432095E
:10027400BC0184EB90E00E948D068AE0E0E5F1E0A9
:10028400DE01999601900D928A95E1F7CE01899647
:100294000E943209BC0182EC90E00E948D068AE043
:1002A400EAE5F1E0DE015F9601900D928A95E1F7AF
:1002B400CE014F960E943209BC0188EC90E00E9466
:1002C4008D068AE0E4E6F1E0DE01559601900D9298
:1002D4008A95E1F7CE0145960E943209BC0181ED71
:1002E40090E00E948D068AE0EEE6F1E0DE011B96C6
:1002F40001900D928A95E1F7CE010B960E94320986
:10030400BC018BED90E00E948D068AE0E8E7F1E005
:10031400DE01119601900D928A95E1F7CE010196C6
:100324000E943209BC018BED90E00E948D06C056FC
:10033400DF4F0FB6F894DEBF0FBECDBFDF91CF9174
:0203440008951A
:10034600CF93DF93CDB7DEB7C555D1090FB6F89475
:10035600DEBF0FBECDBFFE01EE5BFF4F8AE0DF01C1
:10036600982F1D929A95E9F73A96DF011D928A9584
:10037600E9F7E12C00E018EF27E237E440E05CEE15
:1003860069E277E4CE0107960E949007EE24E39493
:1003960000E010E42CE937E440E058E260EA77E454
:1003A600CE0142960E9490076894EE24E1F800E0A0
:1003B60014E12DE437E440E054E360E577E4CE0150
:1003C6004D960E9490070F2EF3E0EF2EF02D00E0E1
:1003D60014EB2CE537E440E05CE960E677E4CE0117
:1003E60088960E9490076894EE24E2F800E014E5EF
:1003F6002CE637E440E05CE360E777E4CE01C396A1
:100406000E94900745E050E0BE01695F7F4FCE0134
:10041600CE960E94610A1F92812CA12C0F2EFAE023
:10042600CF2EF02D0F2EF9E0EF2EF02D04E025E073
:1004360046E067E0CE0101960E94D5040E948E0A2E
:100446000F9084EF91E020E931E0F9013197F1F75F
:100456000197D9F70E945A00789461E0CE0101967F
:100466000E94940500E21EE40F2EF0E4EF2EFCE954
:10047600FF2EF02D60E084E00E946B0260E084E0D5
:100486000E940003C8010197F1F7CE01CE960E94A3
:10049600BC0845E050E0BE016E5B7F4FCE01CE96B4
:1004A6000E945E0761E084E00E940003C801019794
:1004B600F1F725E0AE01445B5F4FBE016E5B7F4FF7
:1004C600CE0101960E943E06C7010197F1F7D2CFF1
:1004D6001F93CF93DF9300D0CDB7DEB7162FAE01B3
:1004E6004E5F5F4FBE016F5F7F4F0E94E4088981B8
:1004F600823439F118F4813439F079C08334F1F15A
:10050600843409F458C073C02A81112319F01130BC
:1005160069F06DC03BB381E090E002C0880F991F7F
:100526002A95E2F7809583238BBB61C03BB381E0BC
:1005360090E002C0880F991F2A95E2F7832B8BBBA8
:1005460056C02A81112319F0113069F050C038B312
:1005560081E090E002C0880F991F2A95E2F7809506
:10056600832388BB44C038B381E090E002C0880F83
:10057600991F2A95E2F7832B88BB39C02A8111235C
:1005860019F0113069F033C035B381E090E002C054
:10059600880F991F2A95E2F78095832385BB27C08C
:1005A60035B381E090E002C0880F991F2A95E2F7E3
:1005B600832B85BB1CC02A81112319F0113069F0E9
:1005C60016C032B381E090E002C0880F991F2A95C9
:1005D600E2F78095832382BB0AC032B381E090E0C4
:1005E60002C0880F991F2A95E2F7832B82BB0F90D2
:0A05F6000F90DF91CF911F9108953F
:100600001F93CF93DF9300D0CDB7DEB7162FAE0187
:100610004E5F5F4FBE016F5F7F4F0E94E40889818C
:10062000823439F118F4813439F079C08334F1F12E
:10063000843409F458C073C02A81112319F0113091
:1006400069F06DC03AB381E090E002C0880F991F55
:100650002A95E2F7809583238ABB61C03AB381E093
:1006600090E002C0880F991F2A95E2F7832B8ABB7E
:1006700056C02A81112319F0113069F050C037B3E8
:1006800081E090E002C0880F991F2A95E2F78095DB
:10069000832387BB44C037B381E090E002C0880F5A
:1006A000991F2A95E2F7832B87BB39C02A81112332
:1006B00019F0113069F033C034B381E090E002C02A
:1006C000880F991F2A95E2F78095832384BB27C062
:1006D00034B381E090E002C0880F991F2A95E2F7B9
:1006E000832B84BB1CC02A81112319F0113069F0BF
:1006F00016C031B381E090E002C0880F991F2A959F
:10070000E2F78095832381BB0AC031B381E090E09A
:1007100002C0880F991F2A95E2F7832B81BB0F90A7
:0A0720000F90DF91CF911F91089513
:10072A0010C00E94530A58F00E944C0A40F029F463
:10073A005F3F29F00C94730A51110C945B0A0C94D4
:10074A00940A0E947A0968F39923B1F3552391F325
:10075A00951B550BBB27AA2762177307840738F026
:10076A009F5F5F4F220F331F441FAA1FA9F335D083
:10077A000E2E3AF0E0E832D091505040E695001C37
:10078A00CAF72BD0FE2F29D0660F771F881FBB1FF1
:10079A00261737074807AB07B0E809F0BB0B802DCF
:1007AA00BF01FF2793585F4F3AF09E3F510578F0FB
:1007BA000C94730A0C945B0A5F3FE4F3983ED4F3FB
:1007CA00869577956795B795F7959F5FC9F7880FCF
:1007DA00911D9695879597F90895E1E0660F771F21
:1007EA00881FBB1F621773078407BA0720F0621BB2
:0E07FA00730B840BBA0BEE1F88F7E095089581
:100808000FC00E944C0A38F00E94530A20F095232A
:1008180011F00C94730A0C94940A11240C945B0A3A
:100828000E947A0970F3959FC1F3950F50E0551F08
:10083800629FF001729FBB27F00DB11D639FAA272D
:10084800F00DB11DAA1F649F6627B00DA11D661F7C
:10085800829F2227B00DA11D621F739FB00DA11D9D
:10086800621F839FA00D611D221F749F3327A00D57
:10087800611D231F849F600D211D822F762F6A2FF3
:1008880011249F5750409AF0F1F088234AF0EE0F58
:10089800FF1FBB1F661F771F881F91505040A9F785
:1008A8009E3F510580F00C94730A0C945B0A5F3FDD
:1008B800E4F3983ED4F3869577956795B795F795C1
:1008C800E7959F5FC1F7FE2B880F911D9695879539
:0408D80097F90895EF
:1008DC0011C00E944C0A38F00E94530A20F039F4DF
:1008EC009F3F19F426F40C94940A0EF4E095E7FB60
:1008FC000C94730AE92F0E947A0958F3BA1762070D
:10090C0073078407950720F079F4A6F50C945A0A1E
:10091C000EF4E0950B2EBA2FA02D0B01B90190010E
:10092C000C01CA01A0011124FF27591B99F0593F52
:10093C0050F4503E68F11A16F040A22F232F342F9A
:10094C004427585FF3CF469537952795A795F040E8
:10095C005395C9F77EF41F16BA0B620B730B840BFD
:10096C00BAF09150A1F0FF0FBB1F661F771F881FB5
:10097C00C2F70EC0BA0F621F731F841F48F487950D
:10098C0077956795B795F7959E3F08F0B0CF9395FF
:0E099C00880F08F09927EE0F9795879508951C
:1009AA004F925F926F927F928F92AF92CF92EF9215
:1009BA000F931F93CF93DF93CDB7DEB73C01FC01B2
:1009CA000083218342836383E482C5828C012C01E4
:1009DA00F4E04F0E511C61E0F80181918F010E94F1
:1009EA00000304151505B9F761E08E2D0E94000376
:1009FA0061E08C2D0E94000362E0C3010E9494050D
:100A0A006A2D660F660F660F6062C3010E94940525
:100A1A0008EC10E0C8010197F1F7682D660F8F8581
:100A2A008C60682BC3010E949405C8010197F1F7F5
:100A3A0061E0C3010E94940580EE9EE20197F1F7FE
:100A4A0066E0C3010E949405DF91CF911F910F9137
:100A5A00EF90CF90AF908F907F906F905F904F9074
:020A6A000895ED
:100A6C00CF92DF92EF92FF92CF93DF93EC018885C8
:100A7C000E94220A0E947E0A0E94E709BC0180E0C3
:100A8C0090E00E94210720E030EC4FE754E40E94F4
:100A9C00860A20E030E040EA50E40E948A0A9B017A
:100AAC00AC0160E070E080EA90E40E94860A20E0ED
:100ABC0030E040E85FE30E94450A9B01AC0160E036
:100ACC0078E987E397E40E94860A6B017C012C810C
:100ADC003D814E815F810E94790A18162CF081E0CD
:100AEC0090E09A87898713C0288139814A815B817C
:100AFC00C701B6010E94790A18162CF082E090E02A
:100B0C009A87898704C083E090E09A878987DF9170
:0C0B1C00CF91FF90EF90DF90CF900895F4
:100B28008F929F92AF92BF92CF92DF92EF92FF92F5
:100B38000F931F93CF93DF936C01C62F60E0FC01E6
:100B480084810E946B02860156016894882482F889
:100B5800912CD0E07E01BE01082C02C075956795E6
:100B68000A94E2F76170F50181915F010E946B02BE
:100B7800FFEF8F1A9F0A88E08816910459F7C6017B
:100B88000E94C409C0E0D0E0B7010C2E02C07595E0
:100B980067950A94E2F76170F80181918F010E94CC
:100BA8006B022196C430D10579F7C6010E94C409A9
:100BB800DF91CF911F910F91FF90EF90DF90CF9031
:0A0BC800BF90AF909F908F900895AA
:100BD2008F929F92AF92BF92CF92DF92EF92FF924B
:100BE2000F931F93CF93DF936C01C62F61E0FC013B
:100BF20084810E946B02860156016894882482F8DF
:100C0200912CD0E07E01BE01082C02C0759567953B
:100C12000A94E2F76170F50181915F010E946B0213
:100C2200FFEF8F1A9F0A88E08816910459F7C601D0
:100C32000E94C409C0E0D0E0B7010C2E02C0759535
:100C420067950A94E2F76170F80181918F010E9421
:100C52006B022196C430D10579F7C6010E94C409FE
:100C6200DF91CF911F910F91FF90EF90DF90CF9086
:0A0C7200BF90AF909F908F900895FF
:100C7C00CF92DF92EF92FF920F931F93CF93DF935C
:100C8C00CDB7DEB7E2970FB6F894DEBF0FBECDBF7F
:100C9C00222371F1062F172FFA01420F511DF12C4F
:100CAC00EE24E394D801CD90DD908D01208130E0CD
:100CBC00C216D30611F0C082FE2C3196E417F5074C
:100CCC0089F7FF20A9F0172F062F7C0161E00E9405
:100CDC00940542E350E0BE016F5F7F4F802F912F50
:100CEC000E94DA06BE016F5F7F4FC7010E949C090C
:100CFC00E2960FB6F894DEBF0FBECDBFDF91CF9159
:0E0D0C001F910F91FF90EF90DF90CF90089510
:100D1A00AF92BF92CF92DF92EF92FF920F931F93FF
:100D2A00CF93DF935C016B01FC018081882391F0F2
:100D3A003196E12CF12C01C0790197012F5F3F4FC9
:100D4A0081918111F9CFF2E0EF0EF11CE114F10467
:100D5A0021F41FC0EE24E394F12C00E010E0D0E16E
:100D6A009E2D901B8C2D8F70CD2FC81B9C1708F4BD
:100D7A00C92FB501600F711F4C2FC6010E940B09C4
:100D8A004C2F50E0C40ED51E040F151F0E151F055B
:100D9A0038F3C601DF91CF911F910F91FF90EF9029
:0A0DAA00DF90CF90BF90AF90089546
:100DB4008F929F92AF92BF92CF92DF92EF92FF9267
:100DC4000F931F93CF93DF93CDB7DEB75B017A0107
:100DD400CDB6DEB62DB73EB7241B350B0FB6F8944F
:100DE4003EBF0FBE2DBF0DB71EB70F5F1F4F0E9432
:100DF4003209A701B8010E94ED07F8010190002013
:100E0400E9F73197E01BF10B329718F4F5011082E2
:100E140004C0B801C5010E941A0A0FB6F894DEBED8
:100E24000FBECDBEDF91CF911F910F91FF90EF9038
:0E0E3400DF90CF90BF90AF909F908F90089569
:100E4200E89409C097FB3EF4909580957095619562
:100E52007F4F8F4F9F4F9923A9F0F92F96E9BB2718
:100E62009395F695879577956795B795F111F8CF94
:100E7200FAF4BB0F11F460FF1BC06F5F7F4F8F4FFF
:100E82009F4F16C0882311F096E911C0772321F0F5
:100E92009EE8872F762F05C0662371F096E8862F8D
:100EA20070E060E02AF09A95660F771F881FDAF7E4
:0A0EB200880F9695879597F908952B
:100EBC00CF92DF92EF92FF920F931F93CF93DF931A
:100ECC00FC012081318124173507DCF0141615063E
:100EDC00C4F47B016C018B01440F551FE40EF51E0D
:100EEC00C0E0D0E0F601828193818C0F9D1F0E949F
:100EFC00820AF801819391938F012B96EE15FF05D1
:100F0C0089F7DF91CF911F910F91FF90EF90DF90B8
:040F1C00CF900895D5
:100F20004F925F926F927F928F929F92AF92BF92F9
:100F3000EF920F931F93CF93DF93EC012A013B01B4
:100F40004801590120E047E06E2D80E40E94020A2A
:100F5000488259826A827B828C829D82AE82BF8265
:100F6000E886DF91CF911F910F91EF90BF90AF90E6
:0E0F70009F908F907F906F905F904F900895AC
:100F7E000F931F93CF93DF93CDB7DEB760970FB666
:100F8E00F894DEBF0FBECDBFFE013196CE01419665
:100F9E0011928E179F07E1F700E010E040E1BE01CD
:100FAE006F5F7F4FC8010E940B09005F1F4F011535
:100FBE0088E0180799F760960FB6F894DEBF0FBE5B
:0C0FCE00CDBFDF91CF911F910F910895CE
:100FDA00EF92FF920F931F93CF938B017A010E9496
:100FEA00B109C82F0E946D0A8C2F81600E94290ABC
:100FFA00C0E00E94370A2C2F30E0F801E20FF31FFD
:10100A008083882319F02E153F0528F00E943E0A96
:10101A000E94910A02C0CF5FECCFCF911F910F912E
:06102A00FF90EF90089515
:101030001F920F920FB60F9211242F933F934F934D
:101040005F936F937F938F939F93AF93BF93EF9330
:10105000FF93E0918601F0918701309709F009959F
:10106000FF91EF91BF91AF919F918F917F916F9180
:101070005F914F913F912F910F900FBE0F901F9056
:021080001895C1
:101082001F920F920FB60F9211242F933F934F93FB
:101092005F936F937F938F939F93AF93BF93EF93DE
:1010A200FF93E0918401F0918501309709F0099551
:1010B200FF91EF91BF91AF919F918F917F916F912E
:1010C2005F914F913F912F910F900FBE0F901F9004
:0210D20018956F
:1010D4001F920F920FB60F9211242F933F934F93A9
:1010E4005F936F937F938F939F93AF93BF93EF938C
:1010F400FF93E0918201F0918301309709F0099503
:10110400FF91EF91BF91AF919F918F917F916F91DB
:101114005F914F913F912F910F900FBE0F901F90B1
:0211240018951C
:101126001F920F920FB60F9211242F933F934F9356
:101136005F936F937F938F939F93AF93BF93EF9339
:10114600FF93E0918801F0918901309709F00995A4
:10115600FF91EF91BF91AF919F918F917F916F9189
:101166005F914F913F912F910F900FBE0F901F905F
:021176001895CA
:10117800EF92FF920F931F93CF93DF93FC0120818F
:10118800318112161306ACF47C0100E010E0C0E0D7
:10119800D0E0F70182819381800F911F0E9436056C
:1011A8002196055F1F4FF70180819181C817D907E4
:1011B80084F3DF91CF911F910F91FF90EF900895E5
:1011C8006115710519F14115510501F1883030F4A7
:1011D80091E4FB019083FA0180830895803138F40B
:1011E80092E4FB0190838850FA0180830895883146
:1011F80038F493E4FB0190838051FA0180830895C9
:0E12080094E4FB0190838851FA0180830895DD
:10121600EF92FF920F931F93CF93DF937B01142FCF
:101226000E94B109112371F0E7011150012F10E05E
:101236000F5F1F4F0E0D1F1D89910E94300AC017A8
:10124600D107D1F70E94910A80E49CE90197F1F752
:0E125600DF91CF911F910F91FF90EF900895BF
:10126400FC013A9621E030E060E070E05291429156
:1012740041505109429FD001439FB00D529FB00D80
:1012840011246A0F7B1FA901440F551F240F351F1A
:10129400E817F90759F722E3269FC001279F900D0D
:0812A40011248E7F977008955C
:1012AC00990F0008550FAA0BE0E8FEEF161617066B
:1012BC00E807F907C0F012161306E407F50798F0D3
:1012CC00621B730B840B950B39F40A2661F0232BEC
:1012DC00242B252B21F408950A2609F4A140A69568
:0812EC008FEF811D811D0895A3
:1012F40057FD9058440F551F59F05F3F71F04795C3
:10130400880F97FB991F61F09F3F79F087950895A7
:10131400121613061406551FF2CF4695F1DF08C0C6
:10132400161617061806991FF1CF869571056105E3
:04133400089408957C
:101338000F931F93CF93DF93EB016881662341F0EE
:101348008C012196C8010E94E90569916111FACFC3
:0A135800DF91CF911F910F910895CE
:10136200CF93DF93D82F9770C92FCC0FC06A0E94FA
:101372006D0A8C2F0E94290A8D2F0E94300A8C2F11
:06138200DF91CF910895F8
:10138800CF93DF93EC0161E08D810E946B0280E4D2
:101398009FE10197F1F760E08D810E946B02DF9178
:0413A800CF91089544
:1013AC00092E0394000C11F4882352F0BB0F40F467
:1013BC00BF2B11F460FF04C06F5F7F4F8F4F9F4FA7
:0213CC00089582
:1013CE0080918A01882339F085B190E0880F991FAA
:0C13DE00880F991F089584B195B10895FF
:1013EA0017B897B1892B87B9442319F040938A011A
:0A13FA003D9A87B1682B67B908958A
:10140400CF93C42F16B8422F0E94F50986B1C82B7A
:0A141400C6B9379A3398CF910895B6
:10141E00EC010E949C0A0E949B0ACE010E949D0A2A
:06142E00CE010E94990AA4
:10143400FC01DB012D91BD0121932111FACF089507
:0E14440097B1907E97B997B1892B87B908951B
:0E14520083B984E886BF06B607FEFDCF089575
:0E14600083B984E886BF06B607FEFDCF089567
:0E146E0084EC86BF06B607FEFDCF83B108955D
:0E147C0084E886BF06B607FEFDCF83B1089553
:0E148A005058BB27AA270E946E040C94D60966
:0E14980000240A941616170618060906089571
:0E14A60000240A941216130614060506089573
:0E14B400E894BB2766277727CB0197F90895A8
:0C14C200FC015183408373836283089512
:0C14CE0088E480B911B884E086BF08955E
:0C14DA0084EA86BF06B607FEFDCF089529
:0C14E60097F99F6780E870E060E00895CF
:0A14F2000E94560908F481E00895F5
:0814FC00369A3699FECF0895DF
:08150400FC0181859285089528
:08150C000E9495030C94D6091E
:081514000E9404040C94D609A6
:06151C000E94670A089519
:0615220084E986BF089574
:061528009FEF80EC089526
:04152E000C94000019
:041532000E945800BB
:02153600089516
:02153800089514
:02153A00089512
:10153C00417765736F6D65210049204C6F7665208E
:10154C00550049207265616C6C79206C6F76652052
:10155C00550049207761746368205500596F7500F8
:10156C00476F6F64206A6F622100517565737469EF
:10157C006F6E00492061677265650051756F746507
:10158C00004E6F004D616465206D65206C61756760
:10159C00680048656C6C6F004E6F742073757265D3
:1015AC00004920616D2066696E65005468616E6B40
:1015BC00730003000100030003000100010001009F
:1015CC000300030001000100010001000300010001
:1015DC0003000100010003000300030001000300ED
:1015EC0003000300010003000300030003000300D9
:1015FC0002000300030003000300030003000300C8
:10160C0003000300020002000300030002000200BA
:10161C0002000300030002000200030003000300A9
:10162C0001000100010001000100010003000300A2
:10163C000300010002000200010001000100030090
:10164C000100010001000100020001000100010085
:02165C0001008B
:00000001FF
