:100000000C9430000C94F2070C941B080C944408D8
:100010000C94490A0C94490A0C94490A0C94490A14
:100020000C94490A0C94490A0C94490A0C94490A04
:100030000C94490A0C94490A0C94490A0C94490AF4
:100040000C946D080C94490A0C94490A0C94490AC2
:100050000C94490A006000E000149600E000E9807A
:1000600011241FBECFE5D8E0DEBFCDBFE4E5F0E050
:1000700040E017C0B591A59135912591059107FDF7
:100080000CC095918591EF01F92FE82F05900D9205
:10009000A217B307D9F7FE0104C01D92A217B30738
:1000A000E1F7E036F40731F70E9416020C9458008D
:0400B000F894FFCFF2
:1000B400417765736F6D65210049204C6F7665202B
:1000C400550049207265616C6C79206C6F766520EF
:1000D400550049207761746368205500596F750095
:1000E400476F6F64206A6F6221005175657374698C
:1000F4006F6E00492061677265650051756F7465A4
:10010400004E6F004D616465206D65206C617567FC
:10011400680048656C6C6F004E6F7420737572656F
:10012400004920616D2066696E65005468616E6BDC
:100134007300427965000043616C6962726174699D
:100144006E672E2E2E004F70656E2048616E6420FF
:10015400576964656C7900436C6F73652048616E00
:1001640064204669726D6C790046696E69736865CE
:0E017400642063616C6962726174696F6E0071
:10018200CF93DF93CDB7DEB7C058D1090FB6F8943D
:10019200DEBF0FBECDBF88E0E0E6F0E0DE01A7588B
:1001A200BF4F01900D928A95E1F7CE0187589F4F7C
:1001B2000E94E508AC0164EB70E080E00E94B004AC
:1001C20088E0E8E6F0E0DE01AF58BF4F01900D9203
:1001D2008A95E1F7CE018F589F4F0E94E508AC0146
:1001E2006DEB70E080E00E94B00488E0E0E7F0E0B0
:1001F200DE01A759BF4F01900D928A95E1F7CE011A
:1002020087599F4F0E94E508AC0166EC70E080E0E0
:100212000E94B00488E0E8E7F0E0DE01AF59BF4F8A
:1002220001900D928A95E1F7CE018F599F4F0E945E
:10023200E508AC0166ED70E080E00E94B00488E061
:10024200E0E8F0E0DE01A75ABF4F01900D928A95D7
:10025200E1F7CE01875A9F4F0E94E508AC0160EE9C
:1002620070E080E00E94B00488E0E8E8F0E0DE019F
:10027200AF5ABF4F01900D928A95E1F7CE018F5A86
:100282009F4F0E94E508AC0164EE70E080E00E949E
:10029200B00488E0E0E9F0E0DE01A75BBF4F019027
:1002A2000D928A95E1F7CE01875B9F4F0E94E50888
:1002B200AC016EEE70E080E00E94B00488E0E8E9F4
:1002C200F0E0DE01AF5BBF4F01900D928A95E1F73E
:1002D200CE018F5B9F4F0E94E508AC0167EF70E093
:1002E20080E00E94B00488E0E0EAF0E0DE01D99606
:1002F20001900D928A95E1F7CE01C9960E94E50818
:10030200AC016FEF70E080E00E94B00488E0E8EAA0
:10031200F0E0DE01D19601900D928A95E1F7CE01CF
:10032200C1960E94E508AC0165E071E080E00E94A0
:10033200B00488E0E0EBF0E0DE01999601900D92C6
:100342008A95E1F7CE0189960E94E508AC0168E042
:1003520071E080E00E94B00488E0E8EBF0E0DE01AA
:10036200919601900D928A95E1F7CE0181960E94B5
:10037200E508AC0166E171E080E00E94B00488E02B
:10038200E0ECF0E0DE01599601900D928A95E1F7DA
:10039200CE0149960E94E508AC016CE171E080E073
:1003A2000E94B00488E0E8ECF0E0DE015196019092
:1003B2000D928A95E1F7CE0141960E94E508AC01C3
:1003C20065E271E080E00E94B00488E0E0EDF0E0D8
:1003D200DE01199601900D928A95E1F7CE010996F8
:1003E2000E94E508AC016FE271E080E00E94B00477
:1003F20088E0E8EDF0E0DE01119601900D928A9519
:10040200E1F7CE0101960E94E508AC0166E371E0D6
:1004120080E00E94B004C058DF4F0FB6F894DEBFF0
:0A0422000FBECDBFDF91CF9108950A
:10042C00CF93DF93CDB7DEB7CA54D1090FB6F8948A
:10043C00DEBF0FBECDBF88E0FE01B796DF01982F5F
:10044C001D929A95E9F73896DF011D928A95E9F786
:10045C0028961FAE289781E029968FAF299782E0C6
:10046C002A968FAF2A9783E02B968FAF2B9720E09D
:10047C0047E060E080E40E94EB091F92812CA12CE4
:10048C000F2EFAE0CF2EF02D0F2EF9E0EF2EF02DDF
:10049C0004E025E046E067E0CE0101960E94A80545
:1004AC0080E49CE90197F1F704E010E09E01215CE7
:1004BC003F4FAE01495C5F4FBE01695B7F4FCE0180
:1004CC0001960E94D1028E01095B1F4FFE01F79627
:1004DC007F01CE01CF964C016E0197E0C90ED11C65
:1004EC0054010F90F80121918F01D7014D915D912D
:1004FC007D01F401619171914F01C6010E94520975
:10050C00F7E0CF0ED11CEA14FB0461F744E050E095
:10051C00BE01695F7F4FCE0183960E942D0A0E9417
:10052C00430A84EF91E020E931E0F9013197F1F7CA
:10053C000197D9F70E94C100BE016F5F7F4F80E821
:10054C0041E00E943D057E0183E2E80EF11C37017B
:10055C0090E8892E00E911E0C7010E94960824E07A
:10056C0030E0AE01495D5F4F882DB3010E946207F8
:10057C0024E0AE01415D5F4FBE01695D7F4FCE014E
:10058C0001960E947E0688EC90E0F8013197F1F715
:06059C000197D9F7E1CF41
:1005A2005F926F927F928F929F92AF92BF92CF9201
:1005B200DF92EF92FF920F931F93CF93DF936B0122
:1005C200A42EB52E922E532E3C0120E8822E41E01D
:1005D200882DB3010E943D052BE331E040E0882DD8
:1005E200B3010E94C90784EF91E020E931E0F901EB
:1005F2003197F1F70197D9F741E0882DB3010E94B5
:100602003D052AE431E040E0882DB3010E94C9078C
:1006120088E893E120E931E0F9013197F1F7019798
:10062200D9F710161106C4F4E601EA2CFB2C560188
:10063200A00EB11E89910E940A0A0E943F0A0E94DE
:10064200D0090E943F0A0E94D009F7018193919339
:100652007F01CA15DB0571F741E0882DB3010E94C5
:100662003D052BE531E040E0882DB3010E94C9072A
:1006720088E893E120E931E0F9013197F1F7019738
:10068200D9F710161106BCF47601C92DD52D0C0D23
:100692001D1DF70181917F010E940A0A0E943F0AF3
:1006A2000E94D0090E943F0A0E94D009899399931F
:1006B2000E151F0571F741E0882DB3010E943D051B
:1006C2002DE631E040E0882DB3010E94C90784EC99
:1006D20099E020E931E0F9013197F1F70197D9F773
:1006E20041E0882DB3010E943D05DF91CF911F911A
:1006F2000F91FF90EF90DF90CF90BF90AF909F90BF
:0A0702008F907F906F905F90089534
:10070C001F93CF93DF9300D0CDB7DEB7162FAE017A
:10071C004E5F5F4FBE016F5F7F4F0E94BE088981A5
:10072C00823439F118F4813439F079C08334F1F121
:10073C00843409F458C073C02A81112319F0113084
:10074C0069F06DC03BB381E090E002C0880F991F47
:10075C002A95E2F7809583238BBB61C03BB381E084
:10076C0090E002C0880F991F2A95E2F7832B8BBB70
:10077C0056C02A81112319F0113069F050C038B3DA
:10078C0081E090E002C0880F991F2A95E2F78095CE
:10079C00832388BB44C038B381E090E002C0880F4B
:1007AC00991F2A95E2F7832B88BB39C02A81112324
:1007BC0019F0113069F033C035B381E090E002C01C
:1007CC00880F991F2A95E2F78095832385BB27C054
:1007DC0035B381E090E002C0880F991F2A95E2F7AB
:1007EC00832B85BB1CC02A81112319F0113069F0B1
:1007FC0016C032B381E090E002C0880F991F2A9591
:10080C00E2F78095832382BB0AC032B381E090E08B
:10081C0002C0880F991F2A95E2F7832B82BB0F9099
:0A082C000F90DF91CF911F91089506
:100836001F93CF93DF9300D0CDB7DEB7162FAE014F
:100846004E5F5F4FBE016F5F7F4F0E94BE0889817A
:10085600823439F118F4813439F079C08334F1F1F6
:10086600843409F458C073C02A81112319F0113059
:1008760069F06DC03AB381E090E002C0880F991F1D
:100886002A95E2F7809583238ABB61C03AB381E05B
:1008960090E002C0880F991F2A95E2F7832B8ABB46
:1008A60056C02A81112319F0113069F050C037B3B0
:1008B60081E090E002C0880F991F2A95E2F78095A3
:1008C600832387BB44C037B381E090E002C0880F22
:1008D600991F2A95E2F7832B87BB39C02A811123FA
:1008E60019F0113069F033C034B381E090E002C0F2
:1008F600880F991F2A95E2F78095832384BB27C02A
:1009060034B381E090E002C0880F991F2A95E2F780
:10091600832B84BB1CC02A81112319F0113069F086
:1009260016C031B381E090E002C0880F991F2A9566
:10093600E2F78095832381BB0AC031B381E090E062
:1009460002C0880F991F2A95E2F7832B81BB0F906F
:0A0956000F90DF91CF911F910895DB
:100960006F927F928F92AF92BF92CF92DF92EF926F
:10097000FF920F931F93CF93DF93CDB7DEB76097AE
:100980000FB6F894DEBF0FBECDBF3B01882E6A01C3
:10099000FB01849187FC80818823F9F0A82DC30195
:1009A0000196A11DA12CB12C01C05B01B5016F5FA7
:1009B0007F4F0196A11D9C014A2F21503109410909
:1009C000F901249147FD20812111EFCF82E0A80E8B
:1009D000B11CA114B10421F43BC0AA24A394B12CEE
:1009E000E12CF12C00E19A2D9E198C2D8F70102F87
:1009F000181B911708F4192F1123D1F0482D9301DA
:100A00002E0D3F1D411DF7FC4A95DE0111968FEF1B
:100A1000810F90E001968A0F9B1FF901549147FDC9
:100A200050815D932F5F3F4F4F4FA817B907A9F72C
:100A3000412FBE016F5F7F4FC6010E940C09812FBD
:100A400090E0C80ED91EE80EF91EEA14FB0458F215
:100A5000C60160960FB6F894DEBF0FBECDBFDF9122
:100A6000CF911F910F91FF90EF90DF90CF90BF90AB
:0A0A7000AF908F907F906F90089573
:100A7A002F923F924F926F927F928F92AF92BF9234
:100A8A00CF92DF92EF920F931F93CF93DF933B01A5
:100A9A00882E042FA82FCB010496A11D60E0FC012B
:100AAA008491A7FD80810E948603E82C63011301CB
:100ABA00482CC4E0D0E010E05801B8010C2E02C066
:100ACA00759567950A94E2F76170F101849147FC84
:100ADA0080810E94860321968FEF281A380A480AD5
:100AEA00C830D10549F7882DB3010E943309C0E007
:100AFA00D0E0B5010C2E02C0759567950A94E2F70D
:100B0A006170F6018491E7FC80810E948603219638
:100B1A008FEFC81AD80AE80AC430D10551F7882DD0
:100B2A00B3010E943309DF91CF911F910F91EF908A
:100B3A00DF90CF90BF90AF908F907F906F904F9043
:060B4A003F902F9008957A
:100B50004F925F926F927F928F92AF92CF92DF927D
:100B6000EF920F931F93CF93DF93CDB7DEB73C0186
:100B7000FC010083218342836383E482C5828C016C
:100B80002C01F4E04F0E511C61E0F80181918F01BE
:100B90000E941B0404151505B9F761E08E2D0E9413
:100BA0001B0461E08C2D0E941B046301F0E8EF2E12
:100BB00042E08E2DB6010E943D054A2D440F440FA0
:100BC000440F40628E2DB6010E943D0508EC10E0F6
:100BD000C8010197F1F7482D440F88898C60482B94
:100BE0008E2DB6010E943D05C8010197F1F741E045
:100BF0008E2DB6010E943D0580EE9EE20197F1F731
:100C000046E08E2DB6010E943D05DF91CF911F91E8
:100C10000F91EF90DF90CF90AF908F907F906F907B
:060C20005F904F90089563
:100C26002F923F924F926F927F928F92AF92BF9286
:100C3600CF92DF92EF920F931F93CF93DF933B01F7
:100C4600882E042FA82FCB010496A11D61E0FC017C
:100C56008491A7FD80810E948603E82C630113011D
:100C6600482CC4E0D0E010E05801F101849147FC23
:100C760080819FEF291A390A490AB8010C2E02C051
:100C8600759567950A94E2F761700E94860321962E
:100C9600C830D10549F7882DB3010E943309C0E059
:100CA600D0E0F6018491E7FC80819FEFC91AD90A4A
:100CB600E90AB5010C2E02C0759567950A94E2F70C
:100CC60061700E9486032196C430D10551F7882DA4
:100CD600B3010E943309DF91CF911F910F91EF90DD
:100CE600DF90CF90BF90AF908F907F906F904F9096
:060CF6003F902F900895CD
:100CFC00AF92BF92CF92DF92EF92FF920F931F931E
:100D0C00CF93DF93CDB7DEB7E2970FB6F894DEBF83
:100D1C000FBECDBF2223B9F1062F172FFA0130E0F9
:100D2C00220F331F420F531FF12CEE24E394D801F2
:100D3C00CD90DD908D0120813181C216D30619F042
:100D4C00D182C082FE2C3296E417F50781F7FF2082
:100D5C00D1F0172F062F6C01B0E8EB2E41E08E2D51
:100D6C00B6010E943D0542E350E0CE0101965C01C4
:100D7C00BC01802F912F0E94DA06950140E88E2D40
:100D8C00B6010E94C907E2960FB6F894DEBF0FBEFB
:100D9C00CDBFDF91CF911F910F91FF90EF90DF901E
:080DAC00CF90BF90AF900895B5
:100DB400AF92BF92CF92DF92EF92FF920F931F9365
:100DC400CF93DF93CDB7DEB75B017A010DB71EB7C2
:100DD4002DB73EB7241B350B0FB6F8943EBF0FBE9C
:100DE4002DBF2F5F3F4F69010E94E508A701B6019F
:100DF4000E949E0730E8E32E8E2DB6010E948909D9
:100E0400029748F421E030E04AE351E060E0C50194
:100E14000E94700905C06E2DA601C5010E94C1097A
:100E24000FB6F8941EBF0FBE0DBFDF91CF911F9177
:100E34000F91FF90EF90DF90CF90BF90AF90089507
:100E44000F931F93CF93DF93EC018C810E940A0AC6
:100E54008AE68A95F1F70E943F0A0E94D0090E940F
:100E64003F0A0E94D0098C01E881F9814A815B81A3
:100E74009F01241B350BADECBCEC0E94B209969586
:100E8400879596958795480F591F4017510728F065
:100E940081E090E09E838D830EC0E81BF90B0E1752
:100EA4001F0728F083E090E09E838D8304C082E0D6
:100EB40090E09E838D83DF91CF911F910F910895D0
:100EC4006F927F928F92EF92FF920F931F93CF9323
:100ED400DF933B01882E7A01FB01582D0E94020A00
:100EE40062177307FCF012161306E4F48701220F4D
:100EF400331FE20EF31EC0E0D0E082E0680E711CE6
:100F0400811CF301582D0E94020A6C0F7D1F80E89A
:100F14000E94F809F801819391938F012796EE15A9
:100F2400FF0579F7DF91CF911F910F91FF90EF901B
:080F34008F907F906F900895EB
:100F3C00EF92FF920F931F93CF938B017A010E9434
:100F4C009F09C82F0E94390A8C2F81600E94110AB8
:100F5C00C0E00E941F0A2C2F30E0F801E20FF31FB3
:100F6C008083882319F02E153F0528F00E94260A4D
:100F7C000E94460A02C0CF5FECCFCF911F910F9118
:060F8C00FF90EF900895B4
:100F92006F927F928F92CF92DF92EF923B01882ED7
:100FA2006901E42EF9014491E7FC4081442391F068
:100FB2002FEFC21AD20AE20A882DB3010E94130649
:100FC200F6014491E7FC40818FEFC81AD80AE80A7B
:100FD2004111F2CFEF90DF90CF908F907F906F9082
:020FE200089570
:100FE4001F920F920FB60F9211242F933F934F939A
:100FF4005F936F937F938F939F93AF93BF93EF937D
:10100400FF93E091E400F091E500309709F0099531
:10101400FF91EF91BF91AF919F918F917F916F91CC
:101024005F914F913F912F910F900FBE0F901F90A2
:0210340018950D
:101036001F920F920FB60F9211242F933F934F9347
:101046005F936F937F938F939F93AF93BF93EF932A
:10105600FF93E091E200F091E300309709F00995E3
:10106600FF91EF91BF91AF919F918F917F916F917A
:101076005F914F913F912F910F900FBE0F901F9050
:021086001895BB
:101088001F920F920FB60F9211242F933F934F93F5
:101098005F936F937F938F939F93AF93BF93EF93D8
:1010A800FF93E091E000F091E100309709F0099595
:1010B800FF91EF91BF91AF919F918F917F916F9128
:1010C8005F914F913F912F910F900FBE0F901F90FE
:0210D800189569
:1010DA001F920F920FB60F9211242F933F934F93A3
:1010EA005F936F937F938F939F93AF93BF93EF9386
:1010FA00FF93E091E600F091E700309709F0099537
:10110A00FF91EF91BF91AF919F918F917F916F91D5
:10111A005F914F913F912F910F900FBE0F901F90AB
:02112A00189516
:10112C00EF92FF920F931F93CF93DF93FC012081DB
:10113C00318112161306ACF47C0100E010E0C0E023
:10114C00D0E0F70182819381800F911F0E942207CA
:10115C002196095F1F4FF70180819181C817D9072C
:10116C0084F3DF91CF911F910F91FF90EF90089531
:10117C006115710519F14115510501F1883030F4F3
:10118C0091E4FB019083FA0180830895803138F457
:10119C0092E4FB0190838850FA0180830895883192
:1011AC0038F493E4FB0190838051FA018083089515
:0E11BC0094E4FB0190838851FA01808308952A
:1011CA00FC01389621E030E060E070E052914291F3
:1011DA0041505109429FD001439FB00D529FB00D1B
:1011EA0011246A0F7B1FA901440F551F240F351FB5
:1011FA00E817F90759F7CB01880F991F860F971F30
:0E120A00880F991F880F991F880F991F08954C
:10121800EF92FF920F931F93CF93DF937B01142FCD
:101228000E949F09112371F0E7011150012F10E06E
:101238000F5F1F4F0E0D1F1D89910E94180AC017BE
:10124800D107D1F70E94460A80E49CE90197F1F79B
:0E125800DF91CF911F910F91FF90EF900895BD
:10126600CF92DF92EF926B01E82E95E0C90ED11C6A
:10127600E11C61E0F6018491E7FC80810E9486030F
:1012860080E49FE10197F1F760E0F6018491E7FCC5
:0E12960080810E948603EF90DF90CF90089534
:1012A400CF92DF92EF92FF921F93CF93DF93EC01E3
:1012B4006B017A01122F20E047E0612F80E40E9445
:1012C400EB09D982C882FB82EA821C83DF91CF9129
:0C12D4001F91FF90EF90DF90CF900895E5
:1012E000CF92DF92EF92DC016A01E62E280F391FC0
:1012F000A217B30751F0F6014491E7FC40814D93EA
:101300004FEFC41AD40AE40AF3CFEF90DF90CF90E6
:0213100008953E
:10131200CF92DF92EF926B01E82EA82FCB01FC0156
:101322002491A7FD2081222319F00196A11DF7CF58
:0C1332008C199D09EF90DF90CF9008957A
:10133E00CF93DF93D82F9770C92FCC0FC06A0E941E
:10134E00390A8C2F0E94110A8D2F0E94180A8C2F99
:06135E00DF91CF9108951C
:10136400A29FB001B39FC001A39F700D811D1124E2
:0E137400911DB29F700D811D1124911D0895D1
:101382009A01462FDC01F901549147FD50815D938A
:0E139200552321F02F5F3F4F4F4FF5CF0895A9
:1013A0008091E800882339F085B190E0880F991F7B
:0C13B000880F991F089584B195B108952D
:1013BC0017B897B1892B87B9442319F04093E800EB
:0A13CC003D9A87B1682B67B90895B8
:1013D600CF93C42F16B8422F0E94DE0986B1C82BC0
:0A13E600C6B9379A3398CF910895E5
:1013F000A82FCB010596A11DFC015A2F0E94020ABD
:04140000CB0108957F
:1014040057FD03C065917591089561917191089597
:0E14140097B1907E97B997B1892B87B908954B
:0E14220083B984E886BF06B607FEFDCF0895A5
:0E14300083B984E886BF06B607FEFDCF089597
:0E143E0084EC86BF06B607FEFDCF83B108958D
:0E144C0084E886BF06B607FEFDCF83B1089583
:0C145A00FC01518340837383628308957A
:0C14660088E480B911B884E086BF0895C6
:0C14720084EA86BF06B607FEFDCF089591
:08147E00369A3699FECF08955D
:061486000E94330A0895E4
:06148C0084E986BF08950B
:041492000C940000B6
:101496000300030003000100010001000300030034
:1014A6000100010001000300030001000100030028
:1014B6000300010003000300010003000300030012
:1014C60003000200030003000300030003000300FF
:1014D60003000200020003000200020002000300F3
:1014E60002000200030003000100010001000100E8
:1014F60001000300010003000200020001000100D8
:1015060003000100010001000200010001000100CA
:00000001FF
