:100000000C9430000C944F0A0C94780A0C94A10ABA
:100010000C94010D0C94010D0C94010D0C94010D28
:100020000C94010D0C94010D0C94010D0C94010D18
:100030000C94010D0C94010D0C94010D0C94010D08
:100040000C94CA0A0C94010D0C94010D0C94010D32
:100050000C94010D006000E0001A0600E000E98049
:1000600011241FBECFE5D8E0DEBFCDBFE4E5F0E050
:1000700040E017C0B591A59135912591059107FDF7
:100080000CC095918591EF01F92FE82F05900D9205
:10009000A217B307D9F7FE0104C01D92A217B30738
:1000A000E1F7E036F40731F70E9421030C94580081
:0400B000F894FFCFF2
:1000B400417765736F6D65210049204C6F7665202B
:1000C400550049207265616C6C79206C6F766520EF
:1000D400550049207761746368205500596F750095
:1000E400476F6F64206A6F6221005175657374698C
:1000F4006F6E00492061677265650051756F7465A4
:10010400004E6F004D616465206D65206C617567FC
:10011400680048656C6C6F004E6F7420737572656F
:10012400004920616D2066696E65005468616E6BDC
:100134007300427965000043616C6962726174699D
:100144006E672E2E2E004F70656E2048616E6420FF
:10015400576964656C7900436C6F73652048616E00
:1001640064204669726D6C790046696E69736865CE
:0E017400642063616C6962726174696F6E0071
:10018200CF93DF93CDB7DEB7C058D1090FB6F8943D
:10019200DEBF0FBECDBF0E94CD0988E0E0E6F0E0F1
:1001A200DE01A758BF4F01900D928A95E1F7CE016B
:1001B20087589F4F0E94690BAC0164EB70E080E0AE
:1001C2000E94110588E0E8E6F0E0DE01AF58BF4F7B
:1001D20001900D928A95E1F7CE018F589F4F0E94B0
:1001E200690BAC016DEB70E080E00E94110588E0C4
:1001F200E0E7F0E0DE01A759BF4F01900D928A952A
:10020200E1F7CE0187599F4F0E94690BAC0166EC62
:1002120070E080E00E94110588E0E8E7F0E0DE018E
:10022200AF59BF4F01900D928A95E1F7CE018F59D8
:100232009F4F0E94690BAC0166ED70E080E00E9466
:10024200110588E0E0E8F0E0DE01A75ABF4F019017
:100252000D928A95E1F7CE01875A9F4F0E94690B52
:10026200AC0160EE70E080E00E94110588E0E8E8F1
:10027200F0E0DE01AF5ABF4F01900D928A95E1F78F
:10028200CE018F5A9F4F0E94690BAC0164EE70E061
:1002920080E00E94110588E0E0E9F0E0DE01A75B62
:1002A200BF4F01900D928A95E1F7CE01875B9F4F78
:1002B2000E94690BAC016EEE70E080E00E941105B5
:1002C20088E0E8E9F0E0DE01AF5BBF4F01900D92FC
:1002D2008A95E1F7CE018F5B9F4F0E94690BAC01BB
:1002E20067EF70E080E00E94110588E0E0EAF0E04C
:1002F200DE01D99601900D928A95E1F7CE01C99659
:100302000E94690BAC016FEF70E080E00E94110562
:1003120088E0E8EAF0E0DE01D19601900D928A953C
:10032200E1F7CE01C1960E94690BAC0165E071E074
:1003320080E00E94110588E0E0EBF0E0DE01999692
:1003420001900D928A95E1F7CE0189960E94690B80
:10035200AC0168E071E080E00E94110588E0E8EB02
:10036200F0E0DE01919601900D928A95E1F7CE01BF
:1003720081960E94690BAC0166E171E080E00E9407
:10038200110588E0E0ECF0E0DE01599601900D9253
:100392008A95E1F7CE0149960E94690BAC016CE1A6
:1003A20071E080E00E94110588E0E8ECF0E0DE01F7
:1003B200519601900D928A95E1F7CE0141960E94E5
:1003C200690BAC0165E271E080E00E94110588E0F2
:1003D200E0EDF0E0DE01199601900D928A95E1F7C9
:1003E200CE0109960E94690BAC016FE271E080E0D8
:1003F2000E94110588E0E8EDF0E0DE01119601901F
:100402000D928A95E1F7CE0101960E94690BAC012B
:1004120066E371E080E00E941105C058DF4F0FB61D
:0E042200F894DEBF0FBECDBFDF91CF910895DD
:100430005F926F927F928F929F92AF92BF92CF9274
:10044000DF92EF92FF920F931F93CF93DF936B0195
:10045000A42EB52E922E532E3C0120E8822E41E090
:10046000882DB3010E940D062BE331E040E0882D7A
:10047000B3010E94260A80E29EE420E931E0F901FE
:100480003197F1F70197D9F741E0882DB3010E9428
:100490000D062AE431E040E0882DB3010E94260ACF
:1004A00080E29EE420E931E0F9013197F1F701970C
:1004B000D9F7101611060CF041C0E601EA2CFB2C0E
:1004C0005601A00EB11E89910E94900C0E94EC0C66
:1004D0000E94560C0E94EC0C0E94560CBC0180E05D
:1004E00090E00E94250920E030EC4FE754E40E94A0
:1004F000F00C20E030E040EA50E40E94F40C9B0154
:10050000AC0160E070E080EA90E40E94F00C20E032
:1005100030E040E85FE30E94B30C9B01AC0160E077
:1005200078E987E397E40E94F00CF70161937193F7
:10053000819391937F01CA15DB0529F641E0882D4F
:10054000B3010E940D062BE531E040E0882DB30198
:100550000E94260A80E29EE420E931E0F901319709
:10056000F1F70197D9F7101611060CF040C0E6011B
:10057000E92CF52C0C0D1D1D89910E94900C0E94F8
:10058000EC0C0E94560C0E94EC0C0E94560CBC0114
:1005900080E090E00E94250920E030EC4FE754E431
:1005A0000E94F00C20E030E040EA50E40E94F40C9D
:1005B0009B01AC0160E070E080EA90E40E94F00CE6
:1005C00020E030E040E85FE30E94B30C9B01AC0107
:1005D00060E078E987E397E40E94F00CF70161930B
:1005E0007193819391937F010C171D0729F641E0C8
:1005F000882DB3010E940D062DE631E040E0882DE4
:10060000B3010E94260A80E29EE420E931E0F9016C
:100610003197F1F70197D9F741E0882DB3010E9496
:100620000D06DF91CF911F910F91FF90EF90DF901A
:10063000CF90BF90AF909F908F907F906F905F9082
:0206400008951B
:10064200CF93DF93CDB7DEB7CA56D1090FB6F89470
:10065200DEBF0FBECDBF88E0FE01F796DF01982F07
:100662001D929A95E9F73896DF011D928A95E9F76E
:10067200A8961FAEA89781E0A9968FAFA99782E0AE
:10068200AA968FAFAA9783E0AB968FAFAB9720E085
:1006920047E060E080E40E94710C1F92812CA12C43
:1006A2000F2EFAE0CF2EF02D0F2EF9E0EF2EF02DC7
:1006B20004E025E046E067E0CE0101960E9478065C
:1006C20080E49CE90197F1F704E010E09E01295AC9
:1006D2003F4FAE01495B5F4FBE0169597F4FCE016B
:1006E20001960E941802FE01E959FF4F2F01CE0127
:1006F200895B9F4F4C01DE01A95ABF4F3D015E014C
:10070200B7E0AB0EB11C6C01E0E1CE0ED11C0F9034
:10071200D201ED902D01F4010191119121913191BC
:100722004F01D3014D915D916D917D913D01C501C7
:100732000E949E09BBE0AB0EB11C8C149D0441F7D4
:1007420044E050E0BE01695F7F4FCE01C3960E9434
:10075200CF0C0E94F80C84EF91E020E931E0F9011E
:100762003197F1F70197D9F70E94C1007894BE0141
:100772006F5F7F4F80E841E00E940D065E01E3E378
:10078200AE0EB11C3501F0E88F2E00E911E0C50173
:100792000E94F30A24E030E0AE01495C5F4F882DED
:1007A200B3010E94620924E0AE01415C5F4FBE01C9
:1007B200695C7F4FCE0101960E94810888EC90E02F
:0C07C200F8013197F1F70197D9F7E1CF6A
:1007CE001F93CF93DF9300D0CDB7DEB7162FAE01B8
:1007DE004E5F5F4FBE016F5F7F4F0E941B0B898183
:1007EE00823439F118F4813439F079C08334F1F15F
:1007FE00843409F458C073C02A81112319F01130C2
:10080E0069F06DC03BB381E090E002C0880F991F84
:10081E002A95E2F7809583238BBB61C03BB381E0C1
:10082E0090E002C0880F991F2A95E2F7832B8BBBAD
:10083E0056C02A81112319F0113069F050C038B317
:10084E0081E090E002C0880F991F2A95E2F780950B
:10085E00832388BB44C038B381E090E002C0880F88
:10086E00991F2A95E2F7832B88BB39C02A81112361
:10087E0019F0113069F033C035B381E090E002C059
:10088E00880F991F2A95E2F78095832385BB27C091
:10089E0035B381E090E002C0880F991F2A95E2F7E8
:1008AE00832B85BB1CC02A81112319F0113069F0EE
:1008BE0016C032B381E090E002C0880F991F2A95CE
:1008CE00E2F78095832382BB0AC032B381E090E0C9
:1008DE0002C0880F991F2A95E2F7832B82BB0F90D7
:0A08EE000F90DF91CF911F91089544
:1008F8001F93CF93DF9300D0CDB7DEB7162FAE018D
:100908004E5F5F4FBE016F5F7F4F0E941B0B898157
:10091800823439F118F4813439F079C08334F1F133
:10092800843409F458C073C02A81112319F0113096
:1009380069F06DC03AB381E090E002C0880F991F5A
:100948002A95E2F7809583238ABB61C03AB381E098
:1009580090E002C0880F991F2A95E2F7832B8ABB83
:1009680056C02A81112319F0113069F050C037B3ED
:1009780081E090E002C0880F991F2A95E2F78095E0
:10098800832387BB44C037B381E090E002C0880F5F
:10099800991F2A95E2F7832B87BB39C02A81112337
:1009A80019F0113069F033C034B381E090E002C02F
:1009B800880F991F2A95E2F78095832384BB27C067
:1009C80034B381E090E002C0880F991F2A95E2F7BE
:1009D800832B84BB1CC02A81112319F0113069F0C4
:1009E80016C031B381E090E002C0880F991F2A95A4
:1009F800E2F78095832381BB0AC031B381E090E0A0
:100A080002C0880F991F2A95E2F7832B81BB0F90AC
:0A0A18000F90DF91CF911F91089518
:100A22006F927F928F92AF92BF92CF92DF92EF92AC
:100A3200FF920F931F93CF93DF93CDB7DEB76097EB
:100A42000FB6F894DEBF0FBECDBF3B01882E6A0100
:100A5200FB01849187FC80818823F9F0A82DC301D2
:100A62000196A11DA12CB12C01C05B01B5016F5FE4
:100A72007F4F0196A11D9C014A2F21503109410946
:100A8200F901249147FD20812111EFCF82E0A80EC8
:100A9200B11CA114B10421F43BC0AA24A394B12C2B
:100AA200E12CF12C00E19A2D9E198C2D8F70102FC4
:100AB200181B911708F4192F1123D1F0482D930117
:100AC2002E0D3F1D411DF7FC4A95DE0111968FEF59
:100AD200810F90E001968A0F9B1FF901549147FD07
:100AE20050815D932F5F3F4F4F4FA817B907A9F76A
:100AF200412FBE016F5F7F4FC6010E94420B812FC3
:100B020090E0C80ED91EE80EF91EEA14FB0458F252
:100B1200C60160960FB6F894DEBF0FBECDBFDF915F
:100B2200CF911F910F91FF90EF90DF90CF90BF90E8
:0A0B3200AF908F907F906F900895B0
:100B3C0010C00E94C10C58F00E94BA0C40F029F46D
:100B4C005F3F29F00C94E10C51110C94C90C0C94DE
:100B5C00FE0C0E94B30B68F39923B1F3552391F368
:100B6C00951B550BBB27AA2762177307840738F010
:100B7C009F5F5F4F220F331F441FAA1FA9F335D06D
:100B8C000E2E3AF0E0E832D091505040E695001C21
:100B9C00CAF72BD0FE2F29D0660F771F881FBB1FDB
:100BAC00261737074807AB07B0E809F0BB0B802DB9
:100BBC00BF01FF2793585F4F3AF09E3F510578F0E5
:100BCC000C94E10C0C94C90C5F3FE4F3983ED4F305
:100BDC00869577956795B795F7959F5FC9F7880FB9
:100BEC00911D9695879597F90895E1E0660F771F0B
:100BFC00881FBB1F621773078407BA0720F0621B9C
:0E0C0C00730B840BBA0BEE1F88F7E09508956A
:100C1A002F923F924F926F927F928F92AF92BF9292
:100C2A00CF92DF92EF920F931F93CF93DF933B0103
:100C3A00882E042FA82FCB010496A11D60E0FC0189
:100C4A008491A7FD80810E94E703E82C63011301C8
:100C5A00482CC4E0D0E010E05801B8010C2E02C0C4
:100C6A00759567950A94E2F76170F101849147FCE2
:100C7A0080810E94E70321968FEF281A380A480AD2
:100C8A00C830D10549F7882DB3010E94D50BC0E0C1
:100C9A00D0E0B5010C2E02C0759567950A94E2F76B
:100CAA006170F6018491E7FC80810E94E703219636
:100CBA008FEFC81AD80AE80AC430D10551F7882D2F
:100CCA00B3010E94D50BDF91CF911F910F91EF9045
:100CDA00DF90CF90BF90AF908F907F906F904F90A2
:060CEA003F902F900895D9
:100CF0004F925F926F927F928F92AF92CF92DF92DC
:100D0000EF920F931F93CF93DF93CDB7DEB73C01E4
:100D1000FC010083218342836383E482C5828C01CA
:100D20002C01F4E04F0E511C61E0F80181918F011C
:100D30000E947C0404151505B9F761E08E2D0E9410
:100D40007C0461E08C2D0E947C046301F0E8EF2EAE
:100D500042E08E2DB6010E940D064A2D440F440F2D
:100D6000440F40628E2DB6010E940D0608EC10E083
:100D7000C8010197F1F7482D440F88898C60482BF2
:100D80008E2DB6010E940D06C8010197F1F741E0D2
:100D90008E2DB6010E940D0680EE9EE20197F1F7BE
:100DA00046E08E2DB6010E940D06DF91CF911F9176
:100DB0000F91EF90DF90CF90AF908F907F906F90DA
:060DC0005F904F900895C2
:100DC6002F923F924F926F927F928F92AF92BF92E5
:100DD600CF92DF92EF920F931F93CF93DF933B0156
:100DE600882E042FA82FCB010496A11D61E0FC01DB
:100DF6008491A7FD80810E94E703E82C630113011B
:100E0600482CC4E0D0E010E05801F101849147FC81
:100E160080819FEF291A390A490AB8010C2E02C0AF
:100E2600759567950A94E2F761700E94E70321962B
:100E3600C830D10549F7882DB3010E94D50BC0E013
:100E4600D0E0F6018491E7FC80819FEFC91AD90AA8
:100E5600E90AB5010C2E02C0759567950A94E2F76A
:100E660061700E94E7032196C430D10551F7882DA1
:100E7600B3010E94D50BDF91CF911F910F91EF9097
:100E8600DF90CF90BF90AF908F907F906F904F90F4
:060E96003F902F9008952B
:100E9C000FC00E94BA0C38F00E94C10C20F09523B0
:100EAC0011F00C94E10C0C94FE0C11240C94C90C54
:100EBC000E94B30B70F3959FC1F3950F50E0551F33
:100ECC00629FF001729FBB27F00DB11D639FAA2793
:100EDC00F00DB11DAA1F649F6627B00DA11D661FE2
:100EEC00829F2227B00DA11D621F739FB00DA11D03
:100EFC00621F839FA00D611D221F749F3327A00DBD
:100F0C00611D231F849F600D211D822F762F6A2F58
:100F1C0011249F5750409AF0F1F088234AF0EE0FBD
:100F2C00FF1FBB1F661F771F881F91505040A9F7EA
:100F3C009E3F510580F00C94E10C0C94C90C5F3F62
:100F4C00E4F3983ED4F3869577956795B795F79526
:100F5C00E7959F5FC1F7FE2B880F911D969587959E
:040F6C0097F9089554
:100F700011C00E94BA0C38F00E94C10C20F039F464
:100F80009F3F19F426F40C94FE0C0EF4E095E7FB59
:100F90000C94E10CE92F0E94B30B58F3BA176207C7
:100FA00073078407950720F079F4A6F50C94C80C14
:100FB0000EF4E0950B2EBA2FA02D0B01B901900174
:100FC0000C01CA01A0011124FF27591B99F0593FB8
:100FD00050F4503E68F11A16F040A22F232F342F00
:100FE0004427585FF3CF469537952795A795F0404E
:100FF0005395C9F77EF41F16BA0B620B730B840B63
:10100000BAF09150A1F0FF0FBB1F661F771F881F1A
:10101000C2F70EC0BA0F621F731F841F48F4879572
:1010200077956795B795F7959E3F08F0B0CF939564
:0E103000880F08F09927EE0F97958795089581
:10103E00CF92DF92EF92FF92CF93DF93EC018885F0
:10104E000E94900C0E94EC0C0E94560C0E94EC0C1C
:10105E000E94560CBC0180E090E00E94250920E021
:10106E0030EC4FE754E40E94F00C20E030E040EA10
:10107E0050E40E94F40C9B01AC0160E070E080EA49
:10108E0090E40E94F00C20E030E040E85FE30E9424
:10109E00B30C9B01AC0160E078E987E397E40E9412
:1010AE00F00C6B017C012C813D814E815F810E9491
:1010BE00E70C18162CF081E090E09A87898713C010
:1010CE00288139814A815B81C701B6010E94E70CF4
:1010DE0018162CF082E090E09A87898704C083E08E
:1010EE0090E09A878987DF91CF91FF90EF90DF9004
:0410FE00CF900895F2
:10110200AF92BF92CF92DF92EF92FF920F931F9313
:10111200CF93DF93CDB7DEB7E2970FB6F894DEBF79
:101122000FBECDBF2223B9F1062F172FFA0130E0EF
:10113200220F331F420F531FF12CEE24E394D801E8
:10114200CD90DD908D0120813181C216D30619F038
:10115200D182C082FE2C3296E417F50781F7FF2078
:10116200D1F0172F062F6C01B0E8EB2E41E08E2D47
:10117200B6010E940D0642E350E0CE0101965C01E9
:10118200BC01802F912F0E94DD08950140E88E2D31
:10119200B6010E94260AE2960FB6F894DEBF0FBE91
:1011A200CDBFDF91CF911F910F91FF90EF90DF9014
:0811B200CF90BF90AF900895AB
:1011BA00AF92BF92CF92DF92EF92FF920F931F935B
:1011CA00CF93DF93CDB7DEB75B017A010DB71EB7B8
:1011DA002DB73EB7241B350B0FB6F8943EBF0FBE92
:1011EA002DBF2F5F3F4F69010E94690BA701B6010E
:1011FA000E94FB0930E8E32E8E2DB6010E940D0CE9
:10120A00029748F421E030E04AE351E060E0C5018A
:10121A000E94F40B05C06E2DA601C5010E94470C61
:10122A000FB6F8941EBF0FBE0DBFDF91CF911F916D
:10123A000F91FF90EF90DF90CF90BF90AF900895FD
:10124A00E89409C097FB3EF4909580957095619556
:10125A007F4F8F4F9F4F9923A9F0F92F96E9BB270C
:10126A009395F695879577956795B795F111F8CF88
:10127A00FAF4BB0F11F460FF1BC06F5F7F4F8F4FF3
:10128A009F4F16C0882311F096E911C0772321F0E9
:10129A009EE8872F762F05C0662371F096E8862F81
:1012AA0070E060E02AF09A95660F771F881FDAF7D8
:0A12BA00880F9695879597F908951F
:1012C4006F927F928F92EF92FF920F931F93CF931F
:1012D400DF933B01882E7A01FB01582D0E94880C74
:1012E40062177307FCF012161306E4F48701220F49
:1012F400331FE20EF31EC0E0D0E082E0680E711CE2
:10130400811CF301582D0E94880C6C0F7D1F80E80E
:101314000E947E0CF801819391938F012B96EE1518
:10132400FF0579F7DF91CF911F910F91FF90EF9017
:081334008F907F906F900895E7
:10133C004F925F926F927F928F929F92AF92BF92D9
:10134C00EF920F931F93CF93DF93EC012A013B0194
:10135C004801590120E047E06E2D80E40E94710C99
:10136C00488259826A827B828C829D82AE82BF8245
:10137C00E886DF91CF911F910F91EF90BF90AF90C6
:0E138C009F908F907F906F905F904F9008958C
:10139A000F931F93CF93DF93CDB7DEB760970FB646
:1013AA00F894DEBF0FBECDBFFE013196CE01419645
:1013BA0011928E179F07E1F700E010E040E1BE01AD
:1013CA006F5F7F4FC8010E94420B005F1F4F0115DC
:1013DA0088E0180799F760960FB6F894DEBF0FBE3B
:0C13EA00CDBFDF91CF911F910F910895AE
:1013F600EF92FF920F931F93CF938B017A010E9476
:10140600230CC82F0E94DB0C8C2F81600E94970C46
:10141600C0E00E94A50C2C2F30E0F801E20FF31F6C
:101426008083882319F02E153F0528F00E94AC0C06
:101436000E94FB0C02C0CF5FECCFCF911F910F91A2
:06144600FF90EF900895F5
:10144C006F927F928F92CF92DF92EF923B01882E18
:10145C006901E42EF9014491E7FC4081442391F0A9
:10146C002FEFC21AD20AE20A882DB3010E94E306BA
:10147C00F6014491E7FC40818FEFC81AD80AE80ABC
:10148C004111F2CFEF90DF90CF908F907F906F90C3
:02149C000895B1
:10149E001F920F920FB60F9211242F933F934F93DB
:1014AE005F936F937F938F939F93AF93BF93EF93BE
:1014BE00FF93E091E400F091E500309709F0099573
:1014CE00FF91EF91BF91AF919F918F917F916F910E
:1014DE005F914F913F912F910F900FBE0F901F90E4
:0214EE0018954F
:1014F0001F920F920FB60F9211242F933F934F9389
:101500005F936F937F938F939F93AF93BF93EF936B
:10151000FF93E091E200F091E300309709F0099524
:10152000FF91EF91BF91AF919F918F917F916F91BB
:101530005F914F913F912F910F900FBE0F901F9091
:021540001895FC
:101542001F920F920FB60F9211242F933F934F9336
:101552005F936F937F938F939F93AF93BF93EF9319
:10156200FF93E091E000F091E100309709F00995D6
:10157200FF91EF91BF91AF919F918F917F916F9169
:101582005F914F913F912F910F900FBE0F901F903F
:021592001895AA
:101594001F920F920FB60F9211242F933F934F93E4
:1015A4005F936F937F938F939F93AF93BF93EF93C7
:1015B400FF93E091E600F091E700309709F0099578
:1015C400FF91EF91BF91AF919F918F917F916F9117
:1015D4005F914F913F912F910F900FBE0F901F90ED
:0215E400189558
:1015E600EF92FF920F931F93CF93DF93FC0120811D
:1015F600318112161306ACF47C0100E010E0C0E065
:10160600D0E0F70182819381800F911F0E941F080D
:101616002196055F1F4FF70180819181C817D90771
:1016260084F3DF91CF911F910F91FF90EF90089572
:101636006115710519F14115510501F1883030F434
:1016460091E4FB019083FA0180830895803138F498
:1016560092E4FB0190838850FA01808308958831D3
:1016660038F493E4FB0190838051FA018083089556
:0E16760094E4FB0190838851FA01808308956B
:10168400EF92FF920F931F93CF93DF937B01142F5D
:101694000E94230C112371F0E7011150012F10E077
:1016A4000F5F1F4F0E0D1F1D89910E949E0CC017C6
:1016B400D107D1F70E94FB0C80E49CE90197F1F774
:0E16C400DF91CF911F910F91FF90EF9008954D
:1016D200FC01389621E030E060E070E052914291E6
:1016E20041505109429FD001439FB00D529FB00D0E
:1016F20011246A0F7B1FA901440F551F240F351FA8
:10170200E817F90759F780E090E99C01629FC00150
:0C171200639F900D729F900D11240895AC
:10171E00990F0008550FAA0BE0E8FEEF16161706F4
:10172E00E807F907C0F012161306E407F50798F05C
:10173E00621B730B840B950B39F40A2661F0232B75
:10174E00242B252B21F408950A2609F4A140A695F1
:08175E008FEF811D811D08952C
:1017660057FD9058440F551F59F05F3F71F047954C
:10177600880F97FB991F61F09F3F79F08795089531
:10178600121613061406551FF2CF4695F1DF08C050
:10179600161617061806991FF1CF8695710561056D
:0417A6000894089506
:1017AA00CF92DF92EF926B01E82E95E0C90ED11C21
:1017BA00E11C61E0F6018491E7FC80810E94E70365
:1017CA0080E49FE10197F1F760E0F6018491E7FC7C
:0E17DA0080810E94E703EF90DF90CF9008958A
:1017E800CF92DF92EF92DC016A01E62E280F391FB3
:1017F800A217B30751F0F6014491E7FC40814D93DD
:101808004FEFC41AD40AE40AF3CFEF90DF90CF90D9
:02181800089531
:10181A00CF92DF92EF926B01E82EA82FCB01FC0149
:10182A002491A7FD2081222319F00196A11DF7CF4B
:0C183A008C199D09EF90DF90CF9008956D
:10184600CF93DF93D82F9770C92FCC0FC06A0E9411
:10185600DB0C8C2F0E94970C8D2F0E949E0C8C2FD8
:06186600DF91CF9108950F
:10186C00092E0394000C11F4882352F0BB0F40F4A2
:10187C00BF2B11F460FF04C06F5F7F4F8F4F9F4FE2
:02188C000895BD
:10188E009A01462FDC01F901549147FD50815D9379
:0E189E00552321F02F5F3F4F4F4FF5CF089598
:1018AC008091E800882339F085B190E0880F991F6A
:0C18BC00880F991F089584B195B108951C
:1018C80017B897B1892B87B9442319F04093E800DA
:0A18D8003D9A87B1682B67B90895A7
:1018E200CF93C42F16B8422F0E94640C86B1C82B26
:0A18F200C6B9379A3398CF910895D4
:1018FC00A82FCB010996A11DFC015A2F0E94880C20
:04190C00CB0108956E
:1019100057FD03C065917591089561917191089586
:0E19200097B1907E97B997B1892B87B908953A
:0E192E0083B984E886BF06B607FEFDCF089594
:0E193C0083B984E886BF06B607FEFDCF089586
:0E194A0084EC86BF06B607FEFDCF83B108957C
:0E19580084E886BF06B607FEFDCF83B1089572
:0E1966005058BB27AA270E94B8070C94360CD5
:0E19740000240A941616170618060906089590
:0E19820000240A941216130614060506089592
:0E199000E894BB2766277727CB0197F90895C7
:0C199E00FC015183408373836283089531
:0C19AA0088E480B911B884E086BF08957D
:0C19B60084EA86BF06B607FEFDCF089548
:0C19C20097F99F6780E870E060E00895EE
:0A19CE000E948F0B08F481E00895D9
:0819D800369A3699FECF0895FE
:0819E0000E949E050C94360CD8
:0819E8000E944E070C94360C1E
:0619F0000E94D50C0895D1
:0619F60084E986BF08959C
:0619FC009FEF80EC08954E
:041A02000C94000040
:101A060003000300030001000100010003000300BE
:101A160001000100010003000300010001000300B2
:101A2600030001000300030001000300030003009C
:101A36000300020003000300030003000300030089
:101A4600030002000200030002000200020003007D
:101A56000200020003000300010001000100010072
:101A66000100030001000300020002000100010062
:101A76000300010001000100020001000100010055
:00000001FF
