:100000000C9439000C9446100C946F100C949810BA
:100010000C9482130C9482130C9482130C9482130C
:100020000C9482130C9482130C9482130C948213FC
:100030000C9482130C9482130C9482130C948213EC
:100040000C94C1100C9482130C9482130C948213A0
:100050000C94821300600062800062009E002712F0
:10006000009E00A68000A600A800274E00A800A9B8
:10007000800011241FBECFE5D8E0DEBFCDBFE4E590
:10008000F0E040E017C0B591A5913591259105911B
:1000900007FD0CC095918591EF01F92FE82F059090
:1000A0000D92A217B307D9F7FE0104C01D92A21743
:1000B000B307E1F7E137F40731F70E94E5060C9446
:0600C000F312F894FFCFDB
:1000C600A6E2B0E0E9E6F0E00C94FC1198A38F8F6D
:1000D6007F8B6E8B288FFB010190F081E02DFA87D4
:1000E600E987FB0102811381248135813B8B2A8BB1
:1000F600808591859AA389A326803780FA0180801E
:100106009180A280B38020E030E0A901C501B4014E
:100116000E94661387FF06C0B7FAB094B7F8B0948A
:100126008DE204C0598552FF47C38BE2F1018083FB
:100136002A893B89215031093C832B8341E050E0D9
:10014600598B488B06C08A899B899C838B83198A25
:10015600188AD501C401BF770097E0E8AE07EFE73C
:10016600BE0799F4F88D2F2FFF0F330B2154310959
:1001760088899989820D931D2A31310518F468E71B
:1001860070E019C06CE770E016C00197A048BF4741
:10019600A8F0488D242F440F330B21543109888948
:1001A6009989820D931D2A31310518F460E870E0B3
:1001B60002C064E870E00E941A13EDC220E030E04D
:1001C600A901C501B4010E946613C12CD12C20E8F7
:1001D600E22E2FE3F22E1A821982882309F48CC0AC
:1001E6008D829E82AF82B88620E030E040E251E404
:1001F600C701B6010E9478132B013C01D501C40149
:1002060084199509A609B709B7FF07C0B095A09547
:10021600909581959F4FAF4FBF4F0297A105B105AE
:1002260044F489819A8101969A83898373016201D4
:10023600DBCFA5019401C301B2010E94661387FDBD
:10024600F0CF8D819E81AF81B8858C199D09AE094D
:10025600BF090196A11DB11D0397A105B10508F4BB
:1002660049C01E821D82A5019401C701B6010E94E4
:100276006B1318160CF040C0E981FA81E43DFE4F7D
:10028600E4F44D815E81452BC1F420E030E040E886
:100296005AE5C501B4010E9478134B015C0120E0C8
:1002A60030E040E85AE5C701B6010E9478136B01B9
:1002B6007C0181E090E09E838D8320E030E040E287
:1002C60051E4C701B6010E9474136B017C01E981F8
:1002D600FA813197FA83E983D501C4018C199D0906
:1002E600AE09BF090196A11DB11D0397A105B10570
:1002F60008F0B9CF46015701288D022E000C330BAA
:10030600398F288FC9010E9422138A8F17FD03C0D7
:100316001E830D8304C046E050E05E834D835A8DF4
:10032600573641F4012B09F04CC281E090E09E83E0
:100336008D8347C24A8D4F8706C029813A8137FF90
:1003460052C256E65F878D819E8101969E838D837C
:100356009F859636B9F4E981FA81F7FF08C0C12C6A
:10036600D12C90E8E92E9FE3F92E1A821982FA8D94
:10037600F73641F02D813E8149815A81240F351F80
:100386003E832D831C2DDDA2EBA20F2D8B869C8632
:10039600AD86BE861D8A1C8A8C899D89ED81FE816B
:1003A6008E179F07DCF5212F3DA14BA1502F6B85A2
:1003B6007C858D859E850E9474130E94C1082B0141
:1003C6003C010E9454136B8FA3019201612F7DA102
:1003D6008BA1902F0E9478132B853C854D855E85D9
:1003E6000E9431139B01AC0150582B873C874D87E7
:1003F6005E8720E030E040E251E4612F7DA18BA1D1
:10040600902F0E947413162F7DA38BA3092F4C895E
:100416005D894F5F5F4F5D8B4C8BBECF20E030E038
:1004260040EA50E4612F7DA18BA1902F0E947813A2
:100436002B013C019B01AC016B857C858D859E85DE
:100446000E94661387FD0DC0A30192016B857C8512
:100456008D859E850E946613811106C0FB8DF0FD79
:1004660003C0412C512C3201A5019401C301B201F4
:100476000E9432134B015C0120E030E040E251E47F
:10048600C701B6010E9478136B877C8B182F092F42
:100496009B01482F592FC501B4010E946B1387FD9C
:1004A60014C029813A812F5F3F4F3A8329833F85C4
:1004B600363679F44D815E814F5F5F4F5E834D83A3
:1004C6005B855DA38C898EA30BC0CB86DC8A1E2D33
:1004D6000F2D9F85953639F0EB85EDA3FC89FEA39C
:1004E600E980FA8006C02B852DA33C893EA3E12C2A
:1004F600F12C48885988C12CD12C1D8A1C8A1C864F
:100506001B8649855A85407155275CA34BA32B85CD
:100516003C854D815E812417350734F08C899D8991
:10052600892B09F494C09FC03201EE89FF8980852A
:10053600918505974816590688F72DA13EA1412FAA
:10054600502FC501B4010E9474130E94C1086B8F1D
:100556007C8F8D8F9E8F0E9454136A30710514F024
:1005660069E070E08BA19CA1892B69F46115710586
:1005760051F49A8D973639F4F7FE05C03601EFEF40
:100586006E1A7E0A38C02C893D89232B99F4F7FE12
:1005960011C03FEF431A530AF101E60DF71D4EE273
:1005A60040838B819C8101979C838B83E1E0F0E003
:1005B600FD8BEC8BF101E40DF51D36016114710420
:1005C60031F020E3219331E0631A7108F7CFC601B9
:1005D600840D951D2B813C812C193D092C014FEF73
:1005E600441A540AF101E80FF91F605D6083C901DE
:1005F60001979C838B832B8D3C8D4D8D5E8D6DA1DC
:100606007EA1812F902F0E947813A50194010E944C
:1006160031134B015C01B7FAB094B7F8B09420E0FF
:1006260030E040E251E46DA17EA1812F902F0E941F
:1006360074136DA37EA3182F092F91E0E91AF10810
:10064600EB85FC853196FC87EB87630160CFF985E6
:10065600F4FF09C0F101E40DF51D8EE280839201DD
:100666002F5F3F4F2901A101440D551D5E834D8328
:10067600FA011082FF85F53609F061C0E9A1FAA1F9
:10068600E20DF31D3197108229813A8137FF08C0A8
:100696003195219531093A83298301E010E002C0A2
:1006A60000E010E0E9A1FAA13197E20DF31D22E086
:1006B60030E08AE0E82EF12CCF01821993094981B6
:1006C6005A81452B91F089819A81B7010E94601267
:1006D600805D829369837A83215031094B815C81E5
:1006E600415051095C834B83E7CF121613065CF326
:1006F600FC013197E20DF31D012B11F42BE201C031
:100706002DE220830297B101680F791F288D398D5C
:10071600215431092A31310510F025E601C025E4BE
:10072600FB0120832B813C81225031093C832B83A2
:100736004816590624F48D819E810E941A13398524
:1007460031FF29C030FD27C04B815C811416150688
:1007560014F5C1010E94CB12820D931D9C01221932
:10076600330948895989241735074CF0FC01208143
:10077600EB81FC81E80FF91F20830197EFCF4B81B6
:100786005C8160E370E088899989820D931D0E94DF
:1007960008131B8A1A8AC1010E94CB1209851A8581
:1007A6002A893B89AC01B1018F8D98A10E94F70E71
:1007B600A696E2E10C941812598553FFC4CC80E248
:1007C600B5CC89819A818C3F9F4F54F0E981FA819B
:1007D6002D813E81E217F3070CF4AFCD35E604C058
:0C07E600F5E6FF87CFCD36E63F87CCCD8F
:1007F200AEE0B0E0EFEFF3E00C94FF114C016B01BF
:100802001A8219828FEF9FEF9C838B831E821D8237
:1008120058874F833A872987A12CB12CD6016D9036
:100822007C90F301EA0DFB1D808181110FC0D6017E
:10083200ED93FC938081853209F0D3C13F01BFEF74
:100842006B1A7B0AF6017182608219C0853279F3D4
:10085200B401082E000C990B0E946F0D4FEFA41AE1
:10086200B40ADCCF8C32ACF08D32F9F489819A81F2
:1008720081609A8389833196D601ED93FC93D601E8
:10088200ED91FC9180818B3269F789819A81846034
:10089200F0CF803221F489819A818860EACF833255
:1008A20051F489819A818061E4CF803321F4898176
:1008B2009A818260DECFB701C6010E94C20F9E8379
:1008C2008D8397FF0BC029813A81B1E02B273A83B0
:1008D20029839195819591099E838D8389819A813E
:1008E20080FF03C08D7F9A838983D601ED91FC91AD
:1008F200119780818E3249F43196ED93FC93B701C2
:10090200C6010E94C20F9C838B83C6010E949F1165
:10091200582ED601ED91FC918081082E000C990B86
:100922000E942213893609F443C084F4833609F401
:1009320002C134F4853209F427C18136E1F030C1B5
:100942008436B1F188360CF4D9C02AC1803709F453
:100952009AC03CF48E3609F4BCC08F3609F461C0EB
:100962001FC1853709F440C0883709F476C0833740
:1009720009F016C1F3C0652D70E0A701CE010B96F8
:100982000E94BF11892B09F426C1D601ED91FC9179
:100992001197CF0101968D939C932081AE01455F03
:1009A2005F4FBE016F5F7F4FC4010E94000010C104
:1009B200652D70E0970141E050E0CE010B960E9458
:1009C2007F0A892B09F407C1F60180819181019682
:1009D20091838083AE01455F5F4FBE016F5F7F4FA2
:1009E200C4010E943409F4C0652D70E0970140E013
:1009F20050E0CE010B960E947F0A892B09F4EBC0CE
:100A0200D6018D919C91119701968D939C93AE0185
:100A1200455F5F4FBE016F5F7F4FC4010E94BB0DF8
:100A2200D7C0652D70E0970140E050E0CE010B96F3
:100A32000E947F0A892B09F4CEC0F6018081918140
:100A4200019691838083AE01455F5F4FBE016F5F68
:100A52007F4FC4010E94140CBBC0652D70E097014A
:100A620040E050E0CE010B960E947F0A892B09F4E8
:100A7200B2C0D601ED91FC911197CF0101968D93F1
:100A82009C9320811CC0970140E050E060EF70E031
:100A9200CE010B960E947F0A892B09F49CC0F601B5
:100AA200808191810196918380838B859C85892B9E
:100AB20029F420E030E048E950E084C028E7AE01A4
:100AC200455F5F4FBE016F5F7F4FC4010E94F70514
:100AD2007FC0A501400F511F652D70E09701CE0127
:100AE2000B960E940000892B09F475C0D6018D91E6
:100AF2009C91119701968D939C9373C0652D70E024
:100B0200A701CE010B960E94BF11892B09F463C085
:100B1200D601ED91FC911197CF0101968D939C9393
:100B22002081AE01455F5F4FBE016F5F7F4FC40101
:100B32000E9463004DC0B0E85B124DC0F601808197
:100B42009181019691838083D701ED91FC91119758
:100B5200CF0102968D939C93808120C0B0E85B12F6
:100B62003AC0F60180819181019691838083D701F9
:100B7200ED91FC911197CF0102968D939C93408148
:100B8200518120E030E01EC0B0E85B1224C0F601C3
:100B9200208131812F5F3F4F318320838B870DC0AE
:100BA20085E28B87D6016D927C921A8219821E820F
:100BB2001D828FEF9FEF9C838B8321E030E0AE019B
:100BC200455F5F4FBE016F5F7F4FC4010E941C10E3
:100BD2008A0D9B1D07C0F601808191810196918348
:0C0BE2008083C5012E96EFE00C941B12DE
:100BEE00AFE0B0E0EDEFF5E00C94FC111C016B01F1
:100BFE005A8349832B83FB01828193818480958064
:100C0E0000811181A680B78097FD02C00D7F02C0C2
:100C1E0081E090E0E981FA814080518062807380AA
:100C2E009801207133273D832C83740104FF08C083
:100C3E00411451046104710419F032E0E31AF10811
:100C4E00F801E870FF27FF83EE8303FF03C0F1E096
:100C5E00EF1AF108F6010084F185E02D3197FF8738
:100C6E00EE87EA0DFB1D10829C012E193F09398774
:100C7E002887C801827099279B878A87EB818E2FE0
:100C8E00EE0F990B9C01215431093D872C872E853F
:100C9E003F852230310530F48C819D81892B09F0FE
:100CAE0042C05CC0411451046104710461F18E852F
:100CBE009F8501979F878E87C2018F7099278A30F3
:100CCE00910514F4C09602C0895A9F4FEC85FD859C
:100CDE007A9748F49C012062215631092A31310558
:100CEE0010F40E941113EE85FF85EA0DFB1D808323
:100CFE00F1E0EF1AF10884E07694679457944794E4
:100D0E008A95D1F7C4CF888599858E0D9F1D1816AB
:100D1E0019066CF21E141F040CF0BECFEA85FB857B
:100D2E00EF2B29F6B9CFE981FA8180819181A281D9
:100D3E00B381892B8A2B8B2B89F0EE85FF85EA0DEB
:100D4E00FB1D31972B8120838E859F8502979F8770
:100D5E008E87FC01EA0DFB1D80E38083EE81FF810F
:100D6E00EF2B59F02E853F85215031093F872E8775
:100D7E00F901EA0DFB1D80E28083F6014085518565
:100D8E00415051092E853F85421B530BB9016A0D07
:100D9E007B1D9401C1010E94F70E9C01F10180811F
:100DAE00918190FF06C0F60182819381821793078D
:0C0DBE000CF4C9012F96E2E10C9418120D
:100DCA00CF93DF93CDB7DEB7C554D1090FB6F894E8
:100DDA00DEBF0FBECDBF85E0FE01FC96DF01982F76
:100DEA001D929A95E9F73596DF011D928A95E9F7E2
:100DFA00E12C00E018EF27E237E440E05CEE69E21C
:100E0A0077E4CE0107960E94640FEE24E39400E093
:100E1A0010E42CE937E440E058E260EA77E4CE01D6
:100E2A0041960E94640F6894EE24E1F800E014E110
:100E3A002DE437E440E054E360E577E4CE014B96D5
:100E4A000E94640F0F2EF3E0EF2EF02D00E014EB5A
:100E5A002CE537E440E05CE960E677E4CE0185966C
:100E6A000E94640F6894EE24E2F800E014E52CE690
:100E7A0037E440E05CE360E777E4CE018F960E94B6
:100E8A00640F45E0BE01695F7F4FCE01C9960E949B
:100E9A0061131F92812CA12C0F2EFAE0CF2EF02D78
:100EAA000F2EF9E0EF2EF02D04E025E046E067E092
:100EBA00CE0101960E94B30B789461E0CE010196AF
:100ECA000E94C50C0F9000E21EE40F2EF0E4EF2EF4
:100EDA00FCE9FF2EF02D80E00E94FE12C801019766
:100EEA00F1F7CE01C9960E94111145E0BE01645C7A
:100EFA007F4FCE01C9960E94F00F81E00E94FE1238
:100F0A00C8010197F1F725E0AE014F5B5F4FBE01C3
:100F1A00645C7F4FCE0101960E94020EC7010197C1
:040F2A00F1F7D9CF33
:100F2E001F93CF93DF9300D0CDB7DEB7162FAE0150
:100F3E004E5F5F4FBE016F5F7F4F0E94EA10898147
:100F4E00823439F118F4813439F079C08334F1F1F7
:100F5E00843409F458C073C02A81112319F011305A
:100F6E0069F06DC03BB381E090E002C0880F991F1D
:100F7E002A95E2F7809583238BBB61C03BB381E05A
:100F8E0090E002C0880F991F2A95E2F7832B8BBB46
:100F9E0056C02A81112319F0113069F050C038B3B0
:100FAE0081E090E002C0880F991F2A95E2F78095A4
:100FBE00832388BB44C038B381E090E002C0880F21
:100FCE00991F2A95E2F7832B88BB39C02A811123FA
:100FDE0019F0113069F033C035B381E090E002C0F2
:100FEE00880F991F2A95E2F78095832385BB27C02A
:100FFE0035B381E090E002C0880F991F2A95E2F781
:10100E00832B85BB1CC02A81112319F0113069F086
:10101E0016C032B381E090E002C0880F991F2A9566
:10102E00E2F78095832382BB0AC032B381E090E061
:10103E0002C0880F991F2A95E2F7832B82BB0F906F
:0A104E000F90DF91CF911F910895DC
:101058001F93CF93DF9300D0CDB7DEB7162FAE0125
:101068004E5F5F4FBE016F5F7F4F0E94EA1089811C
:10107800823439F118F4813439F079C08334F1F1CC
:10108800843409F458C073C02A81112319F011302F
:1010980069F06DC03AB381E090E002C0880F991FF3
:1010A8002A95E2F7809583238ABB61C03AB381E031
:1010B80090E002C0880F991F2A95E2F7832B8ABB1C
:1010C80056C02A81112319F0113069F050C037B386
:1010D80081E090E002C0880F991F2A95E2F7809579
:1010E800832387BB44C037B381E090E002C0880FF8
:1010F800991F2A95E2F7832B87BB39C02A811123D0
:1011080019F0113069F033C034B381E090E002C0C7
:10111800880F991F2A95E2F78095832384BB27C0FF
:1011280034B381E090E002C0880F991F2A95E2F756
:10113800832B84BB1CC02A81112319F0113069F05C
:1011480016C031B381E090E002C0880F991F2A953C
:10115800E2F78095832381BB0AC031B381E090E038
:1011680002C0880F991F2A95E2F7832B81BB0F9045
:0A1178000F90DF91CF911F910895B1
:101182008F929F92AF92BF92CF92DF92EF92FF9295
:101192000F931F938B019C0157E136952795179565
:1011A20007955A95D1F71127A8014F575109473191
:1011B20051050CF045C057FD2DC00FEF1FEF2FE773
:1011C20030E004C035952795179507954A95D2F7D3
:1011D2004801590186229722A822B92289288A2801
:1011E2008B2871F197FF07C0DC01CB01800F911FA3
:1011F200A21FB31F02C0DC01CB0100951095209500
:10120200309580239123A223B323482F392F2A2FED
:101212005B2F1AC097FF0FC08B019C01000F111F9B
:10122200221F331F012B022B032B51F040E030E031
:1012320020E85FEB09C040E030E020E050E004C06D
:10124200462F372F282F592F642F732F822F952F38
:101252001F910F91FF90EF90DF90CF90BF90AF90D2
:061262009F908F9008959B
:10126800A2E0B0E0EAE3F9E00C94FC113C016B0168
:10127800FB0122813381A480B580808191819A838A
:10128800898386809780FA0120803180428053804C
:10129800B201A10157FE07C044275527BA014219D8
:1012A80053096409750937FD03C08D7F9A838983C3
:1012B800950157FC05C0898182FD02C083FF02C0E9
:1012C80021503109CE0101967C010AE010E0C601E7
:1012D8000E944E0B57FC03C0298122FF0AC00197C8
:1012E800F401E80FF91F57FC02C02BE209C02DE2F8
:1012F80007C023FF06C00197F401E80FF91F20E299
:10130800208309811A81F601408551854150510990
:10131800481B590BB401680F791F9501C3010E943E
:10132800F70E9C01F3018081918190FF06C0F601C0
:1013380082819381821793070CF4C9012296E2E116
:041348000C941812D7
:10134C0010C00E943F1358F00E94381340F029F44B
:10135C005F3F29F00C945B1351110C9447130C94C0
:10136C007F130E945B1168F39923B1F3552391F31A
:10137C00951B550BBB27AA2762177307840738F0F8
:10138C009F5F5F4F220F331F441FAA1FA9F335D055
:10139C000E2E3AF0E0E832D091505040E695001C09
:1013AC00CAF72BD0FE2F29D0660F771F881FBB1FC3
:1013BC00261737074807AB07B0E809F0BB0B802DA1
:1013CC00BF01FF2793585F4F3AF09E3F510578F0CD
:1013DC000C945B130C9447135F3FE4F3983ED4F3E7
:1013EC00869577956795B795F7959F5FC9F7880FA1
:1013FC00911D9695879597F90895E1E0660F771FF3
:10140C00881FBB1F621773078407BA0720F0621B83
:0E141C00730B840BBA0BEE1F88F7E095089552
:10142A000FC00E94381338F00E943F1320F0952312
:10143A0011F00C945B130C947F1311240C94471332
:10144A000E945B1170F3959FC1F3950F50E0551FF1
:10145A00629FF001729FBB27F00DB11D639FAA27FF
:10146A00F00DB11DAA1F649F6627B00DA11D661F4E
:10147A00829F2227B00DA11D621F739FB00DA11D6F
:10148A00621F839FA00D611D221F749F3327A00D29
:10149A00611D231F849F600D211D822F762F6A2FC5
:1014AA0011249F5750409AF0F1F088234AF0EE0F2A
:1014BA00FF1FBB1F661F771F881F91505040A9F757
:1014CA009E3F510580F00C945B130C9447135F3FC9
:1014DA00E4F3983ED4F3869577956795B795F79593
:1014EA00E7959F5FC1F7FE2B880F911D969587950B
:0414FA0097F90895C1
:1014FE00CF93DF93DC01F90168387105F1F05CF4EC
:10150E006138710561F164387105A1F160387105BA
:10151E0009F051C02FC0603C710509F441C0603F15
:10152E007105F1F1603A710509F045C0C081D181B4
:10153E00CE0102969183808325C0C081D181CE01D8
:10154E00029691838083452B39F04881042E000C3E
:10155E00550B660B770B1CC0488150E029C0C0812B
:10156E00D181CE01049691838083488159816A810D
:10157E007B810EC0C081D181CE0102969183808382
:10158E00452BA1F048815981052E000C660B770B77
:10159E004D935D936D937C93139781E090E00DC016
:1015AE00C081D181CE010296918380834881598179
:1015BE0060E070E0EDCF80E090E0DF91CF91089594
:1015CE0011C00E94381338F00E943F1320F039F4F6
:1015DE009F3F19F426F40C947F130EF4E095E7FB6D
:1015EE000C945B13E92F0E945B1158F3BA17620734
:1015FE0073078407950720F079F4A6F50C9446132B
:10160E000EF4E0950B2EBA2FA02D0B01B90190010F
:10161E000C01CA01A0011124FF27591B99F0593F53
:10162E0050F4503E68F11A16F040A22F232F342F9B
:10163E004427585FF3CF469537952795A795F040E9
:10164E005395C9F77EF41F16BA0B620B730B840BFE
:10165E00BAF09150A1F0FF0FBB1F661F771F881FB6
:10166E00C2F70EC0BA0F621F731F841F48F487950E
:10167E0077956795B795F7959E3F08F0B0CF939500
:0E168E00880F08F09927EE0F9795879508951D
:10169C00A0E0B0E0E4E5FBE00C94FE11DC012801D5
:1016AC001696AD90BC901797F70180819181129698
:1016BC00ED91FC9113971896CD91DC911997219788
:1016CC00F7FF02C0E1E0F0E0CA0DDB1D18826901F2
:1016DC00A1E0B0E08F01021B130B4C01F2E08F2252
:1016EC009924052C000C66087708CE018A199B09F1
:1016FC00CA15DB0519F1411551056105710589F014
:10170C00CB01BA01A30192010E947D11CA01A62F3F
:10171C00B72F605D6A9341E0C41AD108A901BC01DE
:10172C00E4CF98012C0D3D1D121613064CF31C141E
:10173C001D0434F48114910419F702C080E090E088
:10174C00AB2B31F4F701208131812F7E3183208343
:0A175C00CDB7DEB7E0E10C941A12DD
:101766004F925F926F927F928F92AF92CF92EF924B
:101776000F931F93CF93DF93CDB7DEB73C01FC01E8
:101786000083218342836383E482C5828C012C011A
:10179600F4E04F0E511C61E0F80181918F010E9427
:1017A6002C0804151505B9F761E08E2D0E942C084A
:1017B60061E08C2D0E942C0862E0C3010E94C50CDA
:1017C6006A2D660F660F660F6062C3010E94C50C24
:1017D60008EC10E0C8010197F1F7682D660F8F85B8
:1017E6008C60682BC3010E94C50CC8010197F1F7F4
:1017F60061E0C3010E94C50C80EE9EE20197F1F7FD
:1018060066E0C3010E94C50CDF91CF911F910F9135
:10181600EF90CF90AF908F907F906F905F904F90AA
:02182600089523
:10182800A2E0B0E0EAE1FCE00C9400124C016B018C
:10183800FB012281338164807580808191819A8344
:101848008983A680B78037FD03C08D7F9A838983FB
:10185800FA014081518162817381CE0101967C0138
:1018680008E010E09301C6010E944E0B298124FF75
:1018780006C00197F501E80FF91F20E320832981AD
:1018880023FF06C00197F501E80FF91F20E2208326
:1018980009811A81F6014085518541505109481B3B
:1018A800590BB501680F791F9301C4010E94F70E07
:1018B8009C01F4018081918190FF06C0F60182812C
:1018C8009381821793070CF4C9012296EEE00C94D9
:0218D8001C12E0
:1018DA00CF92DF92EF92FF92CF93DF93EC0188854C
:1018EA000E942A130E9470130E94BD12BC0180E05C
:1018FA0090E00E94440E20E030EC4FE754E40E944E
:10190A00741320E030E040EA50E40E9478139B010F
:10191A00AC0160E070E080EA90E40E94741320E079
:10192A0030E040E85FE30E9431139B01AC0160E0C4
:10193A0078E987E397E40E9474136B017C012C8198
:10194A003D814E815F810E94661318161CF081E06A
:10195A0089870FC0288139814A815B81C701B60115
:10196A000E94661318161CF082E0898702C083E081
:10197A008987DF91CF91FF90EF90DF90CF90089504
:10198A008F929F92AF92BF92CF92DF92EF92FF9285
:10199A000F931F93CF93DF936C01C62F60E0FC0176
:1019AA0084810E949707860156016894882482F8E8
:1019BA00912CD0E07E01BE01082C02C07595679576
:1019CA000A94E2F76170F50181915F010E9497071D
:1019DA00FFEF8F1A9F0A88E08816910459F7C6010B
:1019EA000E948812C0E0D0E0B7010C2E02C07595A3
:1019FA0067950A94E2F76170F80181918F010E945C
:101A0A0097072196C430D10579F7C6010E9488123A
:101A1A00DF91CF911F910F91FF90EF90DF90CF90C0
:0A1A2A00BF90AF909F908F90089539
:101A34008F929F92AF92BF92CF92DF92EF92FF92DA
:101A44000F931F93CF93DF936C01C62F61E0FC01CA
:101A540084810E949707860156016894882482F83D
:101A6400912CD0E07E01BE01082C02C075956795CB
:101A74000A94E2F76170F50181915F010E94970772
:101A8400FFEF8F1A9F0A88E08816910459F7C60160
:101A94000E948812C0E0D0E0B7010C2E02C07595F8
:101AA40067950A94E2F76170F80181918F010E94B1
:101AB40097072196C430D10579F7C6010E94881290
:101AC400DF91CF911F910F91FF90EF90DF90CF9016
:0A1AD400BF90AF909F908F9008958F
:101ADE000F931F93CF93DF93DB01109719F48FEFC2
:101AEE009FEF3DC02D913C91119730FF25C016966A
:101AFE004D915C91179714962D913C911597421725
:101B0E00530778F41296ED91FC91139780831296F9
:101B1E002D913C9113972F5F3F4F13963C932E932D
:101B2E00129716962D913C9117972F5F3F4F179650
:101B3E003C932E93169713C01C96ED91FC911D9716
:101B4E00309769F2EB01092F182F0995892B39F679
:101B5E008E819F8101969F838E83812F902FDF919F
:081B6E00CF911F910F91089522
:101B7600A2E0B0E0E1ECFDE00C9400125C016B0128
:101B8600FB012281338184809580808191819A83B3
:101B960089836680778037FD03C08D7F9A8389832A
:101BA600FA014081518162817381CE0101967C01E7
:101BB6000AE010E09401C6010E944E0B09811A81C9
:101BC600F6014085518541505109481B590BB30117
:101BD600680F791F9401C5010E94F70E9C01F5015B
:101BE6008081918190FF06C0F601828193818217E0
:0E1BF60093070CF4C9012296EEE00C941C1229
:101C0400CF92DF92EF92FF920F931F93CF93DF93C4
:101C14008C01222371F1EB01FA01C22ED12C4C0D5F
:101C24005D1DDB0180E021E09D913081931711F06F
:101C34009083822F3196E417F507B1F718C04991C4
:101C440050E060E070E0C8010E94300F66EA70E086
:101C5400C8010E944B12EC16FD0689F70AC07B01ED
:101C640061E0C8010E94C50CEC0CFD1CE8CF811199
:101C7400F6CFDF91CF911F910F91FF90EF90DF90FE
:041C8400CF90089560
:101C8800E89409C097FB3EF490958095709561950E
:101C98007F4F8F4F9F4F9923A9F0F92F96E9BB27C4
:101CA8009395F695879577956795B795F111F8CF40
:101CB800FAF4BB0F11F460FF1BC06F5F7F4F8F4FAB
:101CC8009F4F16C0882311F096E911C0772321F0A1
:101CD8009EE8872F762F05C0662371F096E8862F39
:101CE80070E060E02AF09A95660F771F881FDAF790
:0A1CF800880F9695879597F90895D7
:101D0200A2E8B0E0E7E8FEE00C9402125C014A01AE
:101D1200CF57DF4F79836883C158D040C12CD12C73
:101D2200CF57DF4FE881F981C158D04080818823A5
:101D3200E9F07401860120E830E0AE014F5F5F4FA9
:101D4200BE016F577F4FC5010E94F9038C0D9D1D87
:101D52008C159D054CF48FE490E090936100809384
:101D620060008FEF9FEF03C06C01DACFC601CE5740
:081D7200DF4FECE00C941E129F
:101D7A00A0E1B0E0E3ECFEE00C940812FB01BA012A
:101D8A00AE014F5F5F4F7A0140E1D7011D924A953C
:101D9A00E9F742E051E05A8349839C838B83F7FF3A
:101DAA0009C08FE490E090936100809360008FEF08
:101DBA009FEF14C0A9018C013197FE83ED83C701FF
:101DCA000E9433124F8158852D813E814217530755
:101DDA0008F49A01F801E20FF31F10826096E6E018
:041DEA000C9424121F
:101DEE00A0E0B0E0EDEFFEE00C9402126C015B019E
:101DFE007A01E901480181E08822992400FD03C09F
:101E0E004217530750F0A701B501C6010E94DF111A
:101E1E00EC16FD0610F0C70117C08E010E191F0932
:101E2E000115110541F0B60180E290E00E946F0DA0
:101E3E0001501109F5CF8114910429F4A701B501C0
:101E4E00C6010E94DF11CE01CDB7DEB7ECE00C94D7
:021E5E001E1252
:101E6000EF92FF920F931F93CF93DF93CDB7DEB71F
:101E70002C970FB6F894DEBF0FBECDBF7C017F93C9
:101E80006F935F934F9388E890E09F938F938E01B9
:101E90000F5F1F4F1F930F930E949A12B801C70143
:101EA0000E944B120FB6F894DEBF0FBECDBF2C962A
:101EB0000FB6F894DEBF0FBECDBFDF91CF911F915B
:081EC0000F91FF90EF900895CF
:101EC8004F925F926F927F928F929F92AF92BF9242
:101ED800EF920F931F93CF93DF93EC012A013B01FD
:101EE8004801590120E047E06E2D80E40E94E61287
:101EF800488259826A827B828C829D82AE82BF82AE
:101F0800E886DF91CF911F910F91EF90BF90AF902E
:0E1F18009F908F907F906F905F904F900895F4
:101F26000E94631188F09F5798F0B92F9927B751EF
:101F3600B0F0E1F0660F771F881F991F1AF0BA9567
:101F4600C9F714C0B13091F00E944613B1E008956C
:101F56000C944613672F782F8827B85F39F0B93F5E
:101F6600CCF3869577956795B395D9F73EF490951A
:0E1F76008095709561957F4F8F4F9F4F089516
:101F8400DC01ED91FC91119780818A3221F080E08F
:101F940090E03AE00EC03196ED93FC93DB01ED91B5
:101FA400FC911197CF0102968D939C93808191812E
:101FB4000895ED91FC911197208120532A3068F403
:101FC400389FA001399F500D1124CA01820F911D21
:0C1FD40031961196FC93EE93ECCF08952B
:101FE000CF92DF92EF92FF920F931F93CF93DF93E5
:101FF000FC0120812417B8F04423A9F07B016C0177
:102000008B01E40EF11CC0E0D0E0F60181819281E9
:102010008C0F9D1F0E947C13F80181938F012A96DB
:10202000EE15FF0591F7DF91CF911F910F91FF9072
:08203000EF90DF90CF900895BE
:10203800A0E0B0E0E2E2F0E10C9404127C01FB01C4
:10204800EA01C901A280B380C480D58000811181D2
:10205800209711F4C1E9D0E0009719F4CE010E944D
:10206800CB12B7FC04C0A816B90608F4C50196013E
:10207800AC01BE01C7010E94F70ECDB7DEB7EAE09A
:042088000C94201282
:10208C001F920F920FB60F9211242F933F934F93E1
:10209C005F936F937F938F939F93AF93BF93EF93C4
:1020AC00FF93E091A200F091A300309709F00995FD
:1020BC00FF91EF91BF91AF919F918F917F916F9114
:1020CC005F914F913F912F910F900FBE0F901F90EA
:0220DC00189555
:1020DE001F920F920FB60F9211242F933F934F938F
:1020EE005F936F937F938F939F93AF93BF93EF9372
:1020FE00FF93E091A000F091A100309709F00995AF
:10210E00FF91EF91BF91AF919F918F917F916F91C1
:10211E005F914F913F912F910F900FBE0F901F9097
:02212E00189502
:102130001F920F920FB60F9211242F933F934F933C
:102140005F936F937F938F939F93AF93BF93EF931F
:10215000FF93E0919E00F0919F00309709F0099560
:10216000FF91EF91BF91AF919F918F917F916F916F
:102170005F914F913F912F910F900FBE0F901F9045
:022180001895B0
:102182001F920F920FB60F9211242F933F934F93EA
:102192005F936F937F938F939F93AF93BF93EF93CD
:1021A200FF93E091A400F091A500309709F0099502
:1021B200FF91EF91BF91AF919F918F917F916F911D
:1021C2005F914F913F912F910F900FBE0F901F90F3
:0221D20018955E
:1021D4006115710519F14115510501F1883030F48B
:1021E40091E4FB019083FA0180830895803138F4EF
:1021F40092E4FB0190838850FA018083089588312A
:1022040038F493E4FB0190838051FA0180830895AC
:0E22140094E4FB0190838851FA0180830895C1
:10222200EF92FF920F931F93CF93DF93FC012081D4
:102232002223A9F07C0100E010E0C0E0D0E0F70129
:1022420081819281800F911F0E946D0C2196065F01
:102252001F4FF701208130E0C217D30784F3DF91CB
:0C226200CF911F910F91FF90EF90089515
:10226E00990F0008550FAA0BE0E8FEEF1616170699
:10227E00E807F907C0F012161306E407F50798F001
:10228E00621B730B840B950B39F40A2661F0232B1A
:10229E00242B252B21F408950A2609F4A140A69596
:0822AE008FEF811D811D0895D1
:1022B60057FD9058440F551F59F05F3F71F04795F1
:1022C600880F97FB991F61F09F3F79F087950895D6
:1022D600121613061406551FF2CF4695F1DF08C0F5
:1022E600161617061806991FF1CF86957105610512
:0422F60008940895AB
:1022FA00A1E21A2EAA1BBB1BFD010DC0AA1FBB1F00
:10230A00EE1FFF1FA217B307E407F50720F0A21B71
:10231A00B30BE40BF50B661F771F881F991F1A94DE
:10232A0069F760957095809590959B01AC01BD0108
:04233A00CF01089532
:10233E00CF93DF93EC0190E0E92FF0E0EE0FFF1F5B
:10234E00EE59FF4F8081811102C081810EC0A8819C
:10235E00B9812C91821305C091811196B983A883FE
:10236E0001C09F5F9B3040F3892FDF91CF9108957D
:10237E00FA0160387105CCF0623871051CF06338D3
:10238E00710599F4A081B1819D012C5F3F4F31837E
:10239E0020834D915D916D917C91FC014083518321
:1023AE006283738381E090E0089580E090E0089569
:1023BE00A0E0B0E0E5EEF1E10C9406126C01EB0149
:1023CE008A017B01E40EF51ECE15DF0541F08991E1
:1023DE00B601082E000C990B0E946F0DF5CFC801A7
:0A23EE00CDB7DEB7E8E00C94221230
:1023F8002F923F924F925F926F927F928F929F920D
:10240800AF92BF92CF92DF92EF92FF920F931F93FA
:10241800CF93DF93CDB7DEB7CA1BDB0B0FB6F894AB
:08242800DEBF0FBECDBF099419
:102430002A88398848885F846E847D848C849B8454
:10244000AA84B984C884DF80EE80FD800C811B8162
:10245000AA81B981CE0FD11D0FB6F894DEBF0FBE91
:06246000CDBFED0108955F
:10246600A2E0B0E0E9E3F2E10C940A128C015A838F
:102476004983AE014F5F5F4F0E94810EF8012081B4
:1024860024FF02C08FEF9FEF2296E4E00C94261201
:102496000F931F93CF93DF93EB016881662341F07F
:1024A6008C012196C8010E941A0D69916111FACF1B
:0A24B600DF91CF911F910F9108955F
:1024C00097FB072E16F4009407D077FD09D00E94E1
:1024D000741207FC05D03EF4909581959F4F0895A6
:0824E000709561957F4F08958E
:1024E800AA1BBB1B51E107C0AA1FBB1FA617B70732
:1024F80010F0A61BB70B881F991F5A95A9F780954E
:082508009095BC01CD0108957E
:10251000CF93DF93EC0161E08D810E94970780E407
:102520009FE10197F1F760E08D810E949707DF91AD
:04253000CF910895AA
:10253400A0E0B0E0E0EAF2E10C940C12AE01475FD7
:102544005F4F6F8178858D819E810E944D13E2E0FB
:042554000C942812A9
:10255800092E0394000C11F4882352F0BB0F40F4A9
:10256800BF2B11F460FF04C06F5F7F4F8F4F9F4FE9
:022578000895C4
:10257A008091A800882339F085B190E0880F991FCF
:0C258A00880F991F089584B195B1089541
:10259600FC01AF014F5F5F4F2081222311F0FA014A
:0C25A600F8CF9F01281B390BC9010895D4
:1025B20017B897B1892B87B9442319F04093A80023
:0A25C2003D9A87B1682B67B90895B0
:1025CC00CF93C42F16B8422F0E94D91286B1C82BB4
:0A25DC00C6B9379A3398CF910895DD
:1025E600EC010E9487130E948613CE010E94881375
:0625F600CE010E948413D7
:1025FC00882319F0813019F008951ABA08958FEFD5
:04260C008ABB0895E8
:10261000FC01480F591FE417F50711F06193FBCF38
:0226200008951B
:102622009C01215631092A31310510F48F75992701
:02263200089509
:10263400FC01DB012D91BD0121932111FACF0895F5
:102644009C01215431092A31310508F4806208952E
:0E26540097B1907E97B997B1892B87B90895F9
:0E2662005058BB27AA270E94E70A0C94AC121E
:0E26700000240A941616170618060906089587
:0E267E0000240A941216130614060506089589
:0E268C00E894BB2766277727CB0197F90895BE
:0E269A009A01AB016FEF7FE70E94BD0E08951D
:0E26A8000E94930F6894B1110C94471308958B
:0C26B60097F99F6780E870E060E00895ED
:0A26C200FC014083728361830895D8
:0A26CC000E94371108F481E0089520
:0A26D6000E94371108F48FEF0895F9
:0826E000369A3699FECF0895E9
:0826E8000E94A6090C94AC123B
:0826F0000E94150A0C94AC12C3
:0626F800FC01818508953C
:0626FE009FEF80EC08953F
:042704000C94000031
:042708000E946100CA
:02270C0008952E
:02270E0008952C
:0227100008952A
:1027120068076C094C836A9074A07AC0008068884C
:0627220000846C820081BE
:10272800494E4600696E66004E414E006E616E006D
:09273800256C6400252E326600B8
:07274100286E756C6C290085
:06274800286E696C2900F7
:02274E002C005D
:00000001FF
