:100000000C9430000C944D090C9476090C949F09C3
:100010000C94CE0B0C94CE0B0C94CE0B0C94CE0BFC
:100020000C94CE0B0C94CE0B0C94CE0B0C94CE0BEC
:100030000C94CE0B0C94CE0B0C94CE0B0C94CE0BDC
:100040000C94C8090C94CE0B0C94CE0B0C94CE0BD4
:100050000C94CE0B006001AD0017AA01AD01B68073
:1000600011241FBECFE5D8E0DEBFCDBFE4E5F0E050
:1000700040E017C0B591A59135912591059107FDF7
:100080000CC095918591EF01F92FE82F05900D9205
:10009000A217B307D9F7FE0104C01D92A217B30738
:1000A000E1F7E036F40731F70E9496020C94410B19
:0400B000F894FFCFF2
:1000B400CF93DF93CDB7DEB7C058D1090FB6F8940C
:1000C400DEBF0FBECDBF88E0E6EEF0E0DE01A7584C
:1000D400BF4F01900D928A95E1F7CE0187589F4F4B
:1000E4000E94AD0ABC0180E690E00E942B0588E0E6
:1000F400EEEEF0E0DE01AF58BF4F01900D928A950D
:10010400E1F7CE018F589F4F0E94AD0ABC0189E6EA
:1001140090E00E942B0588E0E6EFF0E0DE01A759AD
:10012400BF4F01900D928A95E1F7CE0187599F4FF9
:100134000E94AD0ABC0182E790E00E942B0588E092
:10014400EEEFF0E0DE01AF59BF4F01900D928A95BA
:10015400E1F7CE018F599F4F0E94AD0ABC0182E89E
:1001640090E00E942B0588E0E6E0F1E0DE01A75A6A
:10017400BF4F01900D928A95E1F7CE01875A9F4FA8
:100184000E94AD0ABC018CE890E00E942B0588E037
:10019400EEE0F1E0DE01AF5ABF4F01900D928A9577
:1001A400E1F7CE018F5A9F4F0E94AD0ABC0180E94E
:1001B40090E00E942B0588E0E6E1F1E0DE01A75B18
:1001C400BF4F01900D928A95E1F7CE01875B9F4F57
:1001D4000E94AD0ABC018AE990E00E942B0588E0E8
:1001E400EEE1F1E0DE01AF5BBF4F01900D928A9525
:1001F400E1F7CE018F5B9F4F0E94AD0ABC0183EAF9
:1002040090E00E942B0588E0E6E2F1E0DE01D99659
:1002140001900D928A95E1F7CE01C9960E94AD0A2C
:10022400BC018BEA90E00E942B0588E0EEE2F1E04D
:10023400DE01D19601900D928A95E1F7CE01C19627
:100244000E94AD0ABC0181EB90E00E942B0588E07E
:10025400E6E3F1E0DE01999601900D928A95E1F7CB
:10026400CE0189960E94AD0ABC0184EB90E00E9405
:100274002B0588E0EEE3F1E0DE01919601900D920A
:100284008A95E1F7CE0181960E94AD0ABC0182EC09
:1002940090E00E942B0588E0E6E4F1E0DE01599647
:1002A40001900D928A95E1F7CE0149960E94AD0A1C
:1002B400BC0188EC90E00E942B0588E0EEE4F1E0BC
:1002C400DE01519601900D928A95E1F7CE01419697
:1002D4000E94AD0ABC0181ED90E00E942B0588E0EC
:1002E400E6E5F1E0DE01199601900D928A95E1F7B9
:1002F400CE0109960E94AD0ABC018BED90E00E94EC
:100304002B0588E0EEE5F1E0DE01119601900D92F7
:100314008A95E1F7CE0101960E94AD0ABC0182EEF6
:1003240090E00E942B05C058DF4F0FB6F894DEBF53
:0A0334000FBECDBFDF91CF910895F9
:10033E006F927F928F929F92AF92BF92CF92DF92E7
:10034E00EF92FF920F931F93CF93DF936C015B019C
:10035E00842E952E622E732E61E00E94400766E673
:10036E0071E0C6010E94CE0A88E893E120E931E0EF
:10037E00F9013197F1F70197D9F761E0C6010E94B3
:10038E00400765E771E0C6010E94CE0A80E593EC56
:10039E0020E931E0F9013197F1F70197D9F71016FD
:1003AE0011060CF041C0E501E82CF92C4501800E38
:1003BE00911E89910E94540B0E94B50B0E94190B3D
:1003CE000E94B50B0E94190BBC0180E090E00E94C8
:1003DE00840820E030EC4FE754E40E94BD0B20E08F
:1003EE0030E040EA50E40E94C10B9B01AC0160E09A
:1003FE0070E080EA90E40E94BD0B20E030E040E81F
:10040E005FE30E94770B9B01AC0160E078E987E324
:10041E0097E40E94BD0BF7016193719381939193C1
:10042E007F01C815D90529F661E0C6010E94400773
:10043E0066E871E0C6010E94CE0A80E593EC20E9E1
:10044E0031E0F9013197F1F70197D9F7101611063E
:10045E000CF040C07501C62DD72D0A0D1B1DF701DE
:10046E0081917F010E94540B0E94B50B0E94190BC3
:10047E000E94B50B0E94190BBC0180E090E00E9417
:10048E00840820E030EC4FE754E40E94BD0B20E0DE
:10049E0030E040EA50E40E94C10B9B01AC0160E0E9
:1004AE0070E080EA90E40E94BD0B20E030E040E86E
:1004BE005FE30E94770B9B01AC0160E078E987E374
:1004CE0097E40E94BD0B69937993899399930E15C6
:1004DE001F0529F661E0C6010E94400768E971E038
:1004EE00C6010E94CE0A80E29EE420E931E0F901C5
:1004FE003197F1F70197D9F761E0C6010E944007E5
:10050E00DF91CF911F910F91FF90EF90DF90CF90E1
:0E051E00BF90AF909F908F907F906F90089548
:10052C00CF93DF93CDB7DEB7CA56D1090FB6F89487
:10053C00DEBF0FBECDBF88E0FE01F796DF01982F1E
:10054C001D929A95E9F73896DF011D928A95E9F785
:10055C00A8961FAEA89781E0A9968FAFA99782E0C5
:10056C00AA968FAFAA9783E0AB968FAFAB9720E09C
:10057C0047E060E080E40E94340B1F92812CA12C98
:10058C000F2EFAE0CF2EF02D0F2EF9E0EF2EF02DDE
:10059C0004E025E046E067E0CE0101960E94DF060C
:1005AC0080E49CE90197F1F704E010E09E01295AE0
:1005BC003F4FAE01495B5F4FBE0169597F4FCE0182
:1005CC0001960E949F01FE01E959FF4F2F01CE01B8
:1005DC00895B9F4F4C01DE01A95ABF4F3D015E0163
:1005EC00B7E0AB0EB11C6C01E0E1CE0ED11C0F904C
:1005FC00D201ED902D01F4010191119121913191D4
:10060C004F01D3014D915D916D917D913D01C501DE
:10061C000E94F308BBE0AB0EB11C8C149D0441F797
:10062C0044E050E0BE01695F7F4FCE01C3960E944B
:10063C00930B0E94C50B84EF91E020E931E0F901A6
:10064C003197F1F70197D9F70E945A00789461E03D
:10065C00CE0101960E94400700E911E0CE01C3963D
:10066C000E94F10944E050E0BE01695C7F4FCE016D
:10067C00C3960E94C10824E0AE01415C5F4FBE01ED
:10068C00695C7F4FCE0101960E94EA0788EC90E0EE
:0C069C00F8013197F1F70197D9F7E0CF92
:1006A8004F925F926F927F928F929F92AF92BF927A
:1006B800CF92DF92EF92FF92CF93DF9300D000D0DA
:1006C80000D0CDB7DEB79E838D83FC0180850E9464
:1006D800540B0E94B50B0E94190B0E94B50B0E9487
:1006E800190BBC0180E090E00E94840820E030EC07
:1006F8004FE754E40E94BD0B20E030E040EA50E4AC
:100708000E94C10B9B01AC0160E070E080EA90E4BC
:100718000E94BD0B20E030E040E85FE30E94770BC9
:100728009B01AC0160E078E987E397E40E94BD0B88
:1007380069837A838B839C83ED81FE81808091809D
:10074800A280B380C480D580E680F780A701960197
:10075800C501B4010E94770B2DEC3CEC4CEC5EE338
:100768000E94C10B2B013C019B01AC01C701B601E2
:100778000E94780B9B01AC0169817A818B819C81F5
:100788000E94AB0B18163CF081E090E0ED81FE81F1
:10079800928781871DC0A3019201C501B4010E94FF
:1007A800770B9B01AC0169817A818B819C810E94C6
:1007B800B00B88233CF083E090E0ED81FE819287C6
:1007C800818706C082E090E0ED81FE819287818773
:1007D80026960FB6F894DEBF0FBECDBFDF91CF913E
:1007E800FF90EF90DF90CF90BF90AF909F908F9049
:0A07F8007F906F905F904F9008957E
:100802001F93CF93DF9300D0CDB7DEB7162FAE0183
:100812004E5F5F4FBE016F5F7F4F0E94190A898151
:10082200823439F118F4813439F079C08334F1F12A
:10083200843409F458C073C02A81112319F011308D
:1008420069F06DC03BB381E090E002C0880F991F50
:100852002A95E2F7809583238BBB61C03BB381E08D
:1008620090E002C0880F991F2A95E2F7832B8BBB79
:1008720056C02A81112319F0113069F050C038B3E3
:1008820081E090E002C0880F991F2A95E2F78095D7
:10089200832388BB44C038B381E090E002C0880F54
:1008A200991F2A95E2F7832B88BB39C02A8111232D
:1008B20019F0113069F033C035B381E090E002C025
:1008C200880F991F2A95E2F78095832385BB27C05D
:1008D20035B381E090E002C0880F991F2A95E2F7B4
:1008E200832B85BB1CC02A81112319F0113069F0BA
:1008F20016C032B381E090E002C0880F991F2A959A
:10090200E2F78095832382BB0AC032B381E090E094
:1009120002C0880F991F2A95E2F7832B82BB0F90A2
:0A0922000F90DF91CF911F9108950F
:10092C001F93CF93DF9300D0CDB7DEB7162FAE0158
:10093C004E5F5F4FBE016F5F7F4F0E94190A898126
:10094C00823439F118F4813439F079C08334F1F1FF
:10095C00843409F458C073C02A81112319F0113062
:10096C0069F06DC03AB381E090E002C0880F991F26
:10097C002A95E2F7809583238ABB61C03AB381E064
:10098C0090E002C0880F991F2A95E2F7832B8ABB4F
:10099C0056C02A81112319F0113069F050C037B3B9
:1009AC0081E090E002C0880F991F2A95E2F78095AC
:1009BC00832387BB44C037B381E090E002C0880F2B
:1009CC00991F2A95E2F7832B87BB39C02A81112303
:1009DC0019F0113069F033C034B381E090E002C0FB
:1009EC00880F991F2A95E2F78095832384BB27C033
:1009FC0034B381E090E002C0880F991F2A95E2F78A
:100A0C00832B84BB1CC02A81112319F0113069F08F
:100A1C0016C031B381E090E002C0880F991F2A956F
:100A2C00E2F78095832381BB0AC031B381E090E06B
:100A3C0002C0880F991F2A95E2F7832B81BB0F9078
:0A0A4C000F90DF91CF911F910895E4
:100A56008F929F92AF92BF92CF92DF92EF92FF92C8
:100A66000F931F93CF93DF93CDB7DEB760970FB683
:100A7600F894DEBF0FBECDBF5C016B01FC01808127
:100A8600882391F03196E12CF12C01C07901970170
:100A96002F5F3F4F81918111F9CFF2E0EF0EF11CEC
:100AA600E114F10421F434C0EE24E394F12C00E0C7
:100AB60010E06894882484F89E2D901B8C2D8F70EE
:100AC600982C981A991508F4992E992089F0D50131
:100AD600A00FB11FFE0131962FEF290D30E02F5FD9
:100AE6003F4F2E0F3F1F8D918193E217F307D9F7E2
:100AF600492DBE016F5F7F4FC6010E94400A892DB6
:100B060090E0C80ED91E080F191F0E151F05A0F27A
:100B1600C60160960FB6F894DEBF0FBECDBFDF915B
:100B2600CF911F910F91FF90EF90DF90CF90BF90E4
:080B3600AF909F908F9008958D
:100B3E0010C00E94850B58F00E947E0B40F029F4E5
:100B4E005F3F29F00C94A50B51110C948D0B0C9456
:100B5E00CB0B0E948B0A68F39923B1F3552391F3C3
:100B6E00951B550BBB27AA2762177307840738F00E
:100B7E009F5F5F4F220F331F441FAA1FA9F335D06B
:100B8E000E2E3AF0E0E832D091505040E695001C1F
:100B9E00CAF72BD0FE2F29D0660F771F881FBB1FD9
:100BAE00261737074807AB07B0E809F0BB0B802DB7
:100BBE00BF01FF2793585F4F3AF09E3F510578F0E3
:100BCE000C94A50B0C948D0B5F3FE4F3983ED4F37D
:100BDE00869577956795B795F7959F5FC9F7880FB7
:100BEE00911D9695879597F90895E1E0660F771F09
:100BFE00881FBB1F621773078407BA0720F0621B9A
:0E0C0E00730B840BBA0BEE1F88F7E095089568
:100C1C000FC00E947E0B38F00E94850B20F09523AC
:100C2C0011F00C94A50B0C94CB0B11240C948D0B84
:100C3C000E948B0A70F3959FC1F3950F50E0551FDE
:100C4C00629FF001729FBB27F00DB11D639FAA2715
:100C5C00F00DB11DAA1F649F6627B00DA11D661F64
:100C6C00829F2227B00DA11D621F739FB00DA11D85
:100C7C00621F839FA00D611D221F749F3327A00D3F
:100C8C00611D231F849F600D211D822F762F6A2FDB
:100C9C0011249F5750409AF0F1F088234AF0EE0F40
:100CAC00FF1FBB1F661F771F881F91505040A9F76D
:100CBC009E3F510580F00C94A50B0C948D0B5F3F5F
:100CCC00E4F3983ED4F3869577956795B795F795A9
:100CDC00E7959F5FC1F7FE2B880F911D9695879521
:040CEC0097F90895D7
:100CF00011C00E947E0B38F00E94850B20F039F461
:100D00009F3F19F426F40C94CB0B0EF4E095E7FB0F
:100D10000C94A50BE92F0E948B0A58F3BA176207AF
:100D200073078407950720F079F4A6F50C948C0BD3
:100D30000EF4E0950B2EBA2FA02D0B01B9019001F6
:100D40000C01CA01A0011124FF27591B99F0593F3A
:100D500050F4503E68F11A16F040A22F232F342F82
:100D60004427585FF3CF469537952795A795F040D0
:100D70005395C9F77EF41F16BA0B620B730B840BE5
:100D8000BAF09150A1F0FF0FBB1F661F771F881F9D
:100D9000C2F70EC0BA0F621F731F841F48F48795F5
:100DA00077956795B795F7959E3F08F0B0CF9395E7
:0E0DB000880F08F09927EE0F97958795089504
:100DBE004F925F926F927F928F92AF92CF92EF92FD
:100DCE000F931F93CF93DF93CDB7DEB73C01FC019A
:100DDE000083218342836383E482C5828C012C01CC
:100DEE00F4E04F0E511C61E0F80181918F010E94D9
:100DFE00960404151505B9F761E08E2D0E94960430
:100E0E0061E08C2D0E94960462E0C3010E944007AF
:100E1E006A2D660F660F660F6062C3010E9440075F
:100E2E0008EC10E0C8010197F1F7682D660F8F8569
:100E3E008C60682BC3010E944007C8010197F1F72F
:100E4E0061E0C3010E94400780EE9EE20197F1F738
:100E5E0066E0C3010E944007DF91CF911F910F9171
:100E6E00EF90CF90AF908F907F906F905F904F905C
:020E7E000895D5
:100E80008F929F92AF92BF92CF92DF92EF92FF929A
:100E90000F931F93CF93DF936C01C62F60E0FC018B
:100EA00084810E940104860156016894882482F896
:100EB000912CD0E07E01BE01082C02C0759567958B
:100EC0000A94E2F76170F50181915F010E940104CB
:100ED000FFEF8F1A9F0A88E08816910459F7C60120
:100EE0000E94F60AC0E0D0E0B7010C2E02C0759552
:100EF00067950A94E2F76170F80181918F010E9471
:100F000001042196C430D10579F7C6010E94F60A82
:100F1000DF91CF911F910F91FF90EF90DF90CF90D5
:0A0F2000BF90AF909F908F9008954E
:100F2A008F929F92AF92BF92CF92DF92EF92FF92EF
:100F3A000F931F93CF93DF936C01C62F61E0FC01DF
:100F4A0084810E940104860156016894882482F8EB
:100F5A00912CD0E07E01BE01082C02C075956795E0
:100F6A000A94E2F76170F50181915F010E94010420
:100F7A00FFEF8F1A9F0A88E08816910459F7C60175
:100F8A000E94F60AC0E0D0E0B7010C2E02C07595A7
:100F9A0067950A94E2F76170F80181918F010E94C6
:100FAA0001042196C430D10579F7C6010E94F60AD8
:100FBA00DF91CF911F910F91FF90EF90DF90CF902B
:0A0FCA00BF90AF909F908F900895A4
:100FD400CF92DF92EF92FF920F931F93CF93DF9301
:100FE400CDB7DEB7E2970FB6F894DEBF0FBECDBF24
:100FF400222391F1062F172FFA0130E0220F331F1D
:10100400420F531FF12CEE24E394D801CD90DD90D0
:101014008D0120813181C216D30619F0D182C0829C
:10102400FE2C3296E417F50781F7FF20A9F0172F5D
:10103400062F7C0161E00E94400742E350E0BE01BC
:101044006F5F7F4F802F912F0E943D08BE016F5F1D
:101054007F4FC7010E94CE0AE2960FB6F894DEBF16
:101064000FBECDBFDF91CF911F910F91FF90EF90F5
:06107400DF90CF9008950B
:10107A008F929F92AF92BF92CF92DF92EF92FF929E
:10108A000F931F93CF93DF93CDB7DEB75B017A013E
:10109A00CDB6DEB62DB73EB7241B350B0FB6F89486
:1010AA003EBF0FBE2DBF0DB71EB70F5F1F4F0E9469
:1010BA00AD0AA701B8010E942209F8010190002097
:1010CA00E9F73197E01BF10B329718F4F50110821A
:1010DA0004C0B801C5010E944C0B0FB6F894DEBEDD
:1010EA000FBECDBEDF91CF911F910F91FF90EF9070
:0E10FA00DF90CF90BF90AF909F908F900895A1
:10110800E89409C097FB3EF4909580957095619599
:101118007F4F8F4F9F4F9923A9F0F92F96E9BB274F
:101128009395F695879577956795B795F111F8CFCB
:10113800FAF4BB0F11F460FF1BC06F5F7F4F8F4F36
:101148009F4F16C0882311F096E911C0772321F02C
:101158009EE8872F762F05C0662371F096E8862FC4
:1011680070E060E02AF09A95660F771F881FDAF71B
:0A117800880F9695879597F9089562
:10118200CF92DF92EF92FF920F931F93CF93DF9351
:10119200FC012081318124173507DCF01416150675
:1011A200C4F47B016C018B01440F551FE40EF51E44
:1011B200C0E0D0E0F601828193818C0F9D1F0E94D6
:1011C200B90BF801819391938F012B96EE15FF05D0
:1011D20089F7DF91CF911F910F91FF90EF90DF90F0
:0411E200CF9008950D
:1011E6004F925F926F927F928F929F92AF92BF9231
:1011F600EF920F931F93CF93DF93EC012A013B01EC
:101206004801590120E047E06E2D80E40E94340B2E
:10121600488259826A827B828C829D82AE82BF829C
:10122600E886DF91CF911F910F91EF90BF90AF901D
:0E1236009F908F907F906F905F904F900895E3
:10124400EF92FF920F931F93CF938B017A010E9429
:10125400E30AC82F0E949F0B8C2F81600E945B0BB6
:10126400C0E00E94690B2C2F30E0F801E20FF31F5D
:101274008083882319F02E153F0528F00E94700BF7
:101284000E94C80B02C0CF5FECCFCF911F910F918A
:06129400FF90EF900895A9
:10129A001F920F920FB60F9211242F933F934F93E1
:1012AA005F936F937F938F939F93AF93BF93EF93C4
:1012BA00FF93E091B101F091B201309709F00995DD
:1012CA00FF91EF91BF91AF919F918F917F916F9114
:1012DA005F914F913F912F910F900FBE0F901F90EA
:0212EA00189555
:1012EC001F920F920FB60F9211242F933F934F938F
:1012FC005F936F937F938F939F93AF93BF93EF9372
:10130C00FF93E091AF01F091B001309709F009958E
:10131C00FF91EF91BF91AF919F918F917F916F91C1
:10132C005F914F913F912F910F900FBE0F901F9097
:02133C00189502
:10133E001F920F920FB60F9211242F933F934F933C
:10134E005F936F937F938F939F93AF93BF93EF931F
:10135E00FF93E091AD01F091AE01309709F0099540
:10136E00FF91EF91BF91AF919F918F917F916F916F
:10137E005F914F913F912F910F900FBE0F901F9045
:02138E001895B0
:101390001F920F920FB60F9211242F933F934F93EA
:1013A0005F936F937F938F939F93AF93BF93EF93CD
:1013B000FF93E091B301F091B401309709F00995E2
:1013C000FF91EF91BF91AF919F918F917F916F911D
:1013D0005F914F913F912F910F900FBE0F901F90F3
:0213E00018955E
:1013E200EF92FF920F931F93CF93DF93FC01208123
:1013F200318112161306ACF47C0100E010E0C0E06B
:10140200D0E0F70182819381800F911F0E945403E3
:101412002196055F1F4FF70180819181C817D90777
:1014220084F3DF91CF911F910F91FF90EF90089578
:101432006115710519F14115510501F1883030F43A
:1014420091E4FB019083FA0180830895803138F49E
:1014520092E4FB0190838850FA01808308958831D9
:1014620038F493E4FB0190838051FA01808308955C
:0E14720094E4FB0190838851FA018083089571
:10148000EF92FF920F931F93CF93DF937B01142F63
:101490000E94E30A112371F0E7011150012F10E0BF
:1014A0000F5F1F4F0E0D1F1D89910E94620BC01709
:1014B000D107D1F70E94C80B80E49CE90197F1F7AE
:0E14C000DF91CF911F910F91FF90EF90089553
:1014CE00990F0008550FAA0BE0E8FEEF1616170647
:1014DE00E807F907C0F012161306E407F50798F0AF
:1014EE00621B730B840B950B39F40A2661F0232BC8
:1014FE00242B252B21F408950A2609F4A140A69544
:08150E008FEF811D811D08957E
:1015160057FD9058440F551F59F05F3F71F047959E
:10152600880F97FB991F61F09F3F79F08795089583
:10153600121613061406551FF2CF4695F1DF08C0A2
:10154600161617061806991FF1CF869571056105BF
:041556000894089558
:10155A00FC01389621E030E040E050E0B291A291DF
:10156A002A9FB0012B9F700D3A9F700D1124460FD0
:10157A00571FB901660F771F260F371FE817F9079C
:10158A0069F78CE3282F249FC001259F900D112411
:02159A000895B2
:10159C000F931F93CF93DF93EB016881662341F088
:1015AC008C012196C8010E94950769916111FACFAF
:0A15BC00DF91CF911F910F91089568
:1015C600CF93DF93D82F9770C92FCC0FC06A0E9494
:1015D6009F0B8C2F0E945B0B8D2F0E94620B8C2F12
:0615E600DF91CF91089592
:1015EC00CF93DF93EC0161E08D810E94010480E4D4
:1015FC009FE10197F1F760E08D810E940104DF917A
:04160C00CF910895DD
:10161000092E0394000C11F4882352F0BB0F40F400
:10162000BF2B11F460FF04C06F5F7F4F8F4F9F4F40
:0216300008951B
:101632008091B501882339F085B190E0880F991F18
:0C164200880F991F089584B195B1089598
:10164E0017B897B1892B87B9442319F04093B50188
:0A165E003D9A87B1682B67B9089523
:10166800CF93C42F16B8422F0E94270B86B1C82BE0
:0A167800C6B9379A3398CF91089550
:10168200EC010E94D30B0E94D20BCE010E94D40B1C
:06169200CE010E94D00B06
:10169800FC01DB012D91BD0121932111FACF0895A1
:0E16A80097B1907E97B997B1892B87B90895B5
:0E16B60083B984E886BF06B607FEFDCF08950F
:0E16C40083B984E886BF06B607FEFDCF089501
:0E16D20084EC86BF06B607FEFDCF83B10895F7
:0E16E00084E886BF06B607FEFDCF83B10895ED
:0E16EE005058BB27AA270E9478060C94080BC0
:0E16FC0000240A94161617061806090608950B
:0E170A0000240A94121613061406050608950C
:0E171800E894BB2766277727CB0197F9089541
:0C172600FC0151834083738362830895AB
:0C17320088E480B911B884E086BF0895F7
:0C173E0084EA86BF06B607FEFDCF0895C2
:0C174A0097F99F6780E870E060E0089568
:0A1756000E94670A08F481E008957C
:0A1760000E94670A08F48FEF089555
:08176A00369A3699FECF08956E
:08177200FC01818592850895B8
:08177A000E949F050C94080B6E
:081782000E940E060C94080BF6
:06178A000E94990B089576
:0617900084E986BF089504
:061796009FEF80EC0895B6
:04179C000C940000A9
:0417A0000E9458004B
:0217A4000895A6
:0217A6000895A4
:0217A8000895A2
:1017AA00417765736F6D65210049204C6F7665201E
:1017BA00550049207265616C6C79206C6F766520E2
:1017CA00550049207761746368205500596F750088
:1017DA00476F6F64206A6F6221005175657374697F
:1017EA006F6E00492061677265650051756F746597
:1017FA00004E6F004D616465206D65206C617567F0
:10180A00680048656C6C6F004E6F74207375726562
:10181A00004920616D2066696E65005468616E6BCF
:10182A007300427965000300030003000100010010
:10183A00010003000300010001000100030003008E
:10184A00010001000300030001000300030001007E
:10185A000300030003000300020003000300030067
:10186A000300030003000300020002000300020059
:10187A00020002000300020002000300030001004C
:10188A000100010001000100030001000300020041
:10189A000200010001000300010001000100020032
:1018AA0001000100010043616C6962726174696E32
:1018BA00672E2E2E004F70656E2048616E64205789
:1018CA006964656C7900436C6F73652048616E6466
:1018DA00204669726D6C790046696E697368656441
:0D18EA002063616C6962726174696F6E0049
:00000001FF
