:100000000C9430000C941A080C9443080C946C085F
:100010000C94A30A0C94A30A0C94A30A0C94A30AAC
:100020000C94A30A0C94A30A0C94A30A0C94A30A9C
:100030000C94A30A0C94A30A0C94A30A0C94A30A8C
:100040000C9495080C94A30A0C94A30A0C94A30A8C
:100050000C94A30A006001820015540182018B8078
:1000600011241FBECFE5D8E0DEBFCDBFE4E5F0E050
:1000700040E017C0B591A59135912591059107FDF7
:100080000CC095918591EF01F92FE82F05900D9205
:10009000A217B307D9F7FE0104C01D92A217B30738
:1000A000E1F7E036F40731F70E94A3010C94110A3E
:0400B000F894FFCFF2
:1000B400CF93DF93CDB7DEB7C05AD1090FB6F8940A
:1000C400DEBF0FBECDBF0E94C1078AE0E2EEF0E0C2
:1000D400DE01A956BF4F01900D928A95E1F7CE013A
:1000E40089569F4F0E943409BC0180E690E00E942B
:1000F4008F068AE0ECEEF0E0DE01A357BF4F0190DB
:100104000D928A95E1F7CE0183579F4F0E943409DF
:10011400BC0189E690E00E948F068AE0E6EFF0E0F9
:10012400DE01AD57BF4F01900D928A95E1F7CE01E4
:100134008D579F4F0E943409BC0182E790E00E94D2
:100144008F068AE0E0E0F1E0DE01A758BF4F01909E
:100154000D928A95E1F7CE0187589F4F0E9434098A
:10016400BC0182E890E00E948F068AE0EAE0F1E0B8
:10017400DE01A159BF4F01900D928A95E1F7CE019E
:1001840081599F4F0E943409BC018CE890E00E9481
:100194008F068AE0E4E1F1E0DE01AB59BF4F019044
:1001A4000D928A95E1F7CE018B599F4F0E94340935
:1001B400BC0180E990E00E948F068AE0EEE1F1E064
:1001C400DE01A55ABF4F01900D928A95E1F7CE0149
:1001D400855A9F4F0E943409BC018AE990E00E942D
:1001E4008F068AE0E8E2F1E0DE01AF5ABF4F0190EA
:1001F4000D928A95E1F7CE018F5A9F4F0E943409E0
:10020400BC0183EA90E00E948F068AE0E2E3F1E019
:10021400DE01A95BBF4F01900D928A95E1F7CE01F3
:10022400895B9F4F0E943409BC018BEA90E00E94D5
:100234008F068AE0ECE3F1E0DE01DD9601900D9299
:100244008A95E1F7CE01CD960E943409BC0181EB79
:1002540090E00E948F068AE0E6E4F1E0DE01D396A6
:1002640001900D928A95E1F7CE01C3960E9434095C
:10027400BC0184EB90E00E948F068AE0E0E5F1E0A7
:10028400DE01999601900D928A95E1F7CE01899647
:100294000E943409BC0182EC90E00E948F068AE03F
:1002A400EAE5F1E0DE015F9601900D928A95E1F7AF
:1002B400CE014F960E943409BC0188EC90E00E9464
:1002C4008F068AE0E4E6F1E0DE01559601900D9296
:1002D4008A95E1F7CE0145960E943409BC0181ED6F
:1002E40090E00E948F068AE0EEE6F1E0DE011B96C4
:1002F40001900D928A95E1F7CE010B960E94340984
:10030400BC018BED90E00E948F068AE0E8E7F1E003
:10031400DE01119601900D928A95E1F7CE010196C6
:100324000E943409BC018BED90E00E948F06C056F8
:10033400DF4F0FB6F894DEBF0FBECDBFDF91CF9174
:0203440008951A
:10034600CF93DF93CDB7DEB7C555D1090FB6F89475
:10035600DEBF0FBECDBFFE01EE5BFF4F8AE0DF01C1
:10036600982F1D929A95E9F73A96DF011D928A9584
:10037600E9F7E12C00E018EF27E237E440E05CEE15
:1003860069E277E4CE0107960E949207EE24E39491
:1003960000E010E42CE937E440E058E260EA77E454
:1003A600CE0142960E9492076894EE24E1F800E09E
:1003B60014E12DE437E440E054E360E577E4CE0150
:1003C6004D960E9492070F2EF3E0EF2EF02D00E0DF
:1003D60014EB2CE537E440E05CE960E677E4CE0117
:1003E60088960E9492076894EE24E2F800E014E5ED
:1003F6002CE637E440E05CE360E777E4CE01C396A1
:100406000E94920745E050E0BE01695F7F4FCE0132
:10041600CE960E946D0A1F92812CA12C0F2EFAE017
:10042600CF2EF02D0F2EF9E0EF2EF02D04E025E073
:1004360046E067E0CE0101960E94D7040E949A0A20
:100446000F9084EF91E020E931E0F9013197F1F75F
:100456000197D9F70E945A00789461E0CE0101967F
:100466000E94960500E911E00F2EF0E4EF2EFCE95C
:10047600FF2EF02D80E00E941C0A80E29EE4F80127
:100486003197F1F70197D9F7CE01CE960E94BE08B3
:1004960045E050E0BE016E5B7F4FCE01CE960E94D6
:1004A600600781E00E941C0A80E29EE4F801319711
:1004B600F1F70197D9F725E0AE01445B5F4FBE0126
:1004C6006E5B7F4FCE0101960E944006C7010197E1
:0404D600F1F7D0CF9B
:1004DA001F93CF93DF9300D0CDB7DEB7162FAE01AF
:1004EA004E5F5F4FBE016F5F7F4F0E94E6088981B2
:1004FA00823439F118F4813439F079C08334F1F156
:10050A00843409F458C073C02A81112319F01130B8
:10051A0069F06DC03BB381E090E002C0880F991F7B
:10052A002A95E2F7809583238BBB61C03BB381E0B8
:10053A0090E002C0880F991F2A95E2F7832B8BBBA4
:10054A0056C02A81112319F0113069F050C038B30E
:10055A0081E090E002C0880F991F2A95E2F7809502
:10056A00832388BB44C038B381E090E002C0880F7F
:10057A00991F2A95E2F7832B88BB39C02A81112358
:10058A0019F0113069F033C035B381E090E002C050
:10059A00880F991F2A95E2F78095832385BB27C088
:1005AA0035B381E090E002C0880F991F2A95E2F7DF
:1005BA00832B85BB1CC02A81112319F0113069F0E5
:1005CA0016C032B381E090E002C0880F991F2A95C5
:1005DA00E2F78095832382BB0AC032B381E090E0C0
:1005EA0002C0880F991F2A95E2F7832B82BB0F90CE
:0A05FA000F90DF91CF911F9108953B
:100604001F93CF93DF9300D0CDB7DEB7162FAE0183
:100614004E5F5F4FBE016F5F7F4F0E94E608898186
:10062400823439F118F4813439F079C08334F1F12A
:10063400843409F458C073C02A81112319F011308D
:1006440069F06DC03AB381E090E002C0880F991F51
:100654002A95E2F7809583238ABB61C03AB381E08F
:1006640090E002C0880F991F2A95E2F7832B8ABB7A
:1006740056C02A81112319F0113069F050C037B3E4
:1006840081E090E002C0880F991F2A95E2F78095D7
:10069400832387BB44C037B381E090E002C0880F56
:1006A400991F2A95E2F7832B87BB39C02A8111232E
:1006B40019F0113069F033C034B381E090E002C026
:1006C400880F991F2A95E2F78095832384BB27C05E
:1006D40034B381E090E002C0880F991F2A95E2F7B5
:1006E400832B84BB1CC02A81112319F0113069F0BB
:1006F40016C031B381E090E002C0880F991F2A959B
:10070400E2F78095832381BB0AC031B381E090E096
:1007140002C0880F991F2A95E2F7832B81BB0F90A3
:0A0724000F90DF91CF911F9108950F
:10072E0010C00E945F0A58F00E94580A40F029F447
:10073E005F3F29F00C947F0A51110C94670A0C94B8
:10074E00A00A0E947C0968F39923B1F3552391F313
:10075E00951B550BBB27AA2762177307840738F022
:10076E009F5F5F4F220F331F441FAA1FA9F335D07F
:10077E000E2E3AF0E0E832D091505040E695001C33
:10078E00CAF72BD0FE2F29D0660F771F881FBB1FED
:10079E00261737074807AB07B0E809F0BB0B802DCB
:1007AE00BF01FF2793585F4F3AF09E3F510578F0F7
:1007BE000C947F0A0C94670A5F3FE4F3983ED4F3DF
:1007CE00869577956795B795F7959F5FC9F7880FCB
:1007DE00911D9695879597F90895E1E0660F771F1D
:1007EE00881FBB1F621773078407BA0720F0621BAE
:0E07FE00730B840BBA0BEE1F88F7E09508957D
:10080C000FC00E94580A38F00E945F0A20F095230E
:10081C0011F00C947F0A0C94A00A11240C94670A12
:10082C000E947C0970F3959FC1F3950F50E0551F02
:10083C00629FF001729FBB27F00DB11D639FAA2729
:10084C00F00DB11DAA1F649F6627B00DA11D661F78
:10085C00829F2227B00DA11D621F739FB00DA11D99
:10086C00621F839FA00D611D221F749F3327A00D53
:10087C00611D231F849F600D211D822F762F6A2FEF
:10088C0011249F5750409AF0F1F088234AF0EE0F54
:10089C00FF1FBB1F661F771F881F91505040A9F781
:1008AC009E3F510580F00C947F0A0C94670A5F3FC1
:1008BC00E4F3983ED4F3869577956795B795F795BD
:1008CC00E7959F5FC1F7FE2B880F911D9695879535
:0408DC0097F90895EB
:1008E00011C00E94580A38F00E945F0A20F039F4C3
:1008F0009F3F19F426F40C94A00A0EF4E095E7FB50
:100900000C947F0AE92F0E947C0958F3BA176207FA
:1009100073078407950720F079F4A6F50C94660A0E
:100920000EF4E0950B2EBA2FA02D0B01B90190010A
:100930000C01CA01A0011124FF27591B99F0593F4E
:1009400050F4503E68F11A16F040A22F232F342F96
:100950004427585FF3CF469537952795A795F040E4
:100960005395C9F77EF41F16BA0B620B730B840BF9
:10097000BAF09150A1F0FF0FBB1F661F771F881FB1
:10098000C2F70EC0BA0F621F731F841F48F4879509
:1009900077956795B795F7959E3F08F0B0CF9395FB
:0E09A000880F08F09927EE0F97958795089518
:1009AE004F925F926F927F928F92AF92CF92EF9211
:1009BE000F931F93CF93DF93CDB7DEB73C01FC01AE
:1009CE000083218342836383E482C5828C012C01E0
:1009DE00F4E04F0E511C61E0F80181918F010E94ED
:1009EE00020304151505B9F761E08E2D0E9402036E
:1009FE0061E08C2D0E94020362E0C3010E94960505
:100A0E006A2D660F660F660F6062C3010E9496051F
:100A1E0008EC10E0C8010197F1F7682D660F8F857D
:100A2E008C60682BC3010E949605C8010197F1F7EF
:100A3E0061E0C3010E94960580EE9EE20197F1F7F8
:100A4E0066E0C3010E949605DF91CF911F910F9131
:100A5E00EF90CF90AF908F907F906F905F904F9070
:020A6E000895E9
:100A7000CF92DF92EF92FF92CF93DF93EC018885C4
:100A80000E942E0A0E948A0A0E94E909BC0180E0A5
:100A900090E00E94230720E030EC4FE754E40E94EE
:100AA000920A20E030E040EA50E40E94960A9B015E
:100AB000AC0160E070E080EA90E40E94920A20E0DD
:100AC00030E040E85FE30E94510A9B01AC0160E026
:100AD00078E987E397E40E94920A6B017C012C81FC
:100AE0003D814E815F810E94850A18162CF081E0BD
:100AF00090E09A87898713C0288139814A815B8178
:100B0000C701B6010E94850A18162CF082E090E019
:100B10009A87898704C083E090E09A878987DF916C
:0C0B2000CF91FF90EF90DF90CF900895F0
:100B2C008F929F92AF92BF92CF92DF92EF92FF92F1
:100B3C000F931F93CF93DF936C01C62F60E0FC01E2
:100B4C0084810E946D02860156016894882482F883
:100B5C00912CD0E07E01BE01082C02C075956795E2
:100B6C000A94E2F76170F50181915F010E946D02B8
:100B7C00FFEF8F1A9F0A88E08816910459F7C60177
:100B8C000E94C609C0E0D0E0B7010C2E02C07595DA
:100B9C0067950A94E2F76170F80181918F010E94C8
:100BAC006D022196C430D10579F7C6010E94C609A1
:100BBC00DF91CF911F910F91FF90EF90DF90CF902D
:0A0BCC00BF90AF909F908F900895A6
:100BD6008F929F92AF92BF92CF92DF92EF92FF9247
:100BE6000F931F93CF93DF936C01C62F61E0FC0137
:100BF60084810E946D02860156016894882482F8D9
:100C0600912CD0E07E01BE01082C02C07595679537
:100C16000A94E2F76170F50181915F010E946D020D
:100C2600FFEF8F1A9F0A88E08816910459F7C601CC
:100C36000E94C609C0E0D0E0B7010C2E02C075952F
:100C460067950A94E2F76170F80181918F010E941D
:100C56006D022196C430D10579F7C6010E94C609F6
:100C6600DF91CF911F910F91FF90EF90DF90CF9082
:0A0C7600BF90AF909F908F900895FB
:100C8000CF92DF92EF92FF920F931F93CF93DF9358
:100C9000CDB7DEB7E2970FB6F894DEBF0FBECDBF7B
:100CA000222371F1062F172FFA01420F511DF12C4B
:100CB000EE24E394D801CD90DD908D01208130E0C9
:100CC000C216D30611F0C082FE2C3196E417F50748
:100CD00089F7FF20A9F0172F062F7C0161E00E9401
:100CE000960542E350E0BE016F5F7F4F802F912F4A
:100CF0000E94DC06BE016F5F7F4FC7010E949E0904
:100D0000E2960FB6F894DEBF0FBECDBFDF91CF9154
:0E0D10001F910F91FF90EF90DF90CF9008950C
:100D1E00AF92BF92CF92DF92EF92FF920F931F93FB
:100D2E00CF93DF935C016B01FC018081882391F0EE
:100D3E003196E12CF12C01C0790197012F5F3F4FC5
:100D4E0081918111F9CFF2E0EF0EF11CE114F10463
:100D5E0021F41FC0EE24E394F12C00E010E0D0E16A
:100D6E009E2D901B8C2D8F70CD2FC81B9C1708F4B9
:100D7E00C92FB501600F711F4C2FC6010E940D09BE
:100D8E004C2F50E0C40ED51E040F151F0E151F0557
:100D9E0038F3C601DF91CF911F910F91FF90EF9025
:0A0DAE00DF90CF90BF90AF90089542
:100DB8008F929F92AF92BF92CF92DF92EF92FF9263
:100DC8000F931F93CF93DF93CDB7DEB75B017A0103
:100DD800CDB6DEB62DB73EB7241B350B0FB6F8944B
:100DE8003EBF0FBE2DBF0DB71EB70F5F1F4F0E942E
:100DF8003409A701B8010E94EF07F801019000200B
:100E0800E9F73197E01BF10B329718F4F5011082DE
:100E180004C0B801C5010E94260A0FB6F894DEBEC8
:100E28000FBECDBEDF91CF911F910F91FF90EF9034
:0E0E3800DF90CF90BF90AF909F908F90089565
:100E4600E89409C097FB3EF490958095709561955E
:100E56007F4F8F4F9F4F9923A9F0F92F96E9BB2714
:100E66009395F695879577956795B795F111F8CF90
:100E7600FAF4BB0F11F460FF1BC06F5F7F4F8F4FFB
:100E86009F4F16C0882311F096E911C0772321F0F1
:100E96009EE8872F762F05C0662371F096E8862F89
:100EA60070E060E02AF09A95660F771F881FDAF7E0
:0A0EB600880F9695879597F9089527
:100EC000CF92DF92EF92FF920F931F93CF93DF9316
:100ED000FC012081318124173507DCF0141615063A
:100EE000C4F47B016C018B01440F551FE40EF51E09
:100EF000C0E0D0E0F601828193818C0F9D1F0E949B
:100F00008E0AF801819391938F012B96EE15FF05C0
:100F100089F7DF91CF911F910F91FF90EF90DF90B4
:040F2000CF900895D1
:100F24004F925F926F927F928F929F92AF92BF92F5
:100F3400EF920F931F93CF93DF93EC012A013B01B0
:100F44004801590120E047E06E2D80E40E94040A24
:100F5400488259826A827B828C829D82AE82BF8261
:100F6400E886DF91CF911F910F91EF90BF90AF90E2
:0E0F74009F908F907F906F905F904F900895A8
:100F82000F931F93CF93DF93CDB7DEB760970FB662
:100F9200F894DEBF0FBECDBFFE013196CE01419661
:100FA20011928E179F07E1F700E010E040E1BE01C9
:100FB2006F5F7F4FC8010E940D09005F1F4F01152F
:100FC20088E0180799F760960FB6F894DEBF0FBE57
:0C0FD200CDBFDF91CF911F910F910895CA
:100FDE00EF92FF920F931F93CF938B017A010E9492
:100FEE00B309C82F0E94790A8C2F81600E94350A9E
:100FFE00C0E00E94430A2C2F30E0F801E20FF31FED
:10100E008083882319F02E153F0528F00E944A0A86
:10101E000E949D0A02C0CF5FECCFCF911F910F911E
:06102E00FF90EF90089511
:101034001F920F920FB60F9211242F933F934F9349
:101044005F936F937F938F939F93AF93BF93EF932C
:10105400FF93E0918601F0918701309709F009959B
:10106400FF91EF91BF91AF919F918F917F916F917C
:101074005F914F913F912F910F900FBE0F901F9052
:021084001895BD
:101086001F920F920FB60F9211242F933F934F93F7
:101096005F936F937F938F939F93AF93BF93EF93DA
:1010A600FF93E0918401F0918501309709F009954D
:1010B600FF91EF91BF91AF919F918F917F916F912A
:1010C6005F914F913F912F910F900FBE0F901F9000
:0210D60018956B
:1010D8001F920F920FB60F9211242F933F934F93A5
:1010E8005F936F937F938F939F93AF93BF93EF9388
:1010F800FF93E0918201F0918301309709F00995FF
:10110800FF91EF91BF91AF919F918F917F916F91D7
:101118005F914F913F912F910F900FBE0F901F90AD
:02112800189518
:10112A001F920F920FB60F9211242F933F934F9352
:10113A005F936F937F938F939F93AF93BF93EF9335
:10114A00FF93E0918801F0918901309709F00995A0
:10115A00FF91EF91BF91AF919F918F917F916F9185
:10116A005F914F913F912F910F900FBE0F901F905B
:02117A001895C6
:10117C00EF92FF920F931F93CF93DF93FC0120818B
:10118C00318112161306ACF47C0100E010E0C0E0D3
:10119C00D0E0F70182819381800F911F0E94380566
:1011AC002196055F1F4FF70180819181C817D907E0
:1011BC0084F3DF91CF911F910F91FF90EF900895E1
:1011CC006115710519F14115510501F1883030F4A3
:1011DC0091E4FB019083FA0180830895803138F407
:1011EC0092E4FB0190838850FA0180830895883142
:1011FC0038F493E4FB0190838051FA0180830895C5
:0E120C0094E4FB0190838851FA0180830895D9
:10121A00EF92FF920F931F93CF93DF937B01142FCB
:10122A000E94B309112371F0E7011150012F10E058
:10123A000F5F1F4F0E0D1F1D89910E943C0AC01798
:10124A00D107D1F70E949D0A80E49CE90197F1F742
:0E125A00DF91CF911F910F91FF90EF900895BB
:10126800FC013A9621E030E060E070E05291429152
:1012780041505109429FD001439FB00D529FB00D7C
:1012880011246A0F7B1FA901440F551F240F351F16
:10129800E817F90759F722E3269FC001279F900D09
:0812A80011248E7F9770089558
:1012B000990F0008550FAA0BE0E8FEEF1616170667
:1012C000E807F907C0F012161306E407F50798F0CF
:1012D000621B730B840B950B39F40A2661F0232BE8
:1012E000242B252B21F408950A2609F4A140A69564
:0812F0008FEF811D811D08959F
:1012F80057FD9058440F551F59F05F3F71F04795BF
:10130800880F97FB991F61F09F3F79F087950895A3
:10131800121613061406551FF2CF4695F1DF08C0C2
:10132800161617061806991FF1CF869571056105DF
:041338000894089578
:10133C000F931F93CF93DF93EB016881662341F0EA
:10134C008C012196C8010E94EB0569916111FACFBD
:0A135C00DF91CF911F910F910895CA
:10136600CF93DF93D82F9770C92FCC0FC06A0E94F6
:10137600790A8C2F0E94350A8D2F0E943C0A8C2FE9
:06138600DF91CF910895F4
:10138C00CF93DF93EC0161E08D810E946D0280E4CC
:10139C009FE10197F1F760E08D810E946D02DF9172
:0413AC00CF91089540
:1013B000092E0394000C11F4882352F0BB0F40F463
:1013C000BF2B11F460FF04C06F5F7F4F8F4F9F4FA3
:0213D00008957E
:1013D20080918A01882339F085B190E0880F991FA6
:0C13E200880F991F089584B195B10895FB
:1013EE0017B897B1892B87B9442319F040938A0116
:0A13FE003D9A87B1682B67B9089586
:10140800CF93C42F16B8422F0E94F70986B1C82B74
:0A141800C6B9379A3398CF910895B2
:10142200EC010E94A80A0E94A70ACE010E94A90A02
:06143200CE010E94A50A94
:10143800882319F0813019F008951ABA08958FEFAA
:041448008ABB0895BE
:10144C00FC01DB012D91BD0121932111FACF0895EF
:0E145C0097B1907E97B997B1892B87B9089503
:0E146A0083B984E886BF06B607FEFDCF08955D
:0E14780083B984E886BF06B607FEFDCF08954F
:0E14860084EC86BF06B607FEFDCF83B1089545
:0E14940084E886BF06B607FEFDCF83B108953B
:0E14A2005058BB27AA270E9470040C94D8094A
:0E14B00000240A941616170618060906089559
:0E14BE0000240A94121613061406050608955B
:0E14CC00E894BB2766277727CB0197F9089590
:0C14DA00FC0151834083738362830895FA
:0C14E60088E480B911B884E086BF089546
:0C14F20084EA86BF06B607FEFDCF089511
:0C14FE0097F99F6780E870E060E00895B7
:0A150A000E94580908F481E00895DA
:08151400369A3699FECF0895C6
:08151C00FC0181859285089510
:081524000E9497030C94D80902
:08152C000E9406040C94D8098A
:061534000E94730A0895F5
:06153A0084E986BF08955C
:061540009FEF80EC08950E
:041546000C94000001
:04154A000E945800A3
:02154E000895FE
:021550000895FC
:021552000895FA
:10155400417765736F6D65210049204C6F76652076
:10156400550049207265616C6C79206C6F7665203A
:10157400550049207761746368205500596F7500E0
:10158400476F6F64206A6F622100517565737469D7
:101594006F6E00492061677265650051756F7465EF
:1015A400004E6F004D616465206D65206C61756748
:1015B400680048656C6C6F004E6F742073757265BB
:1015C400004920616D2066696E65005468616E6B28
:1015D4007300030001000300030001000100010087
:1015E40003000300010001000100010003000100E9
:1015F40003000100010003000300030001000300D5
:1016040003000300010003000300030003000300C0
:1016140002000300030003000300030003000300AF
:1016240003000300020002000300030002000200A2
:101634000200030003000200020003000300030091
:10164400010001000100010001000100030003008A
:101654000300010002000200010001000100030078
:10166400010001000100010002000100010001006D
:02167400010073
:00000001FF
