:100000000C942D000C94B4020C94DD020C940603A5
:100010000C94F9030C94F9030C94F9030C94F90370
:100020000C94F9030C94F9030C94F9030C94F90360
:100030000C94F9030C94F9030C94F9030C94F90350
:100040000C942F030C94F9030C94F9030C94F9030A
:100050000C94F90300600072800011241FBECFE5EC
:10006000D8E0DEBFCDBFE4E5F0E040E017C0B591D9
:10007000A59135912591059107FD0CC0959185912C
:10008000EF01F92FE82F05900D92A217B307D9F7CA
:10009000FE0104C01D92A217B307E1F7E935F4078A
:0E00A00031F70E94ED010C945500F894FFCF4B
:1000AE001F93CF93DF9300D0CDB7DEB7162FAE01DF
:1000BE004E5F5F4FBE016F5F7F4F0E945803898175
:1000CE00823439F118F4813439F079C08334F1F186
:1000DE00843409F458C073C02A81112319F01130E9
:1000EE0069F06DC03BB381E090E002C0880F991FAC
:1000FE002A95E2F7809583238BBB61C03BB381E0E9
:10010E0090E002C0880F991F2A95E2F7832B8BBBD4
:10011E0056C02A81112319F0113069F050C038B33E
:10012E0081E090E002C0880F991F2A95E2F7809532
:10013E00832388BB44C038B381E090E002C0880FAF
:10014E00991F2A95E2F7832B88BB39C02A81112388
:10015E0019F0113069F033C035B381E090E002C080
:10016E00880F991F2A95E2F78095832385BB27C0B8
:10017E0035B381E090E002C0880F991F2A95E2F70F
:10018E00832B85BB1CC02A81112319F0113069F015
:10019E0016C032B381E090E002C0880F991F2A95F5
:1001AE00E2F78095832382BB0AC032B381E090E0F0
:1001BE0002C0880F991F2A95E2F7832B82BB0F90FE
:0A01CE000F90DF91CF911F9108956B
:1001D8001F93CF93DF9300D0CDB7DEB7162FAE01B4
:1001E8004E5F5F4FBE016F5F7F4F0E94580389814A
:1001F800823439F118F4813439F079C08334F1F15B
:10020800843409F458C073C02A81112319F01130BD
:1002180069F06DC03AB381E090E002C0880F991F81
:100228002A95E2F7809583238ABB61C03AB381E0BF
:1002380090E002C0880F991F2A95E2F7832B8ABBAA
:1002480056C02A81112319F0113069F050C037B314
:1002580081E090E002C0880F991F2A95E2F7809507
:10026800832387BB44C037B381E090E002C0880F86
:10027800991F2A95E2F7832B87BB39C02A8111235E
:1002880019F0113069F033C034B381E090E002C056
:10029800880F991F2A95E2F78095832384BB27C08E
:1002A80034B381E090E002C0880F991F2A95E2F7E5
:1002B800832B84BB1CC02A81112319F0113069F0EB
:1002C80016C031B381E090E002C0880F991F2A95CB
:1002D800E2F78095832381BB0AC031B381E090E0C7
:1002E80002C0880F991F2A95E2F7832B81BB0F90D4
:0A02F8000F90DF91CF911F91089540
:100302006F927F928F92AF92BF92CF92DF92EF92D3
:10031200FF920F931F93CF93DF93CDB7DEB73C01CC
:10032200B888F988FC018082A182C282E3820483B8
:10033200258346836783B086F1868C016C01F8E0E1
:10034200CF0ED11C61E0F80181918F010E94EC0077
:100352000C151D05B9F761E08B2D0E94EC0061E0E0
:100362008F2D0E94EC006301F0E8EF2E4A89440FC2
:10037200440F440F40638E2DB6010E94300208ECF8
:1003820010E0C8010197F1F74B89440F8C898C600A
:10039200482B8E2DB6010E943002C8010197F1F759
:1003A20041E08E2DB6010E94300280EE9EE201975E
:1003B200F1F746E08E2DB6010E943002DF91CF9117
:1003C2001F910F91FF90EF90DF90CF90BF90AF9071
:0803D2008F907F906F90089559
:1003DA008F92AF92CF92EF920F931F9281E08F93F9
:1003EA008F9388E08F9389E08F93812CAA24A3941A
:1003FA006894CC24C1F80F2EF3E0EF2EF02D04E020
:10040A0025E046E067E080E690E00E9481010E94D4
:10041A00F30361E480E090E00E94C30380E090E08F
:10042A000E94B103482F8FE39CE90197F1F700C0BE
:10043A00000060E670E080E80E9472020F900F9060
:10044A000F900F900F9080E090E00F91EF90CF9077
:06045A00AF908F900895A1
:100460006F927F928F92CF92DF92EF920F931F93B2
:10047000CF93DF933B01882E042FA82FCB01089642
:10048000A11D60E0FC018491A7FD80810E945700BE
:10049000E82C6301C0E0D0E010E0B8010C2E02C0EF
:1004A000759567950A94E2F76170F6018491E7FC0F
:1004B00080810E94570021968FEFC81AD80AE80A57
:1004C000C830D10551F7882DB3010E947F03DF9119
:1004D000CF911F910F91EF90DF90CF908F907F90F1
:0404E0006F9008957C
:1004E4006F927F928F92CF92DF92EF920F931F932E
:1004F400CF93DF933B01882E042FA82FCB010896BE
:10050400A11D61E0FC018491A7FD80810E94570038
:10051400E82C6301C0E0D0E010E0F6018491E7FC30
:1005240080819FEFC91AD90AE90AB8010C2E02C0CA
:10053400759567950A94E2F761700E9457002196B9
:10054400C830D10551F7882DB3010E947F03DF9194
:10055400CF911F910F91EF90DF90CF908F907F906C
:040564006F900895F7
:100568001F920F920FB60F9211242F933F934F9320
:100578005F936F937F938F939F93AF93BF93EF9303
:10058800FF93E0916E00F0916F00309709F00995A4
:10059800FF91EF91BF91AF919F918F917F916F9153
:1005A8005F914F913F912F910F900FBE0F901F9029
:0205B800189594
:1005BA001F920F920FB60F9211242F933F934F93CE
:1005CA005F936F937F938F939F93AF93BF93EF93B1
:1005DA00FF93E0916C00F0916D00309709F0099556
:1005EA00FF91EF91BF91AF919F918F917F916F9101
:1005FA005F914F913F912F910F900FBE0F901F90D7
:02060A00189541
:10060C001F920F920FB60F9211242F933F934F937B
:10061C005F936F937F938F939F93AF93BF93EF935E
:10062C00FF93E0916A00F0916B00309709F0099507
:10063C00FF91EF91BF91AF919F918F917F916F91AE
:10064C005F914F913F912F910F900FBE0F901F9084
:02065C001895EF
:10065E001F920F920FB60F9211242F933F934F9329
:10066E005F936F937F938F939F93AF93BF93EF930C
:10067E00FF93E0917000F0917100309709F00995A9
:10068E00FF91EF91BF91AF919F918F917F916F915C
:10069E005F914F913F912F910F900FBE0F901F9032
:0206AE0018959D
:1006B0006115710519F14115510501F1883030F4CA
:1006C00091E4FB019083FA0180830895803138F42E
:1006D00092E4FB0190838850FA0180830895883169
:1006E00038F493E4FB0190838051FA0180830895EC
:0E06F00094E4FB0190838851FA018083089501
:1006FE00CF92DF92EF926B01E82E99E0C90ED11CDA
:10070E00E11C61E0F6018491E7FC80810E945700B4
:10071E0080E49FE10197F1F760E0F6018491E7FC38
:0E072E0080810E945700EF90DF90CF900895D9
:10073C00CF93DF93D82F9770C92FCC0FC06A0E942C
:10074C00ED038C2F0E94D2038D2F0E94D9038C2F86
:06075C00DF91CF9108952A
:10076200CF930E949E03C82F0E94ED038C2F8160BD
:100772000E94D2030E94E003C82F0E94F6038C2F2E
:04078200CF91089576
:10078600CF93C62F0E949E038C2F0E94D9030E94EE
:0E079600F60380E49CE90197F1F7CF910895F6
:0E07A40083B984E886BF06B607FEFDCF089530
:0E07B20083B984E886BF06B607FEFDCF089522
:0E07C00084E886BF06B607FEFDCF83B108951C
:0C07CE0088E480B911B884E086BF08956B
:0C07DA0084EA86BF06B607FEFDCF089536
:0607E6000E94E7030895E4
:0607EC0084E986BF0895B8
:0407F2000C94000063
:00000001FF
