:100000000C942D000C9458040C9481040C94AA04B4
:100010000C942C060C942C060C942C060C942C0698
:100020000C942C060C942C060C942C060C942C0688
:100030000C942C060C942C060C942C060C942C0678
:100040000C94D3040C942C060C942C060C942C06C3
:100050000C942C0600600074800011241FBECFE5B4
:10006000D8E0DEBFCDBFE4E5F0E040E017C0B591D9
:10007000A59135912591059107FD0CC0959185912C
:10008000EF01F92FE82F05900D92A217B307D9F7CA
:10009000FE0104C01D92A217B307E1F7E935F4078A
:0E00A00031F70E9463000C945500F894FFCFD6
:1000AE00486F772061726520796F753F0049276D23
:0700BE002066696E652E004B
:1000C6008F92AF92CF92DF92EF92FF920F93CF93E0
:1000D600DF93CDB7DEB7E2970FB6F894DEBF0FBE5B
:1000E600CDBF1F9281E08F938F9388E08F9389E035
:1000F6008F93812CAA24A3946894CC24C1F80F2E44
:10010600F3E0EF2EF02D04E025E046E067E080E620
:1001160090E00E9432030E9445058EEA90E0A0E03E
:10012600B0E0BC01CD017727882799270E94B3024A
:100136006C018BEB90E0A0E0B0E0BC01CD0177272D
:10014600882799270E94B3027C01B60185E00E94A8
:10015600B705B70186E00E94B70580E00E948405D6
:10016600BE016F5F7F4F0E94230580E690E06C0121
:1001760020E8E22EAE014F5F5F4F8E2DB6010E9442
:100186009E058FEF91EE24E0815090402040E1F7EC
:1001960000C0000041E08E2DB6010E949E0381E062
:1001A6000E948405BE016F5F7F4F0E942305AE014A
:1001B6004F5F5F4F8E2DB6010E949E058FEF91EE29
:1001C60024E0815090402040E1F700C0000041E06B
:1001D6008E2DB6010E949E0382E00E948405BE0118
:1001E6006F5F7F4F0E942305AE014F5F5F4F8E2DDD
:1001F600B6010E949E058FEF91EE24E0815090405B
:100206002040E1F700C0000041E08E2DB6010E94BB
:100216009E0383E00E948405BE016F5F7F4F0E94AC
:100226002305AE014F5F5F4F8E2DB6010E949E05DE
:100236008FEF91EE24E0815090402040E1F700C01E
:10024600000041E08E2DB6010E949E0384E00E94CC
:100256008405BE016F5F7F4F0E942305AE014F5F8D
:100266005F4F8E2DB6010E949E058FEF91EE24E022
:10027600815090402040E1F700C0000041E08E2D03
:10028600B6010E949E0385E00E948405BE016F5F51
:100296007F4F0E942305AE014F5F5F4F8E2DB60143
:1002A6000E949E058FEF91EE24E081509040204001
:1002B600E1F700C0000041E08E2DB6010E949E03CA
:1002C60086E00E948405BE016F5F7F4F0E94230572
:1002D600AE014F5F5F4F8E2DB6010E949E050F90B7
:1002E6000F900F900F900F9080E090E0E2960FB67F
:1002F600F894DEBF0FBECDBFDF91CF910F91FF9077
:0C030600EF90DF90CF90AF908F900895A3
:100312001F93CF93DF9300D0CDB7DEB7162FAE0178
:100322004E5F5F4FBE016F5F7F4F0E94FC04898169
:10033200823439F118F4813439F079C08334F1F11F
:10034200843409F458C073C02A81112319F0113082
:1003520069F06DC03BB381E090E002C0880F991F45
:100362002A95E2F7809583238BBB61C03BB381E082
:1003720090E002C0880F991F2A95E2F7832B8BBB6E
:1003820056C02A81112319F0113069F050C038B3D8
:1003920081E090E002C0880F991F2A95E2F78095CC
:1003A200832388BB44C038B381E090E002C0880F49
:1003B200991F2A95E2F7832B88BB39C02A81112322
:1003C20019F0113069F033C035B381E090E002C01A
:1003D200880F991F2A95E2F78095832385BB27C052
:1003E20035B381E090E002C0880F991F2A95E2F7A9
:1003F200832B85BB1CC02A81112319F0113069F0AF
:1004020016C032B381E090E002C0880F991F2A958E
:10041200E2F78095832382BB0AC032B381E090E089
:1004220002C0880F991F2A95E2F7832B82BB0F9097
:0A0432000F90DF91CF911F91089504
:10043C001F93CF93DF9300D0CDB7DEB7162FAE014D
:10044C004E5F5F4FBE016F5F7F4F0E94FC0489813E
:10045C00823439F118F4813439F079C08334F1F1F4
:10046C00843409F458C073C02A81112319F0113057
:10047C0069F06DC03AB381E090E002C0880F991F1B
:10048C002A95E2F7809583238ABB61C03AB381E059
:10049C0090E002C0880F991F2A95E2F7832B8ABB44
:1004AC0056C02A81112319F0113069F050C037B3AE
:1004BC0081E090E002C0880F991F2A95E2F78095A1
:1004CC00832387BB44C037B381E090E002C0880F20
:1004DC00991F2A95E2F7832B87BB39C02A811123F8
:1004EC0019F0113069F033C034B381E090E002C0F0
:1004FC00880F991F2A95E2F78095832384BB27C028
:10050C0034B381E090E002C0880F991F2A95E2F77E
:10051C00832B84BB1CC02A81112319F0113069F084
:10052C0016C031B381E090E002C0880F991F2A9564
:10053C00E2F78095832381BB0AC031B381E090E060
:10054C0002C0880F991F2A95E2F7832B81BB0F906D
:0A055C000F90DF91CF911F910895D9
:100566006F927F928F92CF92DF92EF92FF920F93CC
:100576001F93CF93DF933B01882EC0907200D090DB
:100586007300FB01849187FC80818823F9F0A82DF4
:10059600C3010196A11DE12CF12C01C07B01B7011D
:1005A6006F5F7F4F0196A11D9C014A2F2150310993
:1005B6004109F901249147FD20812111EFCF82E005
:1005C600E80EF11CE114F10421F42EC0EE24E394AC
:1005D600F12C00E010E0D0E1809172009091730060
:1005E600382F3F702E2D201BCD2FC31B2C1708F440
:1005F600C22F682DA301400F511F611D17FD6A957B
:100606002C2F0E9422042C2F30E0809172009091B2
:100616007300820F931F9093730080937200020FF2
:10062600131F0E151F05C0F260917200C091730072
:100636008EEF97E00E94F2056C2F67708FEF97E0C0
:100646000E94F205C601DF91CF911F910F91FF9095
:0E065600EF90DF90CF908F907F906F9008957F
:100664006F927F928F92AF92BF92CF92DF92EF926E
:10067400FF920F931F93CF93DF93CDB7DEB73C0167
:10068400B888F988FC018082A182C282E382048353
:10069400258346836783B086F1868C016C01F8E07C
:1006A400CF0ED11C61E0F80181918F010E941E02DE
:1006B4000C151D05B9F761E08B2D0E941E0261E047
:1006C4008F2D0E941E026301F0E8EF2E4A89440F29
:1006D400440F440F40638E2DB6010E949E0308EC24
:1006E40010E0C8010197F1F74B89440F8C898C60A5
:1006F400482B8E2DB6010E949E03C8010197F1F785
:1007040041E08E2DB6010E949E0380EE9EE2019789
:10071400F1F746E08E2DB6010E949E03DF91CF9142
:100724001F910F91FF90EF90DF90CF90BF90AF900B
:080734008F907F906F900895F3
:10073C006F927F928F92CF92DF92EF920F931F93D3
:10074C00CF93DF933B01882E042FA82FCB01089663
:10075C00A11D60E0FC018491A7FD80810E948901AC
:10076C00E82C6301C0E0D0E010E0B8010C2E02C010
:10077C00759567950A94E2F76170F6018491E7FC30
:10078C0080810E94890121968FEFC81AD80AE80A45
:10079C00C830D10551F7882DB3010E946505DF9152
:1007AC00CF911F910F91EF90DF90CF908F907F9012
:0407BC006F9008959D
:1007C0006F927F928F92CF92DF92EF920F931F934F
:1007D000CF93DF933B01882E042FA82FCB010896DF
:1007E000A11D61E0FC018491A7FD80810E94890127
:1007F000E82C6301C0E0D0E010E0F6018491E7FC52
:1008000080819FEFC91AD90AE90AB8010C2E02C0EB
:10081000759567950A94E2F761700E9489012196A7
:10082000C830D10551F7882DB3010E946505DF91CD
:10083000CF911F910F91EF90DF90CF908F907F908D
:040840006F90089518
:100844006F927F928F92CF92DF92EF92CF933A0181
:10085400862EC22F0E94CD05CC23D1F0E82C630153
:10086400C1502C2F30E02F5F3F4F620E731E811C4E
:1008740037FD8A94F6018491E7FC80810E94080682
:100884008FEFC81AD80AE80AC614D704E80491F707
:100894000E94290680E49CE90197F1F7CF91EF903B
:0C08A400DF90CF908F907F906F900895B0
:1008B0001F920F920FB60F9211242F933F934F93D5
:1008C0005F936F937F938F939F93AF93BF93EF93B8
:1008D000FF93E0916E00F0916F00309709F0099559
:1008E000FF91EF91BF91AF919F918F917F916F9108
:1008F0005F914F913F912F910F900FBE0F901F90DE
:02090000189548
:100902001F920F920FB60F9211242F933F934F9382
:100912005F936F937F938F939F93AF93BF93EF9365
:10092200FF93E0916C00F0916D00309709F009950A
:10093200FF91EF91BF91AF919F918F917F916F91B5
:100942005F914F913F912F910F900FBE0F901F908B
:020952001895F6
:100954001F920F920FB60F9211242F933F934F9330
:100964005F936F937F938F939F93AF93BF93EF9313
:10097400FF93E0916A00F0916B00309709F00995BC
:10098400FF91EF91BF91AF919F918F917F916F9163
:100994005F914F913F912F910F900FBE0F901F9039
:0209A4001895A4
:1009A6001F920F920FB60F9211242F933F934F93DE
:1009B6005F936F937F938F939F93AF93BF93EF93C1
:1009C600FF93E0917000F0917100309709F009955E
:1009D600FF91EF91BF91AF919F918F917F916F9111
:1009E6005F914F913F912F910F900FBE0F901F90E7
:0209F600189552
:1009F8006115710519F14115510501F1883030F47F
:100A080091E4FB019083FA0180830895803138F4E2
:100A180092E4FB0190838850FA018083089588311D
:100A280038F493E4FB0190838051FA0180830895A0
:0E0A380094E4FB0190838851FA0180830895B5
:100A46000F931F93CF93DF938B010E94CD05C82F81
:100A56000E9423068C2F81600E940106E8010D5C2E
:100A66001F4F0E940F068993882319F0C017D107DC
:100A7600C1F70E9416060E942906DF91CF911F91A9
:040A86000F9108952F
:100A8A00CF930E941D068EEF97E00E94E005C82FC3
:100A9A008FEF97E00E94E0052C2F30E0A901582B38
:100AAA00CA018E3F57E0950728F49093730080930C
:100ABA00720004C01092730010927200CF910895D0
:100ACA00CF92DF92EF926B01E82E99E0C90ED11C0A
:100ADA00E11C61E0F6018491E7FC80810E948901B2
:100AEA0080E49FE10197F1F760E0F6018491E7FC69
:0E0AFA0080810E948901EF90DF90CF900895D7
:100B08001F93CF93DF93C82FD0E0C058DF4FCC0F8F
:100B1800DD1FCE010E94E005182FCE0101960E942C
:100B2800E005212F30E0A901582BCA01DF91CF91B0
:040B38001F9108956C
:100B3C00CF92DF92EF92CF93DF93EA014881442367
:100B4C0051F06B01E82E21968E2DB6010E94E00328
:100B5C0049914111F9CFDF91CF91EF90DF90CF9078
:020B6C000895EA
:100B6E001F93CF93DF93172FC82FD0E0C058DF4FBE
:100B7E00CC0FDD1FCE010E94F205612FCE01019632
:0C0B8E000E94F205DF91CF911F910895A5
:100B9A00CF93DF93D82F9770C92FCC0FC06A0E94CA
:100BAA0023068C2F0E9401068D2F0E9408068C2F87
:060BBA00DF91CF910895C8
:100BC000CF930E94CD05C82F0E9423068C2F8160F1
:100BD0000E9401060E941606C82F0E9429068C2F2B
:040BE000CF91089514
:100BE400CF93C62F0E94CD058C2F0E9408060E9429
:0E0BF400290680E49CE90197F1F7CF9108955E
:0E0C020083B984E886BF06B607FEFDCF0895CD
:0E0C100083B984E886BF06B607FEFDCF0895BF
:0E0C1E0084EC86BF06B607FEFDCF83B10895B5
:0E0C2C0084E886BF06B607FEFDCF83B10895AB
:0C0C3A0088E480B911B884E086BF0895FA
:0C0C460084EA86BF06B607FEFDCF0895C5
:060C520084E986BF08954D
:040C58000C940000F8
:00000001FF
